{
  "transactions": [
    {
      "hash": "0xc2cc08e0c90903e78cc3566d1f0d30691e1e206a3b790d73bd2ae84309ee17a6",
      "transactionType": "CREATE",
      "contractName": "NDIDSRegistry",
      "contractAddress": "0x1db99a995c566c25e8f9e127b57982c33bf4816b",
      "function": null,
      "arguments": [
        "0x2C80200932C8733b09B70F9962d6302D9E6dB2C5"
      ],
      "transaction": {
        "from": "0x2c80200932c8733b09b70f9962d6302d9e6db2c5",
        "gas": "0x7db13",
        "value": "0x0",
        "input": "0x60a03461009d57601f6106e138819003918201601f19168301916001600160401b038311848410176100a15780849260209460405283398101031261009d57516001600160a01b03811680820361009d571561008b5760805260405161062b90816100b6823960805181818160a3015281816101ec015281816102e0015281816103f2015261046b0152f35b60405163d92e233d60e01b8152600490fd5b5f80fd5b634e487b7160e01b5f52604160045260245ffdfe6080604081815260049182361015610015575f80fd5b5f3560e01c90816310c93e1d146104d757508063178f7d811461044d57806327258b22146104215780632a0acc6a146103de57806357b77c641461028b5780636682edb6146101ce5780636c31cbc2146101a757806383177db31461016e578063927416c0146101515763a3ec88aa1461008d575f80fd5b3461014d57602036600319011261014d578135917f00000000000000000000000000000000000000000000000000000000000000006001600160a01b0316330361013f57825f52600160205260ff825f205416610131575060207ff6bfbb4373ae6abbfa8727a3af82792e3c7e91b72f5339a35b488357b402354d91835f5260018252805f20600160ff198254161790556101285f54610546565b5f5551428152a2005b9051630ea075bf60e21b8152fd5b9051636bd1573560e11b8152fd5b5f80fd5b503461014d575f36600319011261014d576020905f549051908152f35b503461014d57602090610180366104fc565b905f5260028352815f209060018060a01b03165f52825260ff815f20541690519015158152f35b503461014d57602036600319011261014d576101c560209235610568565b90519015158152f35b50903461014d576101de366104fc565b9290916001600160a01b03907f00000000000000000000000000000000000000000000000000000000000000008216330361027d57835f52600160205260ff835f2054161561026f5750825f526002602052815f20931692835f526020525f20600160ff198254161790557f36229e0dbe53619cb98c751474c048a3264379ad918ac4f188d8b68496d35e985f80a3005b825163aba4733960e01b8152fd5b8251636bd1573560e11b8152fd5b50903461014d57602091602060031936011261014d5767ffffffffffffffff90823582811161014d573660238201121561014d578084013592831161014d576024810190602436918560051b01011161014d577f00000000000000000000000000000000000000000000000000000000000000006001600160a01b031633036103ce575f945f5b84811061033f5786865f5491820180921161032c57505f55005b601190634e487b7160e01b5f525260245ffd5b61034a818685610522565b355f52600180835260ff855f20541615610368575b50600101610312565b81976103939161037b6001948988610522565b355f52808552865f209060ff19825416179055610546565b9661039f818786610522565b357ff6bfbb4373ae6abbfa8727a3af82792e3c7e91b72f5339a35b488357b402354d848751428152a29061035f565b8151636bd1573560e11b81528490fd5b503461014d575f36600319011261014d57517f00000000000000000000000000000000000000000000000000000000000000006001600160a01b03168152602090f35b503461014d57602036600319011261014d57602091355f526001825260ff815f20541690519015158152f35b50903461014d5761045d366104fc565b9290916001600160a01b03907f00000000000000000000000000000000000000000000000000000000000000008216330361027d5750825f526002602052815f20931692835f526020525f2060ff1981541690557fe8df840ec3225e5da1c6a512a5a96847ad7ceb6483bf5deb5e3f53c73ea2fe9c5f80a3005b9190503461014d57602036600319011261014d57602092355f52600383525f20548152f35b604090600319011261014d57600435906024356001600160a01b038116810361014d5790565b91908110156105325760051b0190565b634e487b7160e01b5f52603260045260245ffd5b5f1981146105545760010190565b634e487b7160e01b5f52601160045260245ffd5b805f526001602052604060ff815f205416156105ef576002602052805f20335f5260205260ff815f205416156105df57815f526003602052805f206105ad8154610546565b905551904282527f1f6d902b798ec882a08bd42522df74ba8f3c0f55c0b5f85779bd57b67237536560203393a3600190565b51634ca8886760e01b8152600490fd5b50505f9056fea2646970667358221220a4e874fe875371f2552a8e2be70cabeecd7c4d24edea10e1e40a0ba8b9c14ba764736f6c634300081800330000000000000000000000002c80200932c8733b09b70f9962d6302d9e6db2c5",
        "nonce": "0xa6",
        "chainId": "0x13882"
      },
      "additionalContracts": [],
      "isFixedGasLimit": false
    },
    {
      "hash": null,
      "transactionType": "CREATE",
      "contractName": "AIDisbursementTracker",
      "contractAddress": "0x0e832d0c324cd70ca58dd1b0965151167853ce42",
      "function": null,
      "arguments": [
        "0x2C80200932C8733b09B70F9962d6302D9E6dB2C5"
      ],
      "transaction": {
        "from": "0x2c80200932c8733b09b70f9962d6302d9e6db2c5",
        "gas": "0x180577",
        "value": "0x0",
        "input": "0x60a03461009057601f61158d38819003918201601f19168301916001600160401b038311848410176100945780849260209460405283398101031261009057516001600160a01b038116808203610090571561007e576080526040516114e490816100a98239608051818181610de101528181610f7f015261147e0152f35b60405163d92e233d60e01b8152600490fd5b5f80fd5b634e487b7160e01b5f52604160045260245ffdfe6080806040526004361015610012575f80fd5b5f3560e01c9081630b42abf214610fae575080632a0acc6a14610f6a5780635becfab614610dc1578063633c49d814610c6d578063a4d38b0314610bf7578063a826d38614610bae578063b4ada02314610b81578063b648cfdc146104c1578063b8cc6c93146103a8578063bf95c78d1461038b578063c231fa4614610296578063d9211be81461027a578063de045a7514610223578063e33401ad1461019d578063f928122214610160578063f9a9c3a7146100f85763fe9eba15146100d7575f80fd5b346100f4575f3660031901126100f4576020600254604051908152f35b5f80fd5b346100f45760203660031901126100f4576101116110f4565b61011961147c565b6001600160a01b03165f818152600660205260408120805460ff191660011790557f5f5778f703931987ee3352c4e6234067fd41fd5719217faeb4f3631955767bea9080a2005b346100f45760203660031901126100f4576001600160a01b036101816110f4565b165f526006602052602060ff60405f2054166040519015158152f35b346100f4576020806003193601126100f4576001600160a01b036101bf6110f4565b165f52600460205260405f20906040519081602084549182815201935f5260205f20915f905b82821061020c57610208856101fc818903826111d3565b6040519182918261110a565b0390f35b8354865294850194600193840193909101906101e5565b346100f45760403660031901126100f45761023c6110f4565b6001600160a01b03165f908152600560205260409020805460243591908210156100f45760209161026c91611145565b90546040519160031b1c8152f35b346100f4575f3660031901126100f45760205f54604051908152f35b346100f4576020806003193601126100f4576004355f5260038152600c60405f20018054906001600160401b038211610377578290604051926102de838260051b01856111d3565b80845282840180925f52835f205f915b8383106103545750505050604051918083019381845251809452604083019360408160051b85010192915f955b8287106103285785850386f35b909192938280610344600193603f198a82030186528851611080565b960192019601959291909261031b565b600886600192610366859a999a6112d6565b8152019201920191909594956102ee565b634e487b7160e01b5f52604160045260245ffd5b346100f4575f3660031901126100f4576020600154604051908152f35b346100f45760203660031901126100f4576004355f52600360205260405f2080549060018060a01b03806002830154169060038301541690600b600484015493600581015493600682015460ff6007840154169560088401549760098501549361045f600a8701549661044760405191610430836104298160018501611245565b03846111d3565b610440604051809c819301611245565b038a6111d3565b6040519c8d5261018060208e018190528d0190611042565b9760408c015260608b015260808a015260a089015260c088015260048510156104ad5786956102089560e0880152610100870152610120860152610140850152838203610160850152611042565b634e487b7160e01b5f52602160045260245ffd5b346100f4576101003660031901126100f4576004356001600160401b0381116100f4576104f290369060040161115a565b6024356001600160a01b03811681036100f4576044356001600160a01b03811681036100f45760a4356001600160401b0381116100f45761053790369060040161115a565b91909460c4356001600160401b0381116100f457610559903690600401611187565b909160e4356001600160401b0381116100f45761057a903690600401611187565b61058594919461147c565b808403610b51578315610b1e575f54985f198a14610b0a5760018a015f55895f52600360205260405f20938a85556001600160401b038211610377576105db826105d2600188015461120d565b6001880161136c565b5f90601f8311600114610a9d5761060992915f9183610a92575b50508160011b915f199060031b1c19161790565b60018401555b6002830180546001600160a01b038a81166001600160a01b03199283161790925560038501805492891692909116919091179055606435600484015560078301805460ff1916905542600884015560843560098401556001600160401b0387116103775761068d87610684600b86015461120d565b600b860161136c565b5f87601f8111600114610a2757806106b9925f91610a1c575b508160011b915f199060031b1c19161790565b600b8401555b5f5b84811061077a575050505050507f98f860f7d640f0811c54cedf426b204094c66522912a1440dc5cfd1237d5308c826080602097879460018060a01b0388165f5260048a526107138660405f206113bb565b60018060a01b0381165f5260058a5261072f8660405f206113bb565b604051938492606435845260608c850152816060850152848401375f8288018401524260408301526001600160a01b03908116971695601f01601f19168101030190a4604051908152f35b81811015610a0857601e19833603018160051b84013512156100f4576001600160401b038160051b840135840135116100f457600581901b8301358301803536036020909101136100f457604051906107d2826111b7565b8060051b87013582526040516107fb6020601f19601f8560051b890135890135011601826111d3565b600582901b85013585018035808352369101602001116100f457600582901b85013585018035906020908101908301375f60208360051b8701358701358301015260208301525f60408301525f60608301525f60808301525f60a08301525f60c08301525f60e0830152600c850154600160401b8110156103775780600161088c9201600c880155600c87016111f4565b9290926109f5578051835560208101518051906001600160401b038211610377576108be826105d2600188015461120d565b602090601f8311600114610987576108ec92915f918361097c5750508160011b915f199060031b1c19161790565b60018401555b60408101516002840155606081015160038110156104ad5760019360079160ff801960038401541691161760038201556080830151600482015560a0830151600582015560068101858060a01b0360c0850151166001600160601b0360a01b825416179055019060e0848060a01b03910151166001600160601b0360a01b825416179055016106c1565b015190505f806105f5565b9190600186015f5260205f20905f935b601f19841685106109da576001945083601f198116106109c2575b505050811b0160018401556108f2565b01515f1960f88460031b161c191690558f80806109b2565b81810151835560209485019460019093019290910190610997565b634e487b7160e01b5f525f60045260245ffd5b634e487b7160e01b5f52603260045260245ffd5b90508c01358d6106a6565b50600b84015f5260205f20905f5b8c601f198b168210610a7a57505088601f19811610610a61575b5050600187811b01600b8401556106bf565b8b01355f1960038a901b60f8161c191690558a80610a4f565b60018394602093948493013581550193019101610a35565b013590508d806105f5565b600186939293015f5260205f20905f935b601f1984168510610af2576001945083601f19811610610ad9575b505050811b01600184015561060f565b01355f19600384901b60f8161c191690558c8080610ac9565b81810135835560209485019460019093019201610aae565b634e487b7160e01b5f52601160045260245ffd5b60405162461bcd60e51b815260206004820152600b60248201526a4e6f207472616e6368657360a81b6044820152606490fd5b60405162461bcd60e51b815260206004820152600860248201526709ad2e6dac2e8c6d60c31b6044820152606490fd5b346100f45760203660031901126100f4576004355f5260036020526020600c60405f200154604051908152f35b346100f45760403660031901126100f457610bc76110f4565b6001600160a01b03165f908152600460205260409020805460243591908210156100f45760209161026c91611145565b346100f4576020806003193601126100f4576001600160a01b03610c196110f4565b165f52600560205260405f20906040519081602084549182815201935f5260205f20915f905b828210610c5657610208856101fc818903826111d3565b835486529485019460019384019390910190610c3f565b346100f457610c7b3661102c565b90610c8461147c565b805f52600360205260405f20600881015415610daf5760ff60078201541660048110156104ad57610d9a57600c81018054841015610d885783610cc6916111f4565b50600381019182549260ff841660038110156104ad57610d765760017f729ee97e785125a0ff2fcb5852cbf974d1020884fd8ae710b64a3114bcc458d19460ff191617905542600483015560068201336001600160601b0360a01b825416179055610d3860058354920191825461135f565b9055610d47815460015461135f565b6001558054610d6b6040519283928352606060208401526001606084019101611245565b4260408301520390a3005b604051633feadbf760e01b8152600490fd5b60405163647f504b60e11b8152600490fd5b604051600162fce84b60e01b03198152600490fd5b604051633449f82960e11b8152600490fd5b346100f45760803660031901126100f457606435600435602435604435337f00000000000000000000000000000000000000000000000000000000000000006001600160a01b0316141580610f53575b610f4157825f52600360205260405f2093600885015415610daf57600c85018054841015610d885783610e43916111f4565b50946003860193845460ff811660038110156104ad57600103610f2f577f28c93b8063106672e3bda4908e8037a873b773e489b0503338b11f8263282a2160607ff9363de7666386127e5a67ccb5d31149a9fd6718e43f38a18e9f1f44d03deb1f96602096610f0c610f2d9c8c9b60028d9860ff191617905583600282015542600582015560078101336001600160601b0360a01b825416179055600a890198610eee848b5461135f565b8a55610f0160068354920191825461135f565b90555460025461135f565b60025560405191825287820152426040820152a354604051908152a26113ef565b005b604051630b699c1760e01b8152600490fd5b604051636bd1573560e11b8152600490fd5b50335f52600660205260ff60405f20541615610e11565b346100f4575f3660031901126100f4576040517f00000000000000000000000000000000000000000000000000000000000000006001600160a01b03168152602090f35b346100f45761101861101260e0610208935f610fc93661102c565b939092610fd5816111b7565b828152606060208201528260408201528260608201528260808201528260a08201528260c082015201525f526003602052600c60405f20016111f4565b506112d6565b604051918291602083526020830190611080565b60409060031901126100f4576004359060243590565b91908251928382525f5b84811061106c575050825f602080949584010152601f8019910116010190565b60208183018101518483018201520161104c565b9061109f61010083518352602084015190806020850152830190611042565b916040810151604083015260608101519060038210156104ad5760e09160608401526080810151608084015260a081015160a08401528160c08201519160018060a01b0380931660c086015201511691015290565b600435906001600160a01b03821682036100f457565b60209060206040818301928281528551809452019301915f5b828110611131575050505090565b835185529381019392810192600101611123565b8054821015610a08575f5260205f2001905f90565b9181601f840112156100f4578235916001600160401b0383116100f457602083818601950101116100f457565b9181601f840112156100f4578235916001600160401b0383116100f4576020808501948460051b0101116100f457565b61010081019081106001600160401b0382111761037757604052565b90601f801991011681019081106001600160401b0382111761037757604052565b8054821015610a08575f5260205f209060031b01905f90565b90600182811c9216801561123b575b602083101461122757565b634e487b7160e01b5f52602260045260245ffd5b91607f169161121c565b80545f93926112538261120d565b918282526020936001916001811690815f146112b75750600114611279575b5050505050565b90939495505f92919252835f2092845f945b8386106112a357505050500101905f80808080611272565b80548587018301529401938590820161128b565b60ff19168685015250505090151560051b010191505f80808080611272565b906040516112e3816111b7565b809280548252604051611304816112fd8160018601611245565b03826111d3565b60208301526002810154604083015260ff6003820154169060038210156104ad5760e091606084015260048101546080840152600581015460a0840152600760018060a01b03918260068201541660c0860152015416910152565b91908201809211610b0a57565b601f821161137957505050565b5f5260205f20906020601f840160051c830193106113b1575b601f0160051c01905b8181106113a6575050565b5f815560010161139b565b9091508190611392565b8054600160401b811015610377576113d891600182018155611145565b819291549060031b91821b915f19901b1916179055565b805f5260038060205260405f20905f90600c83018054925b83811061144c5750505050600701600160ff198254161790557f50d1cec9d3271e7f823071b865f2e170e8f603cfc63d679ba7e07e5d8e0756936020604051428152a2565b60ff8361145983856111f4565b50015416838110156104ad5760020361147457600101611407565b505050505050565b7f00000000000000000000000000000000000000000000000000000000000000006001600160a01b03163303610f415756fea2646970667358221220934306009bdb8ab51cb9a7f4c206b5a0e0c4d05d2055f8f41f1530897f2becb264736f6c634300081800330000000000000000000000002c80200932c8733b09b70f9962d6302d9e6db2c5",
        "nonce": "0xa7",
        "chainId": "0x13882"
      },
      "additionalContracts": [],
      "isFixedGasLimit": false
    },
    {
      "hash": null,
      "transactionType": "CREATE",
      "contractName": "InteroperabilityHub",
      "contractAddress": "0x3fd12fe1400bd9b8cd7ebe59c47ea27ab6bf5edb",
      "function": null,
      "arguments": [
        "0x2C80200932C8733b09B70F9962d6302D9E6dB2C5"
      ],
      "transaction": {
        "from": "0x2c80200932c8733b09b70f9962d6302d9e6db2c5",
        "gas": "0x20533f",
        "value": "0x0",
        "input": "0x60a03461008d57601f611caf38819003918201601f19168301916001600160401b038311848410176100915780849260209460405283398101031261008d57516001600160a01b03811680820361008d5760015f551561007b57608052604051611c0990816100a6823960805181818161106d0152611b910152f35b60405163d92e233d60e01b8152600490fd5b5f80fd5b634e487b7160e01b5f52604160045260245ffdfe60806040526004361015610011575f80fd5b5f803560e01c80626f065d1461161d57806305e954e71461158d578063187ab357146115615780632808235f1461109c5780632a0acc6a146110575780632f321883146110395780633366ac8114610fcb5780634fd616ff14610f0157806358886dba14610e7a5780635bd103fc14610e3f5780635f2c833b14610dd15780638253174114610d3657806389844383146108d8578063aa610738146108af578063b830093a146107c8578063c3a07df614610676578063ce01823d1461064d5763ce8582d3146100df575f80fd5b3461064a57608036600319011261064a57602435906001600160a01b03821682036104425761010c611a27565b91610115611b8f565b60028254146106385760028255600754906040516101328161184d565b60405161013e81611883565b601681527511539493d3131351539517d0539117d091539151925560521b60208201528152600435602082015260405161017781611883565b60058152644d554c544960d81b60208201526040820152426060820152836080820152600160401b83101561062457600183016007556101b6836117c8565b9190916106105780518051906001600160401b03821161053c5781906101dc8554611815565b601f81116105c3575b50602090601f831160011461055b578892610550575b50508160011b915f199060031b1c19161782555b6020810151600183015560408101518051906001600160401b03821161053c5761023c6002850154611815565b601f81116104f8575b50602090601f83116001146104835792826004936080936102a097968b92610478575b50508160011b915f199060031b1c19161760028501555b606081015160038501550151151591019060ff801983541691151516179055565b60405160208160c481876350668c9560e01b96878352600435600484015260806024840152601160848401527014d0d213d3d317d1539493d31313515395607a1b60a484015260643560448401526001606484015260018060a01b03165af1908161044d575b50610380575050602091506001815b7f18fa80c48a2caf0eae3312db1849ec30932213913203c32a5039619dcd91fbaa60a06040519460608652601660608701527511539493d3131351539517d0539117d091539151925560521b608087015260043587870152151594856040820152a155604051908152f35b829360c460209260405196879384928352600435600484015260806024840152601a60848401527f454455434154494f4e5f42454e454649545f454c494749424c4500000000000060a4840152606435604484015281606484015260018060a01b03165af1928361041e575b506020926103fd5750600181610315565b90600190600461040d83946117c8565b5001805460ff191683179055610315565b602090813d8311610446575b610434818361189e565b81010312610442575f6103ec565b5f80fd5b503d61042a565b602090813d8311610471575b610463818361189e565b81010312610442575f610306565b503d610459565b015190505f80610268565b906002850188526020882091885b601f19851681106104e05750836080936102a0979693600193600497601f198116106104c8575b505050811b01600285015561027f565b01515f1960f88460031b161c191690555f80806104b8565b91926020600181928685015181550194019201610491565b60028501885260208820601f840160051c810160208510610535575b601f830160051c8201811061052a575050610245565b898155600101610514565b5080610514565b634e487b7160e01b87526041600452602487fd5b015190505f806101fb565b9250848852602088209088935b601f19841685106105a8576001945083601f19811610610590575b505050811b01825561020f565b01515f1960f88460031b161c191690555f8080610583565b81810151835560209485019460019093019290910190610568565b90915084885260208820601f840160051c810160208510610609575b90849392915b601f830160051c820181106105fb5750506101e5565b8a81558594506001016105e5565b50806105df565b634e487b7160e01b85526004859052602485fd5b634e487b7160e01b84526041600452602484fd5b604051633ee5aeb560e01b8152600490fd5b80fd5b503461064a578060031936011261064a576001546040516001600160a01b039091168152602090f35b503461064a578060031936011261064a5760065461069381611b01565b906106a1604051928361189e565b8082526006835260209283830191817ff652222313e28459528d920b65115c16c04f3efc82aaedc97be59f3f377c0d3f845b83831061076d5750505050604051928484019085855251809152604084019460408260051b8601019392955b82871061070c5785850386f35b909192938280600192603f1989820301855287519061074761073760808451908085528401906117a3565b84840151838203868501526117a3565b9160408101511515604083015260608091015191015296019201960195929190926106ff565b60048860019260409a99979a5161078381611868565b61078c866118bf565b81526107998587016118bf565b8382015260ff6002870154161515604082015260038601546060820152815201920192019190969395966106d3565b503461064a578060031936011261064a576003546107e581611b01565b906107f3604051928361189e565b8082526003835260209283830191817fc2575a0e9e593c00f959f8c92f12db2869c3395a3b0502d05e2516446f71f85b845b83831061088a5750505050604051928484019085855251809152604084019460408260051b8601019392955b82871061085e5785850386f35b90919293828061087a600193603f198a82030186528851611a3d565b9601920196019592919092610851565b60048860019261089d859b9a989b611b38565b81520192019201919096939596610825565b503461064a578060031936011261064a576002546040516001600160a01b039091168152602090f35b503461064a57606036600319011261064a576004356001600160401b038111610d32576109099036906004016119e4565b91906024356001600160401b038111610d2e5761092a9036906004016119e4565b9091610934611a27565b9061093d611b8f565b60ff6040518486823760208186810160058152030190205416610d1c5760035460405184868237602081868101600481520301902055604051838582376020818581016005815203019020600160ff19825416179055604051956109a08761184d565b6109ab368284611961565b87526109b8368587611961565b60208801526001600160a01b038316604088015260016060880152426080880152600354600160401b81101561053c578060016109f89201600355611a91565b610d085787518051906001600160401b038211610c34578190610a1b8454611815565b601f8111610cbb575b50602090601f8311600114610c53578a92610c48575b50508160011b915f199060031b1c19161781555b60208801519788516001600160401b038111610c3457610a716001840154611815565b601f8111610bf0575b506020601f8211600114610b5957610b3895949392826003936080938d9e7f82cbacccd75dd047c1a4f42dfdd8b98d31aa8c63db8a1b289dc6db68848d33ae9e92610b4e575b50505f1982861b1c1916600191821b17908501555b6002840160018060a01b0360408301511681549060ff60a01b6060850151151560a01b16916affffffffffffffffffffff60a81b16171790550151910155610b2a604051968796606088526060880191611b18565b918583036020870152611b18565b6001600160a01b0390911660408301520390a180f35b015190505f80610ac0565b600184018a5260208a209a8a5b601f1984168110610bd85750926001837f82cbacccd75dd047c1a4f42dfdd8b98d31aa8c63db8a1b289dc6db68848d33ae9c9d608094610b389a999897600397601f19811610610bc1575b505050811b016001850155610ad5565b01515f1983881b60f8161c191690555f8080610bb1565b828201518d556001909c019b60209283019201610b66565b600184018a5260208a20601f830160051c810160208410610c2d575b601f830160051c82018110610c22575050610a7a565b8b8155600101610c0c565b5080610c0c565b634e487b7160e01b89526041600452602489fd5b015190505f80610a3a565b9250838a5260208a20908a935b601f1984168510610ca0576001945083601f19811610610c88575b505050811b018155610a4e565b01515f1960f88460031b161c191690555f8080610c7b565b81810151835560209485019460019093019290910190610c60565b909150838a5260208a20601f840160051c810160208510610d01575b90849392915b601f830160051c82018110610cf3575050610a24565b8c8155859450600101610cdd565b5080610cd7565b634e487b7160e01b87526004879052602487fd5b60405163119b4fd360e11b8152600490fd5b8280fd5b5080fd5b503461064a57602036600319011261064a576004359060035482101561064a57610d9d610d6283611a91565b50610d6c816118bf565b90610d79600182016118bf565b60ff610dab600360028501549401549260405196879660a0885260a08801906117a3565b9086820360208801526117a3565b6001600160a01b038416604086015260a09390931c161515606084015260808301520390f35b503461064a57602036600319011261064a577f5731ef7ae4b233cdbc1a7b963e7713873ec4bb8d03e8f6f87900ab82dd1f1c3f6020610e0e611a11565b610e16611b8f565b600180546001600160a01b0319166001600160a01b03929092169182179055604051908152a180f35b503461064a576020610e6781610e54366119a6565b8160405193828580945193849201611782565b8101600481520301902054604051908152f35b503461064a57602036600319011261064a576004359060065482101561064a57610ee2610ea683611ac9565b50610eb0816118bf565b90610ebd600182016118bf565b610ef0600360ff600285015416930154916040519586956080875260808701906117a3565b9085820360208701526117a3565b911515604084015260608301520390f35b503461064a576020908160031936011261064a576004356001600160401b038111610d3257610f349036906004016119e4565b916080604051610f438161184d565b60608152606086820152826040820152826060820152015260ff6040518383823784818581016005815203019020541615610fb9578183610f9a92610fa09460405193849283378101600481520301902054611a91565b50611b38565b90610fb5604051928284938452830190611a3d565b0390f35b60405163806ab6c960e01b8152600490fd5b503461064a57602036600319011261064a577f0b27b55f88449fb046584bc158d7663cebdeceb7cca7fb45f97dcf22cf4a8d066020611008611a11565b611010611b8f565b600280546001600160a01b0319166001600160a01b03929092169182179055604051908152a180f35b503461064a578060031936011261064a576020600354604051908152f35b503461064a578060031936011261064a576040517f00000000000000000000000000000000000000000000000000000000000000006001600160a01b03168152602090f35b5034610442576040366003190112610442576004356001600160401b038111610442576110cd9036906004016119e4565b91906024356001600160401b038111610442576110ee9036906004016119e4565b93906110f8611b8f565b60ff6040518385823760208185810160058152030190205416158015611541575b610fb95761113b60405183858237602081858101600481520301902054611a91565b5060028061115d604051898682376020818b8101600481520301902054611a91565b5091909201549101546001600160a01b039182169116813b15610442575f91602483926040519485938492635a0af6e960e01b845260048401525af1801561153657611506575b50604051946111b286611868565b6111bd368486611961565b86526111ca368284611961565b602087015260016040870152426060870152600654600160401b8110156114f2578060016111fb9201600655611ac9565b6114de5786518051906001600160401b03821161140a57819061121e8454611815565b601f8111611491575b50602090601f831160011461142957899261141e575b50508160011b915f199060031b1c19161781555b60208701519687516001600160401b03811161140a576112746001840154611815565b601f81116113c6575b506020601f82116001146113325761132195949392826003936060938c9d7f995f2970a2ea0d66cc2150b5c93e3c413df023b5b88534d66259c9c3c6dac86a9d92611327575b50505f1982861b1c1916600191821b17908501555b6112f760408201511515600286019060ff801983541691151516179055565b0151910155611313604051958695604087526040870191611b18565b918483036020860152611b18565b0390a180f35b015190505f806112c3565b6001840189526020892099601f1983168a5b8181106113ae5750837f995f2970a2ea0d66cc2150b5c93e3c413df023b5b88534d66259c9c3c6dac86a9b9c6060946113219a9998979460039760019510611397575b505050811b0160018501556112d8565b01515f1983881b60f8161c191690555f8080611387565b838301518d556001909c019b60209384019301611344565b60018401895260208920601f830160051c810160208410611403575b601f830160051c820181106113f857505061127d565b8a81556001016113e2565b50806113e2565b634e487b7160e01b88526041600452602488fd5b015190505f8061123d565b9250838952602089209089935b601f1984168510611476576001945083601f1981161061145e575b505050811b018155611251565b01515f1960f88460031b161c191690555f8080611451565b81810151835560209485019460019093019290910190611436565b90915083895260208920601f840160051c8101602085106114d7575b90849392915b601f830160051c820181106114c9575050611227565b8b81558594506001016114b3565b50806114ad565b634e487b7160e01b86526004869052602486fd5b634e487b7160e01b86526041600452602486fd5b9093506001600160401b038111611522576040525f925f6111a4565b634e487b7160e01b5f52604160045260245ffd5b6040513d5f823e3d90fd5b5060ff604051868382376020818881016005815203019020541615611119565b3461044257602060ff61157782610e54366119a6565b8101600581520301902054166040519015158152f35b3461044257602036600319011261044257600435600754811015610442576115b76115f9916117c8565b506115c1816118bf565b90600181015461160c6115d6600284016118bf565b9160ff60046003860154950154169260405196879660a0885260a08801906117a3565b91602087015285820360408701526117a3565b916060840152151560808301520390f35b34610442575f3660031901126104425760075461163981611b01565b90611647604051928361189e565b808252602090818301908160075f527fa66cc928b5edb82af9bd49922954155ab7b0942694bea4ce44661d9a8736c6885f915b83831061171f5750505050604051918083019381845251809452604083019360408160051b85010192915f955b8287106116b45785850386f35b909192938280600192603f198982030185528751906116f96116df60a08451908085528401906117a3565b8484015185840152604084015183820360408501526117a3565b9160608082015190830152608080910151151591015296019201960195929190926116a7565b6005866001926040999899516117348161184d565b61173d866118bf565b81528486015483820152611753600287016118bf565b60408201526003860154606082015260ff6004870154161515608082015281520192019201919095949561167a565b5f5b8381106117935750505f910152565b8181015183820152602001611784565b906020916117bc81518092818552858086019101611782565b601f01601f1916010190565b6007548110156118015760059060075f52027fa66cc928b5edb82af9bd49922954155ab7b0942694bea4ce44661d9a8736c68801905f90565b634e487b7160e01b5f52603260045260245ffd5b90600182811c92168015611843575b602083101461182f57565b634e487b7160e01b5f52602260045260245ffd5b91607f1691611824565b60a081019081106001600160401b0382111761152257604052565b608081019081106001600160401b0382111761152257604052565b604081019081106001600160401b0382111761152257604052565b90601f801991011681019081106001600160401b0382111761152257604052565b9060405191825f82546118d181611815565b908184526020946001916001811690815f1461193f5750600114611901575b5050506118ff9250038361189e565b565b5f90815285812095935091905b8183106119275750506118ff93508201015f80806118f0565b8554888401850152948501948794509183019161190e565b925050506118ff94925060ff191682840152151560051b8201015f80806118f0565b9291926001600160401b038211611522576040519161198a601f8201601f19166020018461189e565b829481845281830111610442578281602093845f960137010152565b602060031982011261044257600435906001600160401b0382116104425780602383011215610442578160246119e193600401359101611961565b90565b9181601f84011215610442578235916001600160401b038311610442576020838186019501011161044257565b600435906001600160a01b038216820361044257565b604435906001600160a01b038216820361044257565b90608080611a69611a57855160a0865260a08601906117a3565b602086015185820360208701526117a3565b6040808601516001600160a01b03169085015260608086015115159085015293015191015290565b6003548110156118015760035f5260021b7fc2575a0e9e593c00f959f8c92f12db2869c3395a3b0502d05e2516446f71f85b01905f90565b6006548110156118015760065f5260021b7ff652222313e28459528d920b65115c16c04f3efc82aaedc97be59f3f377c0d3f01905f90565b6001600160401b0381116115225760051b60200190565b908060209392818452848401375f828201840152601f01601f1916010190565b90604051611b458161184d565b608060038294611b54816118bf565b8452611b62600182016118bf565b602085015260028101546001600160a01b038116604086015260a01c60ff16151560608501520154910152565b7f00000000000000000000000000000000000000000000000000000000000000006001600160a01b03163303611bc157565b604051636bd1573560e11b8152600490fdfea2646970667358221220e60f888873cf9d13b637562d34dfd22f51f4533e1a582278b12e3ce830052bc864736f6c634300081800330000000000000000000000002c80200932c8733b09b70f9962d6302d9e6db2c5",
        "nonce": "0xa8",
        "chainId": "0x13882"
      },
      "additionalContracts": [],
      "isFixedGasLimit": false
    },
    {
      "hash": null,
      "transactionType": "CREATE",
      "contractName": "MinistryNode",
      "contractAddress": "0x6c213b53b41c325317df0443442b0eae9c7618cc",
      "function": null,
      "arguments": [
        "Central Bank of Samoa",
        "CBS",
        "0x2C80200932C8733b09B70F9962d6302D9E6dB2C5",
        "0x1db99A995C566C25E8f9e127b57982C33BF4816b"
      ],
      "transaction": {
        "from": "0x2c80200932c8733b09b70f9962d6302d9e6db2c5",
        "gas": "0x1196dc",
        "value": "0x0",
        "input": "0x60e060405234620003815762001224803803806200001d8162000385565b9283398101608082820312620003815781516001600160401b0392908381116200038157826200004f918301620003ab565b602092838301519085821162000381576200006c918401620003ab565b9362000089606062000081604086016200041b565b94016200041b565b936001600160a01b03848116156200036f578516156200036f578251908282116200028d575f54916001948584811c9416801562000364575b838510146200026e578190601f9485811162000311575b508390858311600114620002ad575f92620002a1575b50505f19600383901b1c191690851b175f555b86519283116200028d5783548481811c9116801562000282575b828210146200026e5782811162000226575b5080918311600114620001c0575081929394955f92620001b4575b50505f19600383901b1c191690821b1790555b60805260c0523360a052604051610df3908162000431823960805181818161035a015281816109f701528181610d140152610d7d015260a051818181610316015261097c015260c05181818161040601526107da0152f35b015190505f8062000149565b90601f19831696845f52825f20925f905b8982106200020e575050838596979810620001f5575b505050811b0190556200015c565b01515f1960f88460031b161c191690555f8080620001e7565b808785968294968601518155019501930190620001d1565b845f52815f208380860160051c82019284871062000264575b0160051c019085905b828110620002585750506200012e565b5f815501859062000248565b925081926200023f565b634e487b7160e01b5f52602260045260245ffd5b90607f16906200011c565b634e487b7160e01b5f52604160045260245ffd5b015190505f80620000ef565b90879350601f198316915f8052855f20925f5b87828210620002fa5750508411620002e1575b505050811b015f5562000102565b01515f1960f88460031b161c191690555f8080620002d3565b8385015186558b97909501949384019301620002c0565b9091505f8052835f208580850160051c8201928686106200035a575b918991869594930160051c01915b8281106200034b575050620000d9565b5f81558594508991016200033b565b925081926200032d565b93607f1693620000c2565b60405163d92e233d60e01b8152600490fd5b5f80fd5b6040519190601f01601f191682016001600160401b038111838210176200028d57604052565b919080601f84011215620003815782516001600160401b0381116200028d57602090620003e1601f8201601f1916830162000385565b9281845282828701011162000381575f5b818110620004075750825f9394955001015290565b8581018301518482018401528201620003f2565b51906001600160a01b0382168203620003815756fe6080806040526004361015610012575f80fd5b5f3560e01c90816303e9e60914610a8257508063125f897414610a6557806321c8a28314610a2057806331962cdc1461094557806334461067146108c8578063365a86fc146108a05780633aba5bb81461085f57806350668c95146104a05780635a0af6e9146104355780636eb070b8146103f15780639da86cf414610389578063b466a85d14610345578063c1b8411a14610301578063d96039da14610258578063e0ba8855146101785763e71cd45b146100cc575f80fd5b3461017457602080600319360112610174576100e6610d11565b6004355f526004815260405f20604051908183825491828152019081925f52845f20905f5b8682821061016057868661012182880383610c4d565b60405192839281840190828552518091526040840192915f5b82811061014957505050500390f35b83518552869550938101939281019260010161013a565b83548552909301926001928301920161010b565b5f80fd5b34610174575f366003190112610174576040515f8054908261019983610bf9565b91828252602093600190856001821691825f146102385750506001146101df575b506101c792500383610c4d565b6101db604051928284938452830190610b59565b0390f35b5f808052859250907f290decd9548b62a8d60345a988386fc84ba6bc95484008f6362f93160ef3e5635b8583106102205750506101c79350820101856101ba565b80548389018501528794508693909201918101610209565b60ff1916858201526101c795151560051b85010192508791506101ba9050565b34610174575f366003190112610174576040515f6001826001549261027c84610bf9565b92838352602094856001821691825f146102385750506001146102a657506101c792500383610c4d565b84915060015f527fb10e2d527612073b26eecdfd717e6a320cf44b4afac2b0732d9fcbe2b7fa0cf6905f915b8583106102e95750506101c79350820101856101ba565b805483890185015287945086939092019181016102d2565b34610174575f366003190112610174576040517f00000000000000000000000000000000000000000000000000000000000000006001600160a01b03168152602090f35b34610174575f366003190112610174576040517f00000000000000000000000000000000000000000000000000000000000000006001600160a01b03168152602090f35b34610174576020366003190112610174576004356001600160a01b03811690819003610174576103b7610d73565b805f52600560205260405f2060ff1981541690557fc5ab14d3802826c81e95b5f6967e95d6111420417796662e1cce7dd826f95b6b5f80a2005b34610174575f366003190112610174576040517f00000000000000000000000000000000000000000000000000000000000000006001600160a01b03168152602090f35b34610174576020366003190112610174576004356001600160a01b0381169081900361017457610463610d73565b805f52600560205260405f20600160ff198254161790557f7bfc9b6864369f9198a00e7a1992d67b1791816f60e871974badd0a9ec6b62aa5f80a2005b346101745760803660031901126101745760243567ffffffffffffffff808211610174573660238301121561017457808260040135116101745736602483600401358401011161017457606435918215158303610174576104ff610d73565b5f926107b9575b600354916040519061051782610c31565b6004358252604051906105386020601f19601f876004013501160183610c4d565b60048401358083526024850160208401375f60208560040135840101526020830191825260443560408401524260608401528515156080840152600160401b8510156106d2576001850160035561058e85610bc0565b9290926107a657835183555180519182116106d2576105b06001840154610bf9565b601f8111610762575b50602090601f83116001146106f1579180608094926004945f926106e6575b50508160011b915f199060031b1c19161760018201555b604084015160028201556060840151600382015501910151151560ff801983541691161790556004355f52600460205260405f208054600160401b8110156106d25760209461066682869460017fafc22855f127a8809293361fe7e18d4d2eb84d47fc04ffba720b53ebf416b48595018155610b97565b81549060031b9085821b915f19901b191617905560405190606082528460040135606083015284600401356024860160808401375f608086600401358401015215158682015242604082015260808160043595601f8019916004013501168101030190a3604051908152f35b634e487b7160e01b5f52604160045260245ffd5b0151905089806105d8565b90600184015f5260205f20915f5b601f198516811061074a5750926080949260019260049583601f19811610610732575b505050811b0160018201556105ef565b01515f1960f88460031b161c19169055898080610722565b919260206001819286850151815501940192016106ff565b600184015f5260205f20601f840160051c81016020851061079f575b601f830160051c820181106107945750506105b9565b5f815560010161077e565b508061077e565b634e487b7160e01b5f525f60045260245ffd5b604051633618e5e160e11b815260048035908201529092506020816024815f7f00000000000000000000000000000000000000000000000000000000000000006001600160a01b03165af1908115610854575f91610819575b5091610506565b90506020813d60201161084c575b8161083460209383610c4d565b81010312610174575180151581036101745783610812565b3d9150610827565b6040513d5f823e3d90fd5b34610174576020366003190112610174576004356001600160a01b03811690819003610174575f526005602052602060ff60405f2054166040519015158152f35b34610174575f366003190112610174576002546040516001600160a01b039091168152602090f35b3461017457602036600319011261017457600435600354811015610174576108ef90610bc0565b5080546108fe60018301610c6f565b9160028101549060ff60046003830154920154169061092f604051958695865260a0602087015260a0860190610b59565b9260408501526060840152151560808301520390f35b34610174576020366003190112610174576004356001600160a01b0381811691829003610174576002549080821690816109e157807f00000000000000000000000000000000000000000000000000000000000000001633141590816109f3575b506109e15782907ffd6048904970d0056fa1c58afc86fa73408d3a477aa252fe1f09989eaea3d55a5f80a36001600160a01b03191617600255005b604051636bd1573560e11b8152600490fd5b90507f000000000000000000000000000000000000000000000000000000000000000016331415846109a6565b34610174576040366003190112610174576024356004355f52600460205260405f20805482101561017457602091610a5791610b97565b90546040519160031b1c8152f35b34610174575f366003190112610174576020600354604051908152f35b3461017457602036600319011261017457608081610aa05f93610c31565b828152606060208201528260408201528260608201520152610ac0610d11565b610acb600435610bc0565b50604051610ad881610c31565b81548152610ae860018301610c6f565b91602082019283526002810154906040830191825260ff60046003830154926060860193845201541690608084019115158252610b40604051958695602087525160208701525160a0604087015260c0860190610b59565b9251606085015251608084015251151560a08301520390f35b91908251928382525f5b848110610b83575050825f602080949584010152601f8019910116010190565b602081830181015184830182015201610b63565b8054821015610bac575f5260205f2001905f90565b634e487b7160e01b5f52603260045260245ffd5b600354811015610bac5760059060035f52027fc2575a0e9e593c00f959f8c92f12db2869c3395a3b0502d05e2516446f71f85b01905f90565b90600182811c92168015610c27575b6020831014610c1357565b634e487b7160e01b5f52602260045260245ffd5b91607f1691610c08565b60a0810190811067ffffffffffffffff8211176106d257604052565b90601f8019910116810190811067ffffffffffffffff8211176106d257604052565b9060405191825f8254610c8181610bf9565b908184526020946001916001811690815f14610cef5750600114610cb1575b505050610caf92500383610c4d565b565b5f90815285812095935091905b818310610cd7575050610caf93508201015f8080610ca0565b85548884018501529485019487945091830191610cbe565b92505050610caf94925060ff191682840152151560051b8201015f8080610ca0565b337f00000000000000000000000000000000000000000000000000000000000000006001600160a01b0316141580610d5c575b610d4a57565b6040516380f5528f60e01b8152600490fd5b50335f52600560205260ff60405f20541615610d44565b60018060a01b03807f0000000000000000000000000000000000000000000000000000000000000000163314159081610dae575b506109e157565b9050600254163314155f610da756fea26469706673582212204ea7c515852a2c55b26c66252d9aef8a631a251cd37997264bfef20e4d523b5064736f6c63430008180033000000000000000000000000000000000000000000000000000000000000008000000000000000000000000000000000000000000000000000000000000000c00000000000000000000000002c80200932c8733b09b70f9962d6302d9e6db2c50000000000000000000000001db99a995c566c25e8f9e127b57982c33bf4816b000000000000000000000000000000000000000000000000000000000000001543656e7472616c2042616e6b206f662053616d6f61000000000000000000000000000000000000000000000000000000000000000000000000000000000000034342530000000000000000000000000000000000000000000000000000000000",
        "nonce": "0xa9",
        "chainId": "0x13882"
      },
      "additionalContracts": [],
      "isFixedGasLimit": false
    },
    {
      "hash": null,
      "transactionType": "CREATE",
      "contractName": "MinistryNode",
      "contractAddress": "0xec404fb5564da6f6c77dd7c8a694b1a3ffce99c1",
      "function": null,
      "arguments": [
        "Ministry of Communications & IT",
        "MCIT",
        "0x2C80200932C8733b09B70F9962d6302D9E6dB2C5",
        "0x1db99A995C566C25E8f9e127b57982C33BF4816b"
      ],
      "transaction": {
        "from": "0x2c80200932c8733b09b70f9962d6302d9e6db2c5",
        "gas": "0x119787",
        "value": "0x0",
        "input": "0x60e060405234620003815762001224803803806200001d8162000385565b9283398101608082820312620003815781516001600160401b0392908381116200038157826200004f918301620003ab565b602092838301519085821162000381576200006c918401620003ab565b9362000089606062000081604086016200041b565b94016200041b565b936001600160a01b03848116156200036f578516156200036f578251908282116200028d575f54916001948584811c9416801562000364575b838510146200026e578190601f9485811162000311575b508390858311600114620002ad575f92620002a1575b50505f19600383901b1c191690851b175f555b86519283116200028d5783548481811c9116801562000282575b828210146200026e5782811162000226575b5080918311600114620001c0575081929394955f92620001b4575b50505f19600383901b1c191690821b1790555b60805260c0523360a052604051610df3908162000431823960805181818161035a015281816109f701528181610d140152610d7d015260a051818181610316015261097c015260c05181818161040601526107da0152f35b015190505f8062000149565b90601f19831696845f52825f20925f905b8982106200020e575050838596979810620001f5575b505050811b0190556200015c565b01515f1960f88460031b161c191690555f8080620001e7565b808785968294968601518155019501930190620001d1565b845f52815f208380860160051c82019284871062000264575b0160051c019085905b828110620002585750506200012e565b5f815501859062000248565b925081926200023f565b634e487b7160e01b5f52602260045260245ffd5b90607f16906200011c565b634e487b7160e01b5f52604160045260245ffd5b015190505f80620000ef565b90879350601f198316915f8052855f20925f5b87828210620002fa5750508411620002e1575b505050811b015f5562000102565b01515f1960f88460031b161c191690555f8080620002d3565b8385015186558b97909501949384019301620002c0565b9091505f8052835f208580850160051c8201928686106200035a575b918991869594930160051c01915b8281106200034b575050620000d9565b5f81558594508991016200033b565b925081926200032d565b93607f1693620000c2565b60405163d92e233d60e01b8152600490fd5b5f80fd5b6040519190601f01601f191682016001600160401b038111838210176200028d57604052565b919080601f84011215620003815782516001600160401b0381116200028d57602090620003e1601f8201601f1916830162000385565b9281845282828701011162000381575f5b818110620004075750825f9394955001015290565b8581018301518482018401528201620003f2565b51906001600160a01b0382168203620003815756fe6080806040526004361015610012575f80fd5b5f3560e01c90816303e9e60914610a8257508063125f897414610a6557806321c8a28314610a2057806331962cdc1461094557806334461067146108c8578063365a86fc146108a05780633aba5bb81461085f57806350668c95146104a05780635a0af6e9146104355780636eb070b8146103f15780639da86cf414610389578063b466a85d14610345578063c1b8411a14610301578063d96039da14610258578063e0ba8855146101785763e71cd45b146100cc575f80fd5b3461017457602080600319360112610174576100e6610d11565b6004355f526004815260405f20604051908183825491828152019081925f52845f20905f5b8682821061016057868661012182880383610c4d565b60405192839281840190828552518091526040840192915f5b82811061014957505050500390f35b83518552869550938101939281019260010161013a565b83548552909301926001928301920161010b565b5f80fd5b34610174575f366003190112610174576040515f8054908261019983610bf9565b91828252602093600190856001821691825f146102385750506001146101df575b506101c792500383610c4d565b6101db604051928284938452830190610b59565b0390f35b5f808052859250907f290decd9548b62a8d60345a988386fc84ba6bc95484008f6362f93160ef3e5635b8583106102205750506101c79350820101856101ba565b80548389018501528794508693909201918101610209565b60ff1916858201526101c795151560051b85010192508791506101ba9050565b34610174575f366003190112610174576040515f6001826001549261027c84610bf9565b92838352602094856001821691825f146102385750506001146102a657506101c792500383610c4d565b84915060015f527fb10e2d527612073b26eecdfd717e6a320cf44b4afac2b0732d9fcbe2b7fa0cf6905f915b8583106102e95750506101c79350820101856101ba565b805483890185015287945086939092019181016102d2565b34610174575f366003190112610174576040517f00000000000000000000000000000000000000000000000000000000000000006001600160a01b03168152602090f35b34610174575f366003190112610174576040517f00000000000000000000000000000000000000000000000000000000000000006001600160a01b03168152602090f35b34610174576020366003190112610174576004356001600160a01b03811690819003610174576103b7610d73565b805f52600560205260405f2060ff1981541690557fc5ab14d3802826c81e95b5f6967e95d6111420417796662e1cce7dd826f95b6b5f80a2005b34610174575f366003190112610174576040517f00000000000000000000000000000000000000000000000000000000000000006001600160a01b03168152602090f35b34610174576020366003190112610174576004356001600160a01b0381169081900361017457610463610d73565b805f52600560205260405f20600160ff198254161790557f7bfc9b6864369f9198a00e7a1992d67b1791816f60e871974badd0a9ec6b62aa5f80a2005b346101745760803660031901126101745760243567ffffffffffffffff808211610174573660238301121561017457808260040135116101745736602483600401358401011161017457606435918215158303610174576104ff610d73565b5f926107b9575b600354916040519061051782610c31565b6004358252604051906105386020601f19601f876004013501160183610c4d565b60048401358083526024850160208401375f60208560040135840101526020830191825260443560408401524260608401528515156080840152600160401b8510156106d2576001850160035561058e85610bc0565b9290926107a657835183555180519182116106d2576105b06001840154610bf9565b601f8111610762575b50602090601f83116001146106f1579180608094926004945f926106e6575b50508160011b915f199060031b1c19161760018201555b604084015160028201556060840151600382015501910151151560ff801983541691161790556004355f52600460205260405f208054600160401b8110156106d25760209461066682869460017fafc22855f127a8809293361fe7e18d4d2eb84d47fc04ffba720b53ebf416b48595018155610b97565b81549060031b9085821b915f19901b191617905560405190606082528460040135606083015284600401356024860160808401375f608086600401358401015215158682015242604082015260808160043595601f8019916004013501168101030190a3604051908152f35b634e487b7160e01b5f52604160045260245ffd5b0151905089806105d8565b90600184015f5260205f20915f5b601f198516811061074a5750926080949260019260049583601f19811610610732575b505050811b0160018201556105ef565b01515f1960f88460031b161c19169055898080610722565b919260206001819286850151815501940192016106ff565b600184015f5260205f20601f840160051c81016020851061079f575b601f830160051c820181106107945750506105b9565b5f815560010161077e565b508061077e565b634e487b7160e01b5f525f60045260245ffd5b604051633618e5e160e11b815260048035908201529092506020816024815f7f00000000000000000000000000000000000000000000000000000000000000006001600160a01b03165af1908115610854575f91610819575b5091610506565b90506020813d60201161084c575b8161083460209383610c4d565b81010312610174575180151581036101745783610812565b3d9150610827565b6040513d5f823e3d90fd5b34610174576020366003190112610174576004356001600160a01b03811690819003610174575f526005602052602060ff60405f2054166040519015158152f35b34610174575f366003190112610174576002546040516001600160a01b039091168152602090f35b3461017457602036600319011261017457600435600354811015610174576108ef90610bc0565b5080546108fe60018301610c6f565b9160028101549060ff60046003830154920154169061092f604051958695865260a0602087015260a0860190610b59565b9260408501526060840152151560808301520390f35b34610174576020366003190112610174576004356001600160a01b0381811691829003610174576002549080821690816109e157807f00000000000000000000000000000000000000000000000000000000000000001633141590816109f3575b506109e15782907ffd6048904970d0056fa1c58afc86fa73408d3a477aa252fe1f09989eaea3d55a5f80a36001600160a01b03191617600255005b604051636bd1573560e11b8152600490fd5b90507f000000000000000000000000000000000000000000000000000000000000000016331415846109a6565b34610174576040366003190112610174576024356004355f52600460205260405f20805482101561017457602091610a5791610b97565b90546040519160031b1c8152f35b34610174575f366003190112610174576020600354604051908152f35b3461017457602036600319011261017457608081610aa05f93610c31565b828152606060208201528260408201528260608201520152610ac0610d11565b610acb600435610bc0565b50604051610ad881610c31565b81548152610ae860018301610c6f565b91602082019283526002810154906040830191825260ff60046003830154926060860193845201541690608084019115158252610b40604051958695602087525160208701525160a0604087015260c0860190610b59565b9251606085015251608084015251151560a08301520390f35b91908251928382525f5b848110610b83575050825f602080949584010152601f8019910116010190565b602081830181015184830182015201610b63565b8054821015610bac575f5260205f2001905f90565b634e487b7160e01b5f52603260045260245ffd5b600354811015610bac5760059060035f52027fc2575a0e9e593c00f959f8c92f12db2869c3395a3b0502d05e2516446f71f85b01905f90565b90600182811c92168015610c27575b6020831014610c1357565b634e487b7160e01b5f52602260045260245ffd5b91607f1691610c08565b60a0810190811067ffffffffffffffff8211176106d257604052565b90601f8019910116810190811067ffffffffffffffff8211176106d257604052565b9060405191825f8254610c8181610bf9565b908184526020946001916001811690815f14610cef5750600114610cb1575b505050610caf92500383610c4d565b565b5f90815285812095935091905b818310610cd7575050610caf93508201015f8080610ca0565b85548884018501529485019487945091830191610cbe565b92505050610caf94925060ff191682840152151560051b8201015f8080610ca0565b337f00000000000000000000000000000000000000000000000000000000000000006001600160a01b0316141580610d5c575b610d4a57565b6040516380f5528f60e01b8152600490fd5b50335f52600560205260ff60405f20541615610d44565b60018060a01b03807f0000000000000000000000000000000000000000000000000000000000000000163314159081610dae575b506109e157565b9050600254163314155f610da756fea26469706673582212204ea7c515852a2c55b26c66252d9aef8a631a251cd37997264bfef20e4d523b5064736f6c63430008180033000000000000000000000000000000000000000000000000000000000000008000000000000000000000000000000000000000000000000000000000000000c00000000000000000000000002c80200932c8733b09b70f9962d6302d9e6db2c50000000000000000000000001db99a995c566c25e8f9e127b57982c33bf4816b000000000000000000000000000000000000000000000000000000000000001f4d696e6973747279206f6620436f6d6d756e69636174696f6e7320262049540000000000000000000000000000000000000000000000000000000000000000044d43495400000000000000000000000000000000000000000000000000000000",
        "nonce": "0xaa",
        "chainId": "0x13882"
      },
      "additionalContracts": [],
      "isFixedGasLimit": false
    },
    {
      "hash": null,
      "transactionType": "CREATE",
      "contractName": "MinistryNode",
      "contractAddress": "0x4f117fdc9bb2b781d52731e5674f669bfe1e6402",
      "function": null,
      "arguments": [
        "Ministry of Finance",
        "MOF",
        "0x2C80200932C8733b09B70F9962d6302D9E6dB2C5",
        "0x1db99A995C566C25E8f9e127b57982C33BF4816b"
      ],
      "transaction": {
        "from": "0x2c80200932c8733b09b70f9962d6302d9e6db2c5",
        "gas": "0x1196bc",
        "value": "0x0",
        "input": "0x60e060405234620003815762001224803803806200001d8162000385565b9283398101608082820312620003815781516001600160401b0392908381116200038157826200004f918301620003ab565b602092838301519085821162000381576200006c918401620003ab565b9362000089606062000081604086016200041b565b94016200041b565b936001600160a01b03848116156200036f578516156200036f578251908282116200028d575f54916001948584811c9416801562000364575b838510146200026e578190601f9485811162000311575b508390858311600114620002ad575f92620002a1575b50505f19600383901b1c191690851b175f555b86519283116200028d5783548481811c9116801562000282575b828210146200026e5782811162000226575b5080918311600114620001c0575081929394955f92620001b4575b50505f19600383901b1c191690821b1790555b60805260c0523360a052604051610df3908162000431823960805181818161035a015281816109f701528181610d140152610d7d015260a051818181610316015261097c015260c05181818161040601526107da0152f35b015190505f8062000149565b90601f19831696845f52825f20925f905b8982106200020e575050838596979810620001f5575b505050811b0190556200015c565b01515f1960f88460031b161c191690555f8080620001e7565b808785968294968601518155019501930190620001d1565b845f52815f208380860160051c82019284871062000264575b0160051c019085905b828110620002585750506200012e565b5f815501859062000248565b925081926200023f565b634e487b7160e01b5f52602260045260245ffd5b90607f16906200011c565b634e487b7160e01b5f52604160045260245ffd5b015190505f80620000ef565b90879350601f198316915f8052855f20925f5b87828210620002fa5750508411620002e1575b505050811b015f5562000102565b01515f1960f88460031b161c191690555f8080620002d3565b8385015186558b97909501949384019301620002c0565b9091505f8052835f208580850160051c8201928686106200035a575b918991869594930160051c01915b8281106200034b575050620000d9565b5f81558594508991016200033b565b925081926200032d565b93607f1693620000c2565b60405163d92e233d60e01b8152600490fd5b5f80fd5b6040519190601f01601f191682016001600160401b038111838210176200028d57604052565b919080601f84011215620003815782516001600160401b0381116200028d57602090620003e1601f8201601f1916830162000385565b9281845282828701011162000381575f5b818110620004075750825f9394955001015290565b8581018301518482018401528201620003f2565b51906001600160a01b0382168203620003815756fe6080806040526004361015610012575f80fd5b5f3560e01c90816303e9e60914610a8257508063125f897414610a6557806321c8a28314610a2057806331962cdc1461094557806334461067146108c8578063365a86fc146108a05780633aba5bb81461085f57806350668c95146104a05780635a0af6e9146104355780636eb070b8146103f15780639da86cf414610389578063b466a85d14610345578063c1b8411a14610301578063d96039da14610258578063e0ba8855146101785763e71cd45b146100cc575f80fd5b3461017457602080600319360112610174576100e6610d11565b6004355f526004815260405f20604051908183825491828152019081925f52845f20905f5b8682821061016057868661012182880383610c4d565b60405192839281840190828552518091526040840192915f5b82811061014957505050500390f35b83518552869550938101939281019260010161013a565b83548552909301926001928301920161010b565b5f80fd5b34610174575f366003190112610174576040515f8054908261019983610bf9565b91828252602093600190856001821691825f146102385750506001146101df575b506101c792500383610c4d565b6101db604051928284938452830190610b59565b0390f35b5f808052859250907f290decd9548b62a8d60345a988386fc84ba6bc95484008f6362f93160ef3e5635b8583106102205750506101c79350820101856101ba565b80548389018501528794508693909201918101610209565b60ff1916858201526101c795151560051b85010192508791506101ba9050565b34610174575f366003190112610174576040515f6001826001549261027c84610bf9565b92838352602094856001821691825f146102385750506001146102a657506101c792500383610c4d565b84915060015f527fb10e2d527612073b26eecdfd717e6a320cf44b4afac2b0732d9fcbe2b7fa0cf6905f915b8583106102e95750506101c79350820101856101ba565b805483890185015287945086939092019181016102d2565b34610174575f366003190112610174576040517f00000000000000000000000000000000000000000000000000000000000000006001600160a01b03168152602090f35b34610174575f366003190112610174576040517f00000000000000000000000000000000000000000000000000000000000000006001600160a01b03168152602090f35b34610174576020366003190112610174576004356001600160a01b03811690819003610174576103b7610d73565b805f52600560205260405f2060ff1981541690557fc5ab14d3802826c81e95b5f6967e95d6111420417796662e1cce7dd826f95b6b5f80a2005b34610174575f366003190112610174576040517f00000000000000000000000000000000000000000000000000000000000000006001600160a01b03168152602090f35b34610174576020366003190112610174576004356001600160a01b0381169081900361017457610463610d73565b805f52600560205260405f20600160ff198254161790557f7bfc9b6864369f9198a00e7a1992d67b1791816f60e871974badd0a9ec6b62aa5f80a2005b346101745760803660031901126101745760243567ffffffffffffffff808211610174573660238301121561017457808260040135116101745736602483600401358401011161017457606435918215158303610174576104ff610d73565b5f926107b9575b600354916040519061051782610c31565b6004358252604051906105386020601f19601f876004013501160183610c4d565b60048401358083526024850160208401375f60208560040135840101526020830191825260443560408401524260608401528515156080840152600160401b8510156106d2576001850160035561058e85610bc0565b9290926107a657835183555180519182116106d2576105b06001840154610bf9565b601f8111610762575b50602090601f83116001146106f1579180608094926004945f926106e6575b50508160011b915f199060031b1c19161760018201555b604084015160028201556060840151600382015501910151151560ff801983541691161790556004355f52600460205260405f208054600160401b8110156106d25760209461066682869460017fafc22855f127a8809293361fe7e18d4d2eb84d47fc04ffba720b53ebf416b48595018155610b97565b81549060031b9085821b915f19901b191617905560405190606082528460040135606083015284600401356024860160808401375f608086600401358401015215158682015242604082015260808160043595601f8019916004013501168101030190a3604051908152f35b634e487b7160e01b5f52604160045260245ffd5b0151905089806105d8565b90600184015f5260205f20915f5b601f198516811061074a5750926080949260019260049583601f19811610610732575b505050811b0160018201556105ef565b01515f1960f88460031b161c19169055898080610722565b919260206001819286850151815501940192016106ff565b600184015f5260205f20601f840160051c81016020851061079f575b601f830160051c820181106107945750506105b9565b5f815560010161077e565b508061077e565b634e487b7160e01b5f525f60045260245ffd5b604051633618e5e160e11b815260048035908201529092506020816024815f7f00000000000000000000000000000000000000000000000000000000000000006001600160a01b03165af1908115610854575f91610819575b5091610506565b90506020813d60201161084c575b8161083460209383610c4d565b81010312610174575180151581036101745783610812565b3d9150610827565b6040513d5f823e3d90fd5b34610174576020366003190112610174576004356001600160a01b03811690819003610174575f526005602052602060ff60405f2054166040519015158152f35b34610174575f366003190112610174576002546040516001600160a01b039091168152602090f35b3461017457602036600319011261017457600435600354811015610174576108ef90610bc0565b5080546108fe60018301610c6f565b9160028101549060ff60046003830154920154169061092f604051958695865260a0602087015260a0860190610b59565b9260408501526060840152151560808301520390f35b34610174576020366003190112610174576004356001600160a01b0381811691829003610174576002549080821690816109e157807f00000000000000000000000000000000000000000000000000000000000000001633141590816109f3575b506109e15782907ffd6048904970d0056fa1c58afc86fa73408d3a477aa252fe1f09989eaea3d55a5f80a36001600160a01b03191617600255005b604051636bd1573560e11b8152600490fd5b90507f000000000000000000000000000000000000000000000000000000000000000016331415846109a6565b34610174576040366003190112610174576024356004355f52600460205260405f20805482101561017457602091610a5791610b97565b90546040519160031b1c8152f35b34610174575f366003190112610174576020600354604051908152f35b3461017457602036600319011261017457608081610aa05f93610c31565b828152606060208201528260408201528260608201520152610ac0610d11565b610acb600435610bc0565b50604051610ad881610c31565b81548152610ae860018301610c6f565b91602082019283526002810154906040830191825260ff60046003830154926060860193845201541690608084019115158252610b40604051958695602087525160208701525160a0604087015260c0860190610b59565b9251606085015251608084015251151560a08301520390f35b91908251928382525f5b848110610b83575050825f602080949584010152601f8019910116010190565b602081830181015184830182015201610b63565b8054821015610bac575f5260205f2001905f90565b634e487b7160e01b5f52603260045260245ffd5b600354811015610bac5760059060035f52027fc2575a0e9e593c00f959f8c92f12db2869c3395a3b0502d05e2516446f71f85b01905f90565b90600182811c92168015610c27575b6020831014610c1357565b634e487b7160e01b5f52602260045260245ffd5b91607f1691610c08565b60a0810190811067ffffffffffffffff8211176106d257604052565b90601f8019910116810190811067ffffffffffffffff8211176106d257604052565b9060405191825f8254610c8181610bf9565b908184526020946001916001811690815f14610cef5750600114610cb1575b505050610caf92500383610c4d565b565b5f90815285812095935091905b818310610cd7575050610caf93508201015f8080610ca0565b85548884018501529485019487945091830191610cbe565b92505050610caf94925060ff191682840152151560051b8201015f8080610ca0565b337f00000000000000000000000000000000000000000000000000000000000000006001600160a01b0316141580610d5c575b610d4a57565b6040516380f5528f60e01b8152600490fd5b50335f52600560205260ff60405f20541615610d44565b60018060a01b03807f0000000000000000000000000000000000000000000000000000000000000000163314159081610dae575b506109e157565b9050600254163314155f610da756fea26469706673582212204ea7c515852a2c55b26c66252d9aef8a631a251cd37997264bfef20e4d523b5064736f6c63430008180033000000000000000000000000000000000000000000000000000000000000008000000000000000000000000000000000000000000000000000000000000000c00000000000000000000000002c80200932c8733b09b70f9962d6302d9e6db2c50000000000000000000000001db99a995c566c25e8f9e127b57982c33bf4816b00000000000000000000000000000000000000000000000000000000000000134d696e6973747279206f662046696e616e63650000000000000000000000000000000000000000000000000000000000000000000000000000000000000000034d4f460000000000000000000000000000000000000000000000000000000000",
        "nonce": "0xab",
        "chainId": "0x13882"
      },
      "additionalContracts": [],
      "isFixedGasLimit": false
    },
    {
      "hash": null,
      "transactionType": "CREATE",
      "contractName": "MinistryNode",
      "contractAddress": "0x8c26b5e477d6feff2a75c0fbd7f3667c4db07fc4",
      "function": null,
      "arguments": [
        "Ministry of Commerce Industry & Labour",
        "MCIL",
        "0x2C80200932C8733b09B70F9962d6302D9E6dB2C5",
        "0x1db99A995C566C25E8f9e127b57982C33BF4816b"
      ],
      "transaction": {
        "from": "0x2c80200932c8733b09b70f9962d6302d9e6db2c5",
        "gas": "0x127a96",
        "value": "0x0",
        "input": "0x60e060405234620003815762001224803803806200001d8162000385565b9283398101608082820312620003815781516001600160401b0392908381116200038157826200004f918301620003ab565b602092838301519085821162000381576200006c918401620003ab565b9362000089606062000081604086016200041b565b94016200041b565b936001600160a01b03848116156200036f578516156200036f578251908282116200028d575f54916001948584811c9416801562000364575b838510146200026e578190601f9485811162000311575b508390858311600114620002ad575f92620002a1575b50505f19600383901b1c191690851b175f555b86519283116200028d5783548481811c9116801562000282575b828210146200026e5782811162000226575b5080918311600114620001c0575081929394955f92620001b4575b50505f19600383901b1c191690821b1790555b60805260c0523360a052604051610df3908162000431823960805181818161035a015281816109f701528181610d140152610d7d015260a051818181610316015261097c015260c05181818161040601526107da0152f35b015190505f8062000149565b90601f19831696845f52825f20925f905b8982106200020e575050838596979810620001f5575b505050811b0190556200015c565b01515f1960f88460031b161c191690555f8080620001e7565b808785968294968601518155019501930190620001d1565b845f52815f208380860160051c82019284871062000264575b0160051c019085905b828110620002585750506200012e565b5f815501859062000248565b925081926200023f565b634e487b7160e01b5f52602260045260245ffd5b90607f16906200011c565b634e487b7160e01b5f52604160045260245ffd5b015190505f80620000ef565b90879350601f198316915f8052855f20925f5b87828210620002fa5750508411620002e1575b505050811b015f5562000102565b01515f1960f88460031b161c191690555f8080620002d3565b8385015186558b97909501949384019301620002c0565b9091505f8052835f208580850160051c8201928686106200035a575b918991869594930160051c01915b8281106200034b575050620000d9565b5f81558594508991016200033b565b925081926200032d565b93607f1693620000c2565b60405163d92e233d60e01b8152600490fd5b5f80fd5b6040519190601f01601f191682016001600160401b038111838210176200028d57604052565b919080601f84011215620003815782516001600160401b0381116200028d57602090620003e1601f8201601f1916830162000385565b9281845282828701011162000381575f5b818110620004075750825f9394955001015290565b8581018301518482018401528201620003f2565b51906001600160a01b0382168203620003815756fe6080806040526004361015610012575f80fd5b5f3560e01c90816303e9e60914610a8257508063125f897414610a6557806321c8a28314610a2057806331962cdc1461094557806334461067146108c8578063365a86fc146108a05780633aba5bb81461085f57806350668c95146104a05780635a0af6e9146104355780636eb070b8146103f15780639da86cf414610389578063b466a85d14610345578063c1b8411a14610301578063d96039da14610258578063e0ba8855146101785763e71cd45b146100cc575f80fd5b3461017457602080600319360112610174576100e6610d11565b6004355f526004815260405f20604051908183825491828152019081925f52845f20905f5b8682821061016057868661012182880383610c4d565b60405192839281840190828552518091526040840192915f5b82811061014957505050500390f35b83518552869550938101939281019260010161013a565b83548552909301926001928301920161010b565b5f80fd5b34610174575f366003190112610174576040515f8054908261019983610bf9565b91828252602093600190856001821691825f146102385750506001146101df575b506101c792500383610c4d565b6101db604051928284938452830190610b59565b0390f35b5f808052859250907f290decd9548b62a8d60345a988386fc84ba6bc95484008f6362f93160ef3e5635b8583106102205750506101c79350820101856101ba565b80548389018501528794508693909201918101610209565b60ff1916858201526101c795151560051b85010192508791506101ba9050565b34610174575f366003190112610174576040515f6001826001549261027c84610bf9565b92838352602094856001821691825f146102385750506001146102a657506101c792500383610c4d565b84915060015f527fb10e2d527612073b26eecdfd717e6a320cf44b4afac2b0732d9fcbe2b7fa0cf6905f915b8583106102e95750506101c79350820101856101ba565b805483890185015287945086939092019181016102d2565b34610174575f366003190112610174576040517f00000000000000000000000000000000000000000000000000000000000000006001600160a01b03168152602090f35b34610174575f366003190112610174576040517f00000000000000000000000000000000000000000000000000000000000000006001600160a01b03168152602090f35b34610174576020366003190112610174576004356001600160a01b03811690819003610174576103b7610d73565b805f52600560205260405f2060ff1981541690557fc5ab14d3802826c81e95b5f6967e95d6111420417796662e1cce7dd826f95b6b5f80a2005b34610174575f366003190112610174576040517f00000000000000000000000000000000000000000000000000000000000000006001600160a01b03168152602090f35b34610174576020366003190112610174576004356001600160a01b0381169081900361017457610463610d73565b805f52600560205260405f20600160ff198254161790557f7bfc9b6864369f9198a00e7a1992d67b1791816f60e871974badd0a9ec6b62aa5f80a2005b346101745760803660031901126101745760243567ffffffffffffffff808211610174573660238301121561017457808260040135116101745736602483600401358401011161017457606435918215158303610174576104ff610d73565b5f926107b9575b600354916040519061051782610c31565b6004358252604051906105386020601f19601f876004013501160183610c4d565b60048401358083526024850160208401375f60208560040135840101526020830191825260443560408401524260608401528515156080840152600160401b8510156106d2576001850160035561058e85610bc0565b9290926107a657835183555180519182116106d2576105b06001840154610bf9565b601f8111610762575b50602090601f83116001146106f1579180608094926004945f926106e6575b50508160011b915f199060031b1c19161760018201555b604084015160028201556060840151600382015501910151151560ff801983541691161790556004355f52600460205260405f208054600160401b8110156106d25760209461066682869460017fafc22855f127a8809293361fe7e18d4d2eb84d47fc04ffba720b53ebf416b48595018155610b97565b81549060031b9085821b915f19901b191617905560405190606082528460040135606083015284600401356024860160808401375f608086600401358401015215158682015242604082015260808160043595601f8019916004013501168101030190a3604051908152f35b634e487b7160e01b5f52604160045260245ffd5b0151905089806105d8565b90600184015f5260205f20915f5b601f198516811061074a5750926080949260019260049583601f19811610610732575b505050811b0160018201556105ef565b01515f1960f88460031b161c19169055898080610722565b919260206001819286850151815501940192016106ff565b600184015f5260205f20601f840160051c81016020851061079f575b601f830160051c820181106107945750506105b9565b5f815560010161077e565b508061077e565b634e487b7160e01b5f525f60045260245ffd5b604051633618e5e160e11b815260048035908201529092506020816024815f7f00000000000000000000000000000000000000000000000000000000000000006001600160a01b03165af1908115610854575f91610819575b5091610506565b90506020813d60201161084c575b8161083460209383610c4d565b81010312610174575180151581036101745783610812565b3d9150610827565b6040513d5f823e3d90fd5b34610174576020366003190112610174576004356001600160a01b03811690819003610174575f526005602052602060ff60405f2054166040519015158152f35b34610174575f366003190112610174576002546040516001600160a01b039091168152602090f35b3461017457602036600319011261017457600435600354811015610174576108ef90610bc0565b5080546108fe60018301610c6f565b9160028101549060ff60046003830154920154169061092f604051958695865260a0602087015260a0860190610b59565b9260408501526060840152151560808301520390f35b34610174576020366003190112610174576004356001600160a01b0381811691829003610174576002549080821690816109e157807f00000000000000000000000000000000000000000000000000000000000000001633141590816109f3575b506109e15782907ffd6048904970d0056fa1c58afc86fa73408d3a477aa252fe1f09989eaea3d55a5f80a36001600160a01b03191617600255005b604051636bd1573560e11b8152600490fd5b90507f000000000000000000000000000000000000000000000000000000000000000016331415846109a6565b34610174576040366003190112610174576024356004355f52600460205260405f20805482101561017457602091610a5791610b97565b90546040519160031b1c8152f35b34610174575f366003190112610174576020600354604051908152f35b3461017457602036600319011261017457608081610aa05f93610c31565b828152606060208201528260408201528260608201520152610ac0610d11565b610acb600435610bc0565b50604051610ad881610c31565b81548152610ae860018301610c6f565b91602082019283526002810154906040830191825260ff60046003830154926060860193845201541690608084019115158252610b40604051958695602087525160208701525160a0604087015260c0860190610b59565b9251606085015251608084015251151560a08301520390f35b91908251928382525f5b848110610b83575050825f602080949584010152601f8019910116010190565b602081830181015184830182015201610b63565b8054821015610bac575f5260205f2001905f90565b634e487b7160e01b5f52603260045260245ffd5b600354811015610bac5760059060035f52027fc2575a0e9e593c00f959f8c92f12db2869c3395a3b0502d05e2516446f71f85b01905f90565b90600182811c92168015610c27575b6020831014610c1357565b634e487b7160e01b5f52602260045260245ffd5b91607f1691610c08565b60a0810190811067ffffffffffffffff8211176106d257604052565b90601f8019910116810190811067ffffffffffffffff8211176106d257604052565b9060405191825f8254610c8181610bf9565b908184526020946001916001811690815f14610cef5750600114610cb1575b505050610caf92500383610c4d565b565b5f90815285812095935091905b818310610cd7575050610caf93508201015f8080610ca0565b85548884018501529485019487945091830191610cbe565b92505050610caf94925060ff191682840152151560051b8201015f8080610ca0565b337f00000000000000000000000000000000000000000000000000000000000000006001600160a01b0316141580610d5c575b610d4a57565b6040516380f5528f60e01b8152600490fd5b50335f52600560205260ff60405f20541615610d44565b60018060a01b03807f0000000000000000000000000000000000000000000000000000000000000000163314159081610dae575b506109e157565b9050600254163314155f610da756fea26469706673582212204ea7c515852a2c55b26c66252d9aef8a631a251cd37997264bfef20e4d523b5064736f6c63430008180033000000000000000000000000000000000000000000000000000000000000008000000000000000000000000000000000000000000000000000000000000000e00000000000000000000000002c80200932c8733b09b70f9962d6302d9e6db2c50000000000000000000000001db99a995c566c25e8f9e127b57982c33bf4816b00000000000000000000000000000000000000000000000000000000000000264d696e6973747279206f6620436f6d6d6572636520496e6475737472792026204c61626f7572000000000000000000000000000000000000000000000000000000000000000000000000000000000000000000000000000000000000000000044d43494c00000000000000000000000000000000000000000000000000000000",
        "nonce": "0xac",
        "chainId": "0x13882"
      },
      "additionalContracts": [],
      "isFixedGasLimit": false
    },
    {
      "hash": null,
      "transactionType": "CREATE",
      "contractName": "MinistryNode",
      "contractAddress": "0xe9b67df4a062c20167d963dd74fc436c1b83eced",
      "function": null,
      "arguments": [
        "Ministry of Education Sports & Culture",
        "EDUCATION",
        "0x2C80200932C8733b09B70F9962d6302D9E6dB2C5",
        "0x1db99A995C566C25E8f9e127b57982C33BF4816b"
      ],
      "transaction": {
        "from": "0x2c80200932c8733b09b70f9962d6302d9e6db2c5",
        "gas": "0x127ae4",
        "value": "0x0",
        "input": "0x60e060405234620003815762001224803803806200001d8162000385565b9283398101608082820312620003815781516001600160401b0392908381116200038157826200004f918301620003ab565b602092838301519085821162000381576200006c918401620003ab565b9362000089606062000081604086016200041b565b94016200041b565b936001600160a01b03848116156200036f578516156200036f578251908282116200028d575f54916001948584811c9416801562000364575b838510146200026e578190601f9485811162000311575b508390858311600114620002ad575f92620002a1575b50505f19600383901b1c191690851b175f555b86519283116200028d5783548481811c9116801562000282575b828210146200026e5782811162000226575b5080918311600114620001c0575081929394955f92620001b4575b50505f19600383901b1c191690821b1790555b60805260c0523360a052604051610df3908162000431823960805181818161035a015281816109f701528181610d140152610d7d015260a051818181610316015261097c015260c05181818161040601526107da0152f35b015190505f8062000149565b90601f19831696845f52825f20925f905b8982106200020e575050838596979810620001f5575b505050811b0190556200015c565b01515f1960f88460031b161c191690555f8080620001e7565b808785968294968601518155019501930190620001d1565b845f52815f208380860160051c82019284871062000264575b0160051c019085905b828110620002585750506200012e565b5f815501859062000248565b925081926200023f565b634e487b7160e01b5f52602260045260245ffd5b90607f16906200011c565b634e487b7160e01b5f52604160045260245ffd5b015190505f80620000ef565b90879350601f198316915f8052855f20925f5b87828210620002fa5750508411620002e1575b505050811b015f5562000102565b01515f1960f88460031b161c191690555f8080620002d3565b8385015186558b97909501949384019301620002c0565b9091505f8052835f208580850160051c8201928686106200035a575b918991869594930160051c01915b8281106200034b575050620000d9565b5f81558594508991016200033b565b925081926200032d565b93607f1693620000c2565b60405163d92e233d60e01b8152600490fd5b5f80fd5b6040519190601f01601f191682016001600160401b038111838210176200028d57604052565b919080601f84011215620003815782516001600160401b0381116200028d57602090620003e1601f8201601f1916830162000385565b9281845282828701011162000381575f5b818110620004075750825f9394955001015290565b8581018301518482018401528201620003f2565b51906001600160a01b0382168203620003815756fe6080806040526004361015610012575f80fd5b5f3560e01c90816303e9e60914610a8257508063125f897414610a6557806321c8a28314610a2057806331962cdc1461094557806334461067146108c8578063365a86fc146108a05780633aba5bb81461085f57806350668c95146104a05780635a0af6e9146104355780636eb070b8146103f15780639da86cf414610389578063b466a85d14610345578063c1b8411a14610301578063d96039da14610258578063e0ba8855146101785763e71cd45b146100cc575f80fd5b3461017457602080600319360112610174576100e6610d11565b6004355f526004815260405f20604051908183825491828152019081925f52845f20905f5b8682821061016057868661012182880383610c4d565b60405192839281840190828552518091526040840192915f5b82811061014957505050500390f35b83518552869550938101939281019260010161013a565b83548552909301926001928301920161010b565b5f80fd5b34610174575f366003190112610174576040515f8054908261019983610bf9565b91828252602093600190856001821691825f146102385750506001146101df575b506101c792500383610c4d565b6101db604051928284938452830190610b59565b0390f35b5f808052859250907f290decd9548b62a8d60345a988386fc84ba6bc95484008f6362f93160ef3e5635b8583106102205750506101c79350820101856101ba565b80548389018501528794508693909201918101610209565b60ff1916858201526101c795151560051b85010192508791506101ba9050565b34610174575f366003190112610174576040515f6001826001549261027c84610bf9565b92838352602094856001821691825f146102385750506001146102a657506101c792500383610c4d565b84915060015f527fb10e2d527612073b26eecdfd717e6a320cf44b4afac2b0732d9fcbe2b7fa0cf6905f915b8583106102e95750506101c79350820101856101ba565b805483890185015287945086939092019181016102d2565b34610174575f366003190112610174576040517f00000000000000000000000000000000000000000000000000000000000000006001600160a01b03168152602090f35b34610174575f366003190112610174576040517f00000000000000000000000000000000000000000000000000000000000000006001600160a01b03168152602090f35b34610174576020366003190112610174576004356001600160a01b03811690819003610174576103b7610d73565b805f52600560205260405f2060ff1981541690557fc5ab14d3802826c81e95b5f6967e95d6111420417796662e1cce7dd826f95b6b5f80a2005b34610174575f366003190112610174576040517f00000000000000000000000000000000000000000000000000000000000000006001600160a01b03168152602090f35b34610174576020366003190112610174576004356001600160a01b0381169081900361017457610463610d73565b805f52600560205260405f20600160ff198254161790557f7bfc9b6864369f9198a00e7a1992d67b1791816f60e871974badd0a9ec6b62aa5f80a2005b346101745760803660031901126101745760243567ffffffffffffffff808211610174573660238301121561017457808260040135116101745736602483600401358401011161017457606435918215158303610174576104ff610d73565b5f926107b9575b600354916040519061051782610c31565b6004358252604051906105386020601f19601f876004013501160183610c4d565b60048401358083526024850160208401375f60208560040135840101526020830191825260443560408401524260608401528515156080840152600160401b8510156106d2576001850160035561058e85610bc0565b9290926107a657835183555180519182116106d2576105b06001840154610bf9565b601f8111610762575b50602090601f83116001146106f1579180608094926004945f926106e6575b50508160011b915f199060031b1c19161760018201555b604084015160028201556060840151600382015501910151151560ff801983541691161790556004355f52600460205260405f208054600160401b8110156106d25760209461066682869460017fafc22855f127a8809293361fe7e18d4d2eb84d47fc04ffba720b53ebf416b48595018155610b97565b81549060031b9085821b915f19901b191617905560405190606082528460040135606083015284600401356024860160808401375f608086600401358401015215158682015242604082015260808160043595601f8019916004013501168101030190a3604051908152f35b634e487b7160e01b5f52604160045260245ffd5b0151905089806105d8565b90600184015f5260205f20915f5b601f198516811061074a5750926080949260019260049583601f19811610610732575b505050811b0160018201556105ef565b01515f1960f88460031b161c19169055898080610722565b919260206001819286850151815501940192016106ff565b600184015f5260205f20601f840160051c81016020851061079f575b601f830160051c820181106107945750506105b9565b5f815560010161077e565b508061077e565b634e487b7160e01b5f525f60045260245ffd5b604051633618e5e160e11b815260048035908201529092506020816024815f7f00000000000000000000000000000000000000000000000000000000000000006001600160a01b03165af1908115610854575f91610819575b5091610506565b90506020813d60201161084c575b8161083460209383610c4d565b81010312610174575180151581036101745783610812565b3d9150610827565b6040513d5f823e3d90fd5b34610174576020366003190112610174576004356001600160a01b03811690819003610174575f526005602052602060ff60405f2054166040519015158152f35b34610174575f366003190112610174576002546040516001600160a01b039091168152602090f35b3461017457602036600319011261017457600435600354811015610174576108ef90610bc0565b5080546108fe60018301610c6f565b9160028101549060ff60046003830154920154169061092f604051958695865260a0602087015260a0860190610b59565b9260408501526060840152151560808301520390f35b34610174576020366003190112610174576004356001600160a01b0381811691829003610174576002549080821690816109e157807f00000000000000000000000000000000000000000000000000000000000000001633141590816109f3575b506109e15782907ffd6048904970d0056fa1c58afc86fa73408d3a477aa252fe1f09989eaea3d55a5f80a36001600160a01b03191617600255005b604051636bd1573560e11b8152600490fd5b90507f000000000000000000000000000000000000000000000000000000000000000016331415846109a6565b34610174576040366003190112610174576024356004355f52600460205260405f20805482101561017457602091610a5791610b97565b90546040519160031b1c8152f35b34610174575f366003190112610174576020600354604051908152f35b3461017457602036600319011261017457608081610aa05f93610c31565b828152606060208201528260408201528260608201520152610ac0610d11565b610acb600435610bc0565b50604051610ad881610c31565b81548152610ae860018301610c6f565b91602082019283526002810154906040830191825260ff60046003830154926060860193845201541690608084019115158252610b40604051958695602087525160208701525160a0604087015260c0860190610b59565b9251606085015251608084015251151560a08301520390f35b91908251928382525f5b848110610b83575050825f602080949584010152601f8019910116010190565b602081830181015184830182015201610b63565b8054821015610bac575f5260205f2001905f90565b634e487b7160e01b5f52603260045260245ffd5b600354811015610bac5760059060035f52027fc2575a0e9e593c00f959f8c92f12db2869c3395a3b0502d05e2516446f71f85b01905f90565b90600182811c92168015610c27575b6020831014610c1357565b634e487b7160e01b5f52602260045260245ffd5b91607f1691610c08565b60a0810190811067ffffffffffffffff8211176106d257604052565b90601f8019910116810190811067ffffffffffffffff8211176106d257604052565b9060405191825f8254610c8181610bf9565b908184526020946001916001811690815f14610cef5750600114610cb1575b505050610caf92500383610c4d565b565b5f90815285812095935091905b818310610cd7575050610caf93508201015f8080610ca0565b85548884018501529485019487945091830191610cbe565b92505050610caf94925060ff191682840152151560051b8201015f8080610ca0565b337f00000000000000000000000000000000000000000000000000000000000000006001600160a01b0316141580610d5c575b610d4a57565b6040516380f5528f60e01b8152600490fd5b50335f52600560205260ff60405f20541615610d44565b60018060a01b03807f0000000000000000000000000000000000000000000000000000000000000000163314159081610dae575b506109e157565b9050600254163314155f610da756fea26469706673582212204ea7c515852a2c55b26c66252d9aef8a631a251cd37997264bfef20e4d523b5064736f6c63430008180033000000000000000000000000000000000000000000000000000000000000008000000000000000000000000000000000000000000000000000000000000000e00000000000000000000000002c80200932c8733b09b70f9962d6302d9e6db2c50000000000000000000000001db99a995c566c25e8f9e127b57982c33bf4816b00000000000000000000000000000000000000000000000000000000000000264d696e6973747279206f6620456475636174696f6e2053706f72747320262043756c7475726500000000000000000000000000000000000000000000000000000000000000000000000000000000000000000000000000000000000000000009454455434154494f4e0000000000000000000000000000000000000000000000",
        "nonce": "0xad",
        "chainId": "0x13882"
      },
      "additionalContracts": [],
      "isFixedGasLimit": false
    },
    {
      "hash": null,
      "transactionType": "CREATE",
      "contractName": "MinistryNode",
      "contractAddress": "0xa3cb3b9a6df26cd550a6d8a49ef693c78750f27d",
      "function": null,
      "arguments": [
        "Ministry of Customs & Revenue",
        "CUSTOMS",
        "0x2C80200932C8733b09B70F9962d6302D9E6dB2C5",
        "0x1db99A995C566C25E8f9e127b57982C33BF4816b"
      ],
      "transaction": {
        "from": "0x2c80200932c8733b09b70f9962d6302d9e6db2c5",
        "gas": "0x119797",
        "value": "0x0",
        "input": "0x60e060405234620003815762001224803803806200001d8162000385565b9283398101608082820312620003815781516001600160401b0392908381116200038157826200004f918301620003ab565b602092838301519085821162000381576200006c918401620003ab565b9362000089606062000081604086016200041b565b94016200041b565b936001600160a01b03848116156200036f578516156200036f578251908282116200028d575f54916001948584811c9416801562000364575b838510146200026e578190601f9485811162000311575b508390858311600114620002ad575f92620002a1575b50505f19600383901b1c191690851b175f555b86519283116200028d5783548481811c9116801562000282575b828210146200026e5782811162000226575b5080918311600114620001c0575081929394955f92620001b4575b50505f19600383901b1c191690821b1790555b60805260c0523360a052604051610df3908162000431823960805181818161035a015281816109f701528181610d140152610d7d015260a051818181610316015261097c015260c05181818161040601526107da0152f35b015190505f8062000149565b90601f19831696845f52825f20925f905b8982106200020e575050838596979810620001f5575b505050811b0190556200015c565b01515f1960f88460031b161c191690555f8080620001e7565b808785968294968601518155019501930190620001d1565b845f52815f208380860160051c82019284871062000264575b0160051c019085905b828110620002585750506200012e565b5f815501859062000248565b925081926200023f565b634e487b7160e01b5f52602260045260245ffd5b90607f16906200011c565b634e487b7160e01b5f52604160045260245ffd5b015190505f80620000ef565b90879350601f198316915f8052855f20925f5b87828210620002fa5750508411620002e1575b505050811b015f5562000102565b01515f1960f88460031b161c191690555f8080620002d3565b8385015186558b97909501949384019301620002c0565b9091505f8052835f208580850160051c8201928686106200035a575b918991869594930160051c01915b8281106200034b575050620000d9565b5f81558594508991016200033b565b925081926200032d565b93607f1693620000c2565b60405163d92e233d60e01b8152600490fd5b5f80fd5b6040519190601f01601f191682016001600160401b038111838210176200028d57604052565b919080601f84011215620003815782516001600160401b0381116200028d57602090620003e1601f8201601f1916830162000385565b9281845282828701011162000381575f5b818110620004075750825f9394955001015290565b8581018301518482018401528201620003f2565b51906001600160a01b0382168203620003815756fe6080806040526004361015610012575f80fd5b5f3560e01c90816303e9e60914610a8257508063125f897414610a6557806321c8a28314610a2057806331962cdc1461094557806334461067146108c8578063365a86fc146108a05780633aba5bb81461085f57806350668c95146104a05780635a0af6e9146104355780636eb070b8146103f15780639da86cf414610389578063b466a85d14610345578063c1b8411a14610301578063d96039da14610258578063e0ba8855146101785763e71cd45b146100cc575f80fd5b3461017457602080600319360112610174576100e6610d11565b6004355f526004815260405f20604051908183825491828152019081925f52845f20905f5b8682821061016057868661012182880383610c4d565b60405192839281840190828552518091526040840192915f5b82811061014957505050500390f35b83518552869550938101939281019260010161013a565b83548552909301926001928301920161010b565b5f80fd5b34610174575f366003190112610174576040515f8054908261019983610bf9565b91828252602093600190856001821691825f146102385750506001146101df575b506101c792500383610c4d565b6101db604051928284938452830190610b59565b0390f35b5f808052859250907f290decd9548b62a8d60345a988386fc84ba6bc95484008f6362f93160ef3e5635b8583106102205750506101c79350820101856101ba565b80548389018501528794508693909201918101610209565b60ff1916858201526101c795151560051b85010192508791506101ba9050565b34610174575f366003190112610174576040515f6001826001549261027c84610bf9565b92838352602094856001821691825f146102385750506001146102a657506101c792500383610c4d565b84915060015f527fb10e2d527612073b26eecdfd717e6a320cf44b4afac2b0732d9fcbe2b7fa0cf6905f915b8583106102e95750506101c79350820101856101ba565b805483890185015287945086939092019181016102d2565b34610174575f366003190112610174576040517f00000000000000000000000000000000000000000000000000000000000000006001600160a01b03168152602090f35b34610174575f366003190112610174576040517f00000000000000000000000000000000000000000000000000000000000000006001600160a01b03168152602090f35b34610174576020366003190112610174576004356001600160a01b03811690819003610174576103b7610d73565b805f52600560205260405f2060ff1981541690557fc5ab14d3802826c81e95b5f6967e95d6111420417796662e1cce7dd826f95b6b5f80a2005b34610174575f366003190112610174576040517f00000000000000000000000000000000000000000000000000000000000000006001600160a01b03168152602090f35b34610174576020366003190112610174576004356001600160a01b0381169081900361017457610463610d73565b805f52600560205260405f20600160ff198254161790557f7bfc9b6864369f9198a00e7a1992d67b1791816f60e871974badd0a9ec6b62aa5f80a2005b346101745760803660031901126101745760243567ffffffffffffffff808211610174573660238301121561017457808260040135116101745736602483600401358401011161017457606435918215158303610174576104ff610d73565b5f926107b9575b600354916040519061051782610c31565b6004358252604051906105386020601f19601f876004013501160183610c4d565b60048401358083526024850160208401375f60208560040135840101526020830191825260443560408401524260608401528515156080840152600160401b8510156106d2576001850160035561058e85610bc0565b9290926107a657835183555180519182116106d2576105b06001840154610bf9565b601f8111610762575b50602090601f83116001146106f1579180608094926004945f926106e6575b50508160011b915f199060031b1c19161760018201555b604084015160028201556060840151600382015501910151151560ff801983541691161790556004355f52600460205260405f208054600160401b8110156106d25760209461066682869460017fafc22855f127a8809293361fe7e18d4d2eb84d47fc04ffba720b53ebf416b48595018155610b97565b81549060031b9085821b915f19901b191617905560405190606082528460040135606083015284600401356024860160808401375f608086600401358401015215158682015242604082015260808160043595601f8019916004013501168101030190a3604051908152f35b634e487b7160e01b5f52604160045260245ffd5b0151905089806105d8565b90600184015f5260205f20915f5b601f198516811061074a5750926080949260019260049583601f19811610610732575b505050811b0160018201556105ef565b01515f1960f88460031b161c19169055898080610722565b919260206001819286850151815501940192016106ff565b600184015f5260205f20601f840160051c81016020851061079f575b601f830160051c820181106107945750506105b9565b5f815560010161077e565b508061077e565b634e487b7160e01b5f525f60045260245ffd5b604051633618e5e160e11b815260048035908201529092506020816024815f7f00000000000000000000000000000000000000000000000000000000000000006001600160a01b03165af1908115610854575f91610819575b5091610506565b90506020813d60201161084c575b8161083460209383610c4d565b81010312610174575180151581036101745783610812565b3d9150610827565b6040513d5f823e3d90fd5b34610174576020366003190112610174576004356001600160a01b03811690819003610174575f526005602052602060ff60405f2054166040519015158152f35b34610174575f366003190112610174576002546040516001600160a01b039091168152602090f35b3461017457602036600319011261017457600435600354811015610174576108ef90610bc0565b5080546108fe60018301610c6f565b9160028101549060ff60046003830154920154169061092f604051958695865260a0602087015260a0860190610b59565b9260408501526060840152151560808301520390f35b34610174576020366003190112610174576004356001600160a01b0381811691829003610174576002549080821690816109e157807f00000000000000000000000000000000000000000000000000000000000000001633141590816109f3575b506109e15782907ffd6048904970d0056fa1c58afc86fa73408d3a477aa252fe1f09989eaea3d55a5f80a36001600160a01b03191617600255005b604051636bd1573560e11b8152600490fd5b90507f000000000000000000000000000000000000000000000000000000000000000016331415846109a6565b34610174576040366003190112610174576024356004355f52600460205260405f20805482101561017457602091610a5791610b97565b90546040519160031b1c8152f35b34610174575f366003190112610174576020600354604051908152f35b3461017457602036600319011261017457608081610aa05f93610c31565b828152606060208201528260408201528260608201520152610ac0610d11565b610acb600435610bc0565b50604051610ad881610c31565b81548152610ae860018301610c6f565b91602082019283526002810154906040830191825260ff60046003830154926060860193845201541690608084019115158252610b40604051958695602087525160208701525160a0604087015260c0860190610b59565b9251606085015251608084015251151560a08301520390f35b91908251928382525f5b848110610b83575050825f602080949584010152601f8019910116010190565b602081830181015184830182015201610b63565b8054821015610bac575f5260205f2001905f90565b634e487b7160e01b5f52603260045260245ffd5b600354811015610bac5760059060035f52027fc2575a0e9e593c00f959f8c92f12db2869c3395a3b0502d05e2516446f71f85b01905f90565b90600182811c92168015610c27575b6020831014610c1357565b634e487b7160e01b5f52602260045260245ffd5b91607f1691610c08565b60a0810190811067ffffffffffffffff8211176106d257604052565b90601f8019910116810190811067ffffffffffffffff8211176106d257604052565b9060405191825f8254610c8181610bf9565b908184526020946001916001811690815f14610cef5750600114610cb1575b505050610caf92500383610c4d565b565b5f90815285812095935091905b818310610cd7575050610caf93508201015f8080610ca0565b85548884018501529485019487945091830191610cbe565b92505050610caf94925060ff191682840152151560051b8201015f8080610ca0565b337f00000000000000000000000000000000000000000000000000000000000000006001600160a01b0316141580610d5c575b610d4a57565b6040516380f5528f60e01b8152600490fd5b50335f52600560205260ff60405f20541615610d44565b60018060a01b03807f0000000000000000000000000000000000000000000000000000000000000000163314159081610dae575b506109e157565b9050600254163314155f610da756fea26469706673582212204ea7c515852a2c55b26c66252d9aef8a631a251cd37997264bfef20e4d523b5064736f6c63430008180033000000000000000000000000000000000000000000000000000000000000008000000000000000000000000000000000000000000000000000000000000000c00000000000000000000000002c80200932c8733b09b70f9962d6302d9e6db2c50000000000000000000000001db99a995c566c25e8f9e127b57982c33bf4816b000000000000000000000000000000000000000000000000000000000000001d4d696e6973747279206f6620437573746f6d73202620526576656e75650000000000000000000000000000000000000000000000000000000000000000000007435553544f4d5300000000000000000000000000000000000000000000000000",
        "nonce": "0xae",
        "chainId": "0x13882"
      },
      "additionalContracts": [],
      "isFixedGasLimit": false
    },
    {
      "hash": null,
      "transactionType": "CALL",
      "contractName": "InteroperabilityHub",
      "contractAddress": "0x3fd12fe1400bd9b8cd7ebe59c47ea27ab6bf5edb",
      "function": "setNDIDS(address)",
      "arguments": [
        "0x1db99A995C566C25E8f9e127b57982C33BF4816b"
      ],
      "transaction": {
        "from": "0x2c80200932c8733b09b70f9962d6302d9e6db2c5",
        "to": "0x3fd12fe1400bd9b8cd7ebe59c47ea27ab6bf5edb",
        "gas": "0xf36c",
        "value": "0x0",
        "input": "0x5f2c833b0000000000000000000000001db99a995c566c25e8f9e127b57982c33bf4816b",
        "nonce": "0xaf",
        "chainId": "0x13882"
      },
      "additionalContracts": [],
      "isFixedGasLimit": false
    },
    {
      "hash": null,
      "transactionType": "CALL",
      "contractName": "InteroperabilityHub",
      "contractAddress": "0x3fd12fe1400bd9b8cd7ebe59c47ea27ab6bf5edb",
      "function": "setAIDTracker(address)",
      "arguments": [
        "0x0E832d0C324Cd70ca58Dd1B0965151167853cE42"
      ],
      "transaction": {
        "from": "0x2c80200932c8733b09b70f9962d6302d9e6db2c5",
        "to": "0x3fd12fe1400bd9b8cd7ebe59c47ea27ab6bf5edb",
        "gas": "0xf2f3",
        "value": "0x0",
        "input": "0x3366ac810000000000000000000000000e832d0c324cd70ca58dd1b0965151167853ce42",
        "nonce": "0xb0",
        "chainId": "0x13882"
      },
      "additionalContracts": [],
      "isFixedGasLimit": false
    },
    {
      "hash": null,
      "transactionType": "CALL",
      "contractName": "InteroperabilityHub",
      "contractAddress": "0x3fd12fe1400bd9b8cd7ebe59c47ea27ab6bf5edb",
      "function": "registerMinistry(string,string,address)",
      "arguments": [
        "Central Bank of Samoa",
        "CBS",
        "0x6c213b53b41c325317dF0443442b0eae9c7618Cc"
      ],
      "transaction": {
        "from": "0x2c80200932c8733b09b70f9962d6302d9e6db2c5",
        "to": "0x3fd12fe1400bd9b8cd7ebe59c47ea27ab6bf5edb",
        "gas": "0x3724d",
        "value": "0x0",
        "input": "0x89844383000000000000000000000000000000000000000000000000000000000000006000000000000000000000000000000000000000000000000000000000000000a00000000000000000000000006c213b53b41c325317df0443442b0eae9c7618cc000000000000000000000000000000000000000000000000000000000000001543656e7472616c2042616e6b206f662053616d6f61000000000000000000000000000000000000000000000000000000000000000000000000000000000000034342530000000000000000000000000000000000000000000000000000000000",
        "nonce": "0xb1",
        "chainId": "0x13882"
      },
      "additionalContracts": [],
      "isFixedGasLimit": false
    },
    {
      "hash": null,
      "transactionType": "CALL",
      "contractName": "InteroperabilityHub",
      "contractAddress": "0x3fd12fe1400bd9b8cd7ebe59c47ea27ab6bf5edb",
      "function": "registerMinistry(string,string,address)",
      "arguments": [
        "Ministry of Communications & IT",
        "MCIT",
        "0xeC404FB5564da6f6c77DD7C8A694B1A3fFCe99c1"
      ],
      "transaction": {
        "from": "0x2c80200932c8733b09b70f9962d6302d9e6db2c5",
        "to": "0x3fd12fe1400bd9b8cd7ebe59c47ea27ab6bf5edb",
        "gas": "0x3b6f4",
        "value": "0x0",
        "input": "0x89844383000000000000000000000000000000000000000000000000000000000000006000000000000000000000000000000000000000000000000000000000000000a0000000000000000000000000ec404fb5564da6f6c77dd7c8a694b1a3ffce99c1000000000000000000000000000000000000000000000000000000000000001f4d696e6973747279206f6620436f6d6d756e69636174696f6e7320262049540000000000000000000000000000000000000000000000000000000000000000044d43495400000000000000000000000000000000000000000000000000000000",
        "nonce": "0xb2",
        "chainId": "0x13882"
      },
      "additionalContracts": [],
      "isFixedGasLimit": false
    },
    {
      "hash": null,
      "transactionType": "CALL",
      "contractName": "InteroperabilityHub",
      "contractAddress": "0x3fd12fe1400bd9b8cd7ebe59c47ea27ab6bf5edb",
      "function": "registerMinistry(string,string,address)",
      "arguments": [
        "Ministry of Finance",
        "MOF",
        "0x4F117fdC9BB2b781d52731E5674f669Bfe1E6402"
      ],
      "transaction": {
        "from": "0x2c80200932c8733b09b70f9962d6302d9e6db2c5",
        "to": "0x3fd12fe1400bd9b8cd7ebe59c47ea27ab6bf5edb",
        "gas": "0x38147",
        "value": "0x0",
        "input": "0x89844383000000000000000000000000000000000000000000000000000000000000006000000000000000000000000000000000000000000000000000000000000000a00000000000000000000000004f117fdc9bb2b781d52731e5674f669bfe1e640200000000000000000000000000000000000000000000000000000000000000134d696e6973747279206f662046696e616e63650000000000000000000000000000000000000000000000000000000000000000000000000000000000000000034d4f460000000000000000000000000000000000000000000000000000000000",
        "nonce": "0xb3",
        "chainId": "0x13882"
      },
      "additionalContracts": [],
      "isFixedGasLimit": false
    },
    {
      "hash": null,
      "transactionType": "CALL",
      "contractName": "InteroperabilityHub",
      "contractAddress": "0x3fd12fe1400bd9b8cd7ebe59c47ea27ab6bf5edb",
      "function": "registerMinistry(string,string,address)",
      "arguments": [
        "Ministry of Commerce Industry & Labour",
        "MCIL",
        "0x8c26B5E477d6feFf2a75C0Fbd7f3667c4dB07FC4"
      ],
      "transaction": {
        "from": "0x2c80200932c8733b09b70f9962d6302d9e6db2c5",
        "to": "0x3fd12fe1400bd9b8cd7ebe59c47ea27ab6bf5edb",
        "gas": "0x47474",
        "value": "0x0",
        "input": "0x89844383000000000000000000000000000000000000000000000000000000000000006000000000000000000000000000000000000000000000000000000000000000c00000000000000000000000008c26b5e477d6feff2a75c0fbd7f3667c4db07fc400000000000000000000000000000000000000000000000000000000000000264d696e6973747279206f6620436f6d6d6572636520496e6475737472792026204c61626f7572000000000000000000000000000000000000000000000000000000000000000000000000000000000000000000000000000000000000000000044d43494c00000000000000000000000000000000000000000000000000000000",
        "nonce": "0xb4",
        "chainId": "0x13882"
      },
      "additionalContracts": [],
      "isFixedGasLimit": false
    },
    {
      "hash": null,
      "transactionType": "CALL",
      "contractName": "InteroperabilityHub",
      "contractAddress": "0x3fd12fe1400bd9b8cd7ebe59c47ea27ab6bf5edb",
      "function": "registerMinistry(string,string,address)",
      "arguments": [
        "Ministry of Education Sports & Culture",
        "EDUCATION",
        "0xe9b67Df4a062C20167D963DD74fc436c1B83EceD"
      ],
      "transaction": {
        "from": "0x2c80200932c8733b09b70f9962d6302d9e6db2c5",
        "to": "0x3fd12fe1400bd9b8cd7ebe59c47ea27ab6bf5edb",
        "gas": "0x474c7",
        "value": "0x0",
        "input": "0x89844383000000000000000000000000000000000000000000000000000000000000006000000000000000000000000000000000000000000000000000000000000000c0000000000000000000000000e9b67df4a062c20167d963dd74fc436c1b83eced00000000000000000000000000000000000000000000000000000000000000264d696e6973747279206f6620456475636174696f6e2053706f72747320262043756c7475726500000000000000000000000000000000000000000000000000000000000000000000000000000000000000000000000000000000000000000009454455434154494f4e0000000000000000000000000000000000000000000000",
        "nonce": "0xb5",
        "chainId": "0x13882"
      },
      "additionalContracts": [],
      "isFixedGasLimit": false
    },
    {
      "hash": null,
      "transactionType": "CALL",
      "contractName": "InteroperabilityHub",
      "contractAddress": "0x3fd12fe1400bd9b8cd7ebe59c47ea27ab6bf5edb",
      "function": "registerMinistry(string,string,address)",
      "arguments": [
        "Ministry of Customs & Revenue",
        "CUSTOMS",
        "0xa3Cb3B9A6DF26cd550A6D8A49EF693c78750F27d"
      ],
      "transaction": {
        "from": "0x2c80200932c8733b09b70f9962d6302d9e6db2c5",
        "to": "0x3fd12fe1400bd9b8cd7ebe59c47ea27ab6bf5edb",
        "gas": "0x38230",
        "value": "0x0",
        "input": "0x89844383000000000000000000000000000000000000000000000000000000000000006000000000000000000000000000000000000000000000000000000000000000a0000000000000000000000000a3cb3b9a6df26cd550a6d8a49ef693c78750f27d000000000000000000000000000000000000000000000000000000000000001d4d696e6973747279206f6620437573746f6d73202620526576656e75650000000000000000000000000000000000000000000000000000000000000000000007435553544f4d5300000000000000000000000000000000000000000000000000",
        "nonce": "0xb6",
        "chainId": "0x13882"
      },
      "additionalContracts": [],
      "isFixedGasLimit": false
    },
    {
      "hash": null,
      "transactionType": "CALL",
      "contractName": "NDIDSRegistry",
      "contractAddress": "0x1db99a995c566c25e8f9e127b57982c33bf4816b",
      "function": "batchRegister(bytes32[])",
      "arguments": [
        "[0x496831613c1feaaaada6868deec5f07d3e827b2efb442302060b4ef01dc3630f, 0xf96e522ee5a0c19b4ca60d49be83a309351115e0ebbcf49f3a7656fb245fbb0a, 0xa0a0aa31af98058eceff7aec9d4931db40cc0219b8aafb221c031900895d412a, 0xe7db799b2c6f0e50fcf27962b3e4484a5f669e3ce9f022bcabd6c067640fc252, 0xbd7e2ada672540cc850957626fd7e6e1970a54eec5be343fe3fc52f504c06e60, 0x2fe0ad1eed826eef1d1f414bd0b2bf5950a61a4a7c5aaecbd451a5a401d7ba09, 0x5d2caf1dd7ad77939f6de89a469e42e42347c0a04b161832cb81c9f25d8ebf13]"
      ],
      "transaction": {
        "from": "0x2c80200932c8733b09b70f9962d6302d9e6db2c5",
        "to": "0x1db99a995c566c25e8f9e127b57982c33bf4816b",
        "gas": "0x4d45d",
        "value": "0x0",
        "input": "0x57b77c6400000000000000000000000000000000000000000000000000000000000000200000000000000000000000000000000000000000000000000000000000000007496831613c1feaaaada6868deec5f07d3e827b2efb442302060b4ef01dc3630ff96e522ee5a0c19b4ca60d49be83a309351115e0ebbcf49f3a7656fb245fbb0aa0a0aa31af98058eceff7aec9d4931db40cc0219b8aafb221c031900895d412ae7db799b2c6f0e50fcf27962b3e4484a5f669e3ce9f022bcabd6c067640fc252bd7e2ada672540cc850957626fd7e6e1970a54eec5be343fe3fc52f504c06e602fe0ad1eed826eef1d1f414bd0b2bf5950a61a4a7c5aaecbd451a5a401d7ba095d2caf1dd7ad77939f6de89a469e42e42347c0a04b161832cb81c9f25d8ebf13",
        "nonce": "0xb7",
        "chainId": "0x13882"
      },
      "additionalContracts": [],
      "isFixedGasLimit": false
    },
    {
      "hash": null,
      "transactionType": "CALL",
      "contractName": "NDIDSRegistry",
      "contractAddress": "0x1db99a995c566c25e8f9e127b57982c33bf4816b",
      "function": "batchRegister(bytes32[])",
      "arguments": [
        "[0x859aa079be8c8988b3460cf7e9ac4b718b346b52555937c76cfbcbb30f9783f3, 0x6e9c897d295ae20940f527b295e481892bc92ca458147889223ea70f69d8419c, 0xb41649d86ee7b9f187c3e47c3b8b2e8e9b02ec942b0903ade3739e7a0645ae0e]"
      ],
      "transaction": {
        "from": "0x2c80200932c8733b09b70f9962d6302d9e6db2c5",
        "to": "0x1db99a995c566c25e8f9e127b57982c33bf4816b",
        "gas": "0x23fae",
        "value": "0x0",
        "input": "0x57b77c6400000000000000000000000000000000000000000000000000000000000000200000000000000000000000000000000000000000000000000000000000000003859aa079be8c8988b3460cf7e9ac4b718b346b52555937c76cfbcbb30f9783f36e9c897d295ae20940f527b295e481892bc92ca458147889223ea70f69d8419cb41649d86ee7b9f187c3e47c3b8b2e8e9b02ec942b0903ade3739e7a0645ae0e",
        "nonce": "0xb8",
        "chainId": "0x13882"
      },
      "additionalContracts": [],
      "isFixedGasLimit": false
    },
    {
      "hash": null,
      "transactionType": "CALL",
      "contractName": "NDIDSRegistry",
      "contractAddress": "0x1db99a995c566c25e8f9e127b57982c33bf4816b",
      "function": "batchRegister(bytes32[])",
      "arguments": [
        "[0x4b3c141afafd656f055585e97dd2efb9d8a19dd68fc98a75f4214b956b9c7e1f, 0x858621e74b88819da03f1c00bc252e9d256bca8f1daeaaed67524e71d9adc6e5, 0x8c01cce61839ac7aa1a6340c6b1fb2bbdad4e2525f455716eac97ecb7d2c5f17]"
      ],
      "transaction": {
        "from": "0x2c80200932c8733b09b70f9962d6302d9e6db2c5",
        "to": "0x1db99a995c566c25e8f9e127b57982c33bf4816b",
        "gas": "0x21fa2",
        "value": "0x0",
        "input": "0x57b77c64000000000000000000000000000000000000000000000000000000000000002000000000000000000000000000000000000000000000000000000000000000034b3c141afafd656f055585e97dd2efb9d8a19dd68fc98a75f4214b956b9c7e1f858621e74b88819da03f1c00bc252e9d256bca8f1daeaaed67524e71d9adc6e58c01cce61839ac7aa1a6340c6b1fb2bbdad4e2525f455716eac97ecb7d2c5f17",
        "nonce": "0xb9",
        "chainId": "0x13882"
      },
      "additionalContracts": [],
      "isFixedGasLimit": false
    },
    {
      "hash": null,
      "transactionType": "CALL",
      "contractName": "NDIDSRegistry",
      "contractAddress": "0x1db99a995c566c25e8f9e127b57982c33bf4816b",
      "function": "batchRegister(bytes32[])",
      "arguments": [
        "[0xc47d4b4b284a1890f05ac0b439322e94bfb0da52bbc29c8ca35e975d71a0a1e0, 0x3a49bc466d1f0ba0f10351db6306aa8bd472a4049069af275e81e505ffaf5bd9, 0x60e2f5fea1cfd64329c163fa411a9ff7e8285aec757b4ad1d87ab756fe096c4b, 0x961171c3b0225dab6dbb70e9e88a18db05ec8604764b8d87e88d5b84fd4a7563, 0xb35d6ce22589d4c3504b022bdbd3227f46c2fa2a76e93e0e1063763f533089f8]"
      ],
      "transaction": {
        "from": "0x2c80200932c8733b09b70f9962d6302d9e6db2c5",
        "to": "0x1db99a995c566c25e8f9e127b57982c33bf4816b",
        "gas": "0x35936",
        "value": "0x0",
        "input": "0x57b77c6400000000000000000000000000000000000000000000000000000000000000200000000000000000000000000000000000000000000000000000000000000005c47d4b4b284a1890f05ac0b439322e94bfb0da52bbc29c8ca35e975d71a0a1e03a49bc466d1f0ba0f10351db6306aa8bd472a4049069af275e81e505ffaf5bd960e2f5fea1cfd64329c163fa411a9ff7e8285aec757b4ad1d87ab756fe096c4b961171c3b0225dab6dbb70e9e88a18db05ec8604764b8d87e88d5b84fd4a7563b35d6ce22589d4c3504b022bdbd3227f46c2fa2a76e93e0e1063763f533089f8",
        "nonce": "0xba",
        "chainId": "0x13882"
      },
      "additionalContracts": [],
      "isFixedGasLimit": false
    },
    {
      "hash": null,
      "transactionType": "CALL",
      "contractName": "NDIDSRegistry",
      "contractAddress": "0x1db99a995c566c25e8f9e127b57982c33bf4816b",
      "function": "batchRegister(bytes32[])",
      "arguments": [
        "[0x7363828caf76e00e516c1a2a01d92f5cbd865a7e8c8f55dea65dd3ccfdee6bed, 0xb64e86dadba4ccb794500826640db076f2f63791b80e102222d0130a45c562c1, 0xd7a3dc0789c1126cf6d8cf752d377e5a59f9eba2b67a9ccaaa75e666b5181c0a, 0xbc5376307ac0d41a52b4335fe32b3865deb44961b7fd8543b6ee710a1fb39451, 0x411b083c3c4cdac418cdd9770d05ec314353cccc4cfdac1b728f684748d1ff6d, 0x820f138dcbd771037be8ea0e4ebbb9fd5aee28af5c795d6840fc8c930b3fd38a, 0xf5ff5ec76ed8f1cbf6ffd082488c31014ecbd4e4f627592a52094d4073c9ef38]"
      ],
      "transaction": {
        "from": "0x2c80200932c8733b09b70f9962d6302d9e6db2c5",
        "to": "0x1db99a995c566c25e8f9e127b57982c33bf4816b",
        "gas": "0x472be",
        "value": "0x0",
        "input": "0x57b77c64000000000000000000000000000000000000000000000000000000000000002000000000000000000000000000000000000000000000000000000000000000077363828caf76e00e516c1a2a01d92f5cbd865a7e8c8f55dea65dd3ccfdee6bedb64e86dadba4ccb794500826640db076f2f63791b80e102222d0130a45c562c1d7a3dc0789c1126cf6d8cf752d377e5a59f9eba2b67a9ccaaa75e666b5181c0abc5376307ac0d41a52b4335fe32b3865deb44961b7fd8543b6ee710a1fb39451411b083c3c4cdac418cdd9770d05ec314353cccc4cfdac1b728f684748d1ff6d820f138dcbd771037be8ea0e4ebbb9fd5aee28af5c795d6840fc8c930b3fd38af5ff5ec76ed8f1cbf6ffd082488c31014ecbd4e4f627592a52094d4073c9ef38",
        "nonce": "0xbb",
        "chainId": "0x13882"
      },
      "additionalContracts": [],
      "isFixedGasLimit": false
    },
    {
      "hash": null,
      "transactionType": "CALL",
      "contractName": "NDIDSRegistry",
      "contractAddress": "0x1db99a995c566c25e8f9e127b57982c33bf4816b",
      "function": "grantReadAccess(bytes32,address)",
      "arguments": [
        "0x496831613c1feaaaada6868deec5f07d3e827b2efb442302060b4ef01dc3630f",
        "0xe9b67Df4a062C20167D963DD74fc436c1B83EceD"
      ],
      "transaction": {
        "from": "0x2c80200932c8733b09b70f9962d6302d9e6db2c5",
        "to": "0x1db99a995c566c25e8f9e127b57982c33bf4816b",
        "gas": "0x10484",
        "value": "0x0",
        "input": "0x6682edb6496831613c1feaaaada6868deec5f07d3e827b2efb442302060b4ef01dc3630f000000000000000000000000e9b67df4a062c20167d963dd74fc436c1b83eced",
        "nonce": "0xbc",
        "chainId": "0x13882"
      },
      "additionalContracts": [],
      "isFixedGasLimit": false
    },
    {
      "hash": null,
      "transactionType": "CALL",
      "contractName": "NDIDSRegistry",
      "contractAddress": "0x1db99a995c566c25e8f9e127b57982c33bf4816b",
      "function": "grantReadAccess(bytes32,address)",
      "arguments": [
        "0x496831613c1feaaaada6868deec5f07d3e827b2efb442302060b4ef01dc3630f",
        "0x4F117fdC9BB2b781d52731E5674f669Bfe1E6402"
      ],
      "transaction": {
        "from": "0x2c80200932c8733b09b70f9962d6302d9e6db2c5",
        "to": "0x1db99a995c566c25e8f9e127b57982c33bf4816b",
        "gas": "0x10484",
        "value": "0x0",
        "input": "0x6682edb6496831613c1feaaaada6868deec5f07d3e827b2efb442302060b4ef01dc3630f0000000000000000000000004f117fdc9bb2b781d52731e5674f669bfe1e6402",
        "nonce": "0xbd",
        "chainId": "0x13882"
      },
      "additionalContracts": [],
      "isFixedGasLimit": false
    },
    {
      "hash": null,
      "transactionType": "CALL",
      "contractName": "NDIDSRegistry",
      "contractAddress": "0x1db99a995c566c25e8f9e127b57982c33bf4816b",
      "function": "grantReadAccess(bytes32,address)",
      "arguments": [
        "0xf96e522ee5a0c19b4ca60d49be83a309351115e0ebbcf49f3a7656fb245fbb0a",
        "0xe9b67Df4a062C20167D963DD74fc436c1B83EceD"
      ],
      "transaction": {
        "from": "0x2c80200932c8733b09b70f9962d6302d9e6db2c5",
        "to": "0x1db99a995c566c25e8f9e127b57982c33bf4816b",
        "gas": "0x10484",
        "value": "0x0",
        "input": "0x6682edb6f96e522ee5a0c19b4ca60d49be83a309351115e0ebbcf49f3a7656fb245fbb0a000000000000000000000000e9b67df4a062c20167d963dd74fc436c1b83eced",
        "nonce": "0xbe",
        "chainId": "0x13882"
      },
      "additionalContracts": [],
      "isFixedGasLimit": false
    },
    {
      "hash": null,
      "transactionType": "CALL",
      "contractName": "NDIDSRegistry",
      "contractAddress": "0x1db99a995c566c25e8f9e127b57982c33bf4816b",
      "function": "grantReadAccess(bytes32,address)",
      "arguments": [
        "0xf96e522ee5a0c19b4ca60d49be83a309351115e0ebbcf49f3a7656fb245fbb0a",
        "0x4F117fdC9BB2b781d52731E5674f669Bfe1E6402"
      ],
      "transaction": {
        "from": "0x2c80200932c8733b09b70f9962d6302d9e6db2c5",
        "to": "0x1db99a995c566c25e8f9e127b57982c33bf4816b",
        "gas": "0x10484",
        "value": "0x0",
        "input": "0x6682edb6f96e522ee5a0c19b4ca60d49be83a309351115e0ebbcf49f3a7656fb245fbb0a0000000000000000000000004f117fdc9bb2b781d52731e5674f669bfe1e6402",
        "nonce": "0xbf",
        "chainId": "0x13882"
      },
      "additionalContracts": [],
      "isFixedGasLimit": false
    },
    {
      "hash": null,
      "transactionType": "CALL",
      "contractName": "NDIDSRegistry",
      "contractAddress": "0x1db99a995c566c25e8f9e127b57982c33bf4816b",
      "function": "grantReadAccess(bytes32,address)",
      "arguments": [
        "0xa0a0aa31af98058eceff7aec9d4931db40cc0219b8aafb221c031900895d412a",
        "0xe9b67Df4a062C20167D963DD74fc436c1B83EceD"
      ],
      "transaction": {
        "from": "0x2c80200932c8733b09b70f9962d6302d9e6db2c5",
        "to": "0x1db99a995c566c25e8f9e127b57982c33bf4816b",
        "gas": "0x113c7",
        "value": "0x0",
        "input": "0x6682edb6a0a0aa31af98058eceff7aec9d4931db40cc0219b8aafb221c031900895d412a000000000000000000000000e9b67df4a062c20167d963dd74fc436c1b83eced",
        "nonce": "0xc0",
        "chainId": "0x13882"
      },
      "additionalContracts": [],
      "isFixedGasLimit": false
    },
    {
      "hash": null,
      "transactionType": "CALL",
      "contractName": "NDIDSRegistry",
      "contractAddress": "0x1db99a995c566c25e8f9e127b57982c33bf4816b",
      "function": "grantReadAccess(bytes32,address)",
      "arguments": [
        "0xa0a0aa31af98058eceff7aec9d4931db40cc0219b8aafb221c031900895d412a",
        "0x4F117fdC9BB2b781d52731E5674f669Bfe1E6402"
      ],
      "transaction": {
        "from": "0x2c80200932c8733b09b70f9962d6302d9e6db2c5",
        "to": "0x1db99a995c566c25e8f9e127b57982c33bf4816b",
        "gas": "0x113c7",
        "value": "0x0",
        "input": "0x6682edb6a0a0aa31af98058eceff7aec9d4931db40cc0219b8aafb221c031900895d412a0000000000000000000000004f117fdc9bb2b781d52731e5674f669bfe1e6402",
        "nonce": "0xc1",
        "chainId": "0x13882"
      },
      "additionalContracts": [],
      "isFixedGasLimit": false
    },
    {
      "hash": null,
      "transactionType": "CALL",
      "contractName": "NDIDSRegistry",
      "contractAddress": "0x1db99a995c566c25e8f9e127b57982c33bf4816b",
      "function": "grantReadAccess(bytes32,address)",
      "arguments": [
        "0xe7db799b2c6f0e50fcf27962b3e4484a5f669e3ce9f022bcabd6c067640fc252",
        "0xe9b67Df4a062C20167D963DD74fc436c1B83EceD"
      ],
      "transaction": {
        "from": "0x2c80200932c8733b09b70f9962d6302d9e6db2c5",
        "to": "0x1db99a995c566c25e8f9e127b57982c33bf4816b",
        "gas": "0x10484",
        "value": "0x0",
        "input": "0x6682edb6e7db799b2c6f0e50fcf27962b3e4484a5f669e3ce9f022bcabd6c067640fc252000000000000000000000000e9b67df4a062c20167d963dd74fc436c1b83eced",
        "nonce": "0xc2",
        "chainId": "0x13882"
      },
      "additionalContracts": [],
      "isFixedGasLimit": false
    },
    {
      "hash": null,
      "transactionType": "CALL",
      "contractName": "NDIDSRegistry",
      "contractAddress": "0x1db99a995c566c25e8f9e127b57982c33bf4816b",
      "function": "grantReadAccess(bytes32,address)",
      "arguments": [
        "0xe7db799b2c6f0e50fcf27962b3e4484a5f669e3ce9f022bcabd6c067640fc252",
        "0x4F117fdC9BB2b781d52731E5674f669Bfe1E6402"
      ],
      "transaction": {
        "from": "0x2c80200932c8733b09b70f9962d6302d9e6db2c5",
        "to": "0x1db99a995c566c25e8f9e127b57982c33bf4816b",
        "gas": "0x10484",
        "value": "0x0",
        "input": "0x6682edb6e7db799b2c6f0e50fcf27962b3e4484a5f669e3ce9f022bcabd6c067640fc2520000000000000000000000004f117fdc9bb2b781d52731e5674f669bfe1e6402",
        "nonce": "0xc3",
        "chainId": "0x13882"
      },
      "additionalContracts": [],
      "isFixedGasLimit": false
    },
    {
      "hash": null,
      "transactionType": "CALL",
      "contractName": "NDIDSRegistry",
      "contractAddress": "0x1db99a995c566c25e8f9e127b57982c33bf4816b",
      "function": "grantReadAccess(bytes32,address)",
      "arguments": [
        "0xbd7e2ada672540cc850957626fd7e6e1970a54eec5be343fe3fc52f504c06e60",
        "0xe9b67Df4a062C20167D963DD74fc436c1B83EceD"
      ],
      "transaction": {
        "from": "0x2c80200932c8733b09b70f9962d6302d9e6db2c5",
        "to": "0x1db99a995c566c25e8f9e127b57982c33bf4816b",
        "gas": "0x10484",
        "value": "0x0",
        "input": "0x6682edb6bd7e2ada672540cc850957626fd7e6e1970a54eec5be343fe3fc52f504c06e60000000000000000000000000e9b67df4a062c20167d963dd74fc436c1b83eced",
        "nonce": "0xc4",
        "chainId": "0x13882"
      },
      "additionalContracts": [],
      "isFixedGasLimit": false
    },
    {
      "hash": null,
      "transactionType": "CALL",
      "contractName": "NDIDSRegistry",
      "contractAddress": "0x1db99a995c566c25e8f9e127b57982c33bf4816b",
      "function": "grantReadAccess(bytes32,address)",
      "arguments": [
        "0xbd7e2ada672540cc850957626fd7e6e1970a54eec5be343fe3fc52f504c06e60",
        "0x4F117fdC9BB2b781d52731E5674f669Bfe1E6402"
      ],
      "transaction": {
        "from": "0x2c80200932c8733b09b70f9962d6302d9e6db2c5",
        "to": "0x1db99a995c566c25e8f9e127b57982c33bf4816b",
        "gas": "0x10484",
        "value": "0x0",
        "input": "0x6682edb6bd7e2ada672540cc850957626fd7e6e1970a54eec5be343fe3fc52f504c06e600000000000000000000000004f117fdc9bb2b781d52731e5674f669bfe1e6402",
        "nonce": "0xc5",
        "chainId": "0x13882"
      },
      "additionalContracts": [],
      "isFixedGasLimit": false
    },
    {
      "hash": null,
      "transactionType": "CALL",
      "contractName": "NDIDSRegistry",
      "contractAddress": "0x1db99a995c566c25e8f9e127b57982c33bf4816b",
      "function": "grantReadAccess(bytes32,address)",
      "arguments": [
        "0x2fe0ad1eed826eef1d1f414bd0b2bf5950a61a4a7c5aaecbd451a5a401d7ba09",
        "0xe9b67Df4a062C20167D963DD74fc436c1B83EceD"
      ],
      "transaction": {
        "from": "0x2c80200932c8733b09b70f9962d6302d9e6db2c5",
        "to": "0x1db99a995c566c25e8f9e127b57982c33bf4816b",
        "gas": "0x10484",
        "value": "0x0",
        "input": "0x6682edb62fe0ad1eed826eef1d1f414bd0b2bf5950a61a4a7c5aaecbd451a5a401d7ba09000000000000000000000000e9b67df4a062c20167d963dd74fc436c1b83eced",
        "nonce": "0xc6",
        "chainId": "0x13882"
      },
      "additionalContracts": [],
      "isFixedGasLimit": false
    },
    {
      "hash": null,
      "transactionType": "CALL",
      "contractName": "NDIDSRegistry",
      "contractAddress": "0x1db99a995c566c25e8f9e127b57982c33bf4816b",
      "function": "grantReadAccess(bytes32,address)",
      "arguments": [
        "0x2fe0ad1eed826eef1d1f414bd0b2bf5950a61a4a7c5aaecbd451a5a401d7ba09",
        "0x4F117fdC9BB2b781d52731E5674f669Bfe1E6402"
      ],
      "transaction": {
        "from": "0x2c80200932c8733b09b70f9962d6302d9e6db2c5",
        "to": "0x1db99a995c566c25e8f9e127b57982c33bf4816b",
        "gas": "0x10484",
        "value": "0x0",
        "input": "0x6682edb62fe0ad1eed826eef1d1f414bd0b2bf5950a61a4a7c5aaecbd451a5a401d7ba090000000000000000000000004f117fdc9bb2b781d52731e5674f669bfe1e6402",
        "nonce": "0xc7",
        "chainId": "0x13882"
      },
      "additionalContracts": [],
      "isFixedGasLimit": false
    },
    {
      "hash": null,
      "transactionType": "CALL",
      "contractName": "NDIDSRegistry",
      "contractAddress": "0x1db99a995c566c25e8f9e127b57982c33bf4816b",
      "function": "grantReadAccess(bytes32,address)",
      "arguments": [
        "0x5d2caf1dd7ad77939f6de89a469e42e42347c0a04b161832cb81c9f25d8ebf13",
        "0xe9b67Df4a062C20167D963DD74fc436c1B83EceD"
      ],
      "transaction": {
        "from": "0x2c80200932c8733b09b70f9962d6302d9e6db2c5",
        "to": "0x1db99a995c566c25e8f9e127b57982c33bf4816b",
        "gas": "0x10484",
        "value": "0x0",
        "input": "0x6682edb65d2caf1dd7ad77939f6de89a469e42e42347c0a04b161832cb81c9f25d8ebf13000000000000000000000000e9b67df4a062c20167d963dd74fc436c1b83eced",
        "nonce": "0xc8",
        "chainId": "0x13882"
      },
      "additionalContracts": [],
      "isFixedGasLimit": false
    },
    {
      "hash": null,
      "transactionType": "CALL",
      "contractName": "NDIDSRegistry",
      "contractAddress": "0x1db99a995c566c25e8f9e127b57982c33bf4816b",
      "function": "grantReadAccess(bytes32,address)",
      "arguments": [
        "0x5d2caf1dd7ad77939f6de89a469e42e42347c0a04b161832cb81c9f25d8ebf13",
        "0x4F117fdC9BB2b781d52731E5674f669Bfe1E6402"
      ],
      "transaction": {
        "from": "0x2c80200932c8733b09b70f9962d6302d9e6db2c5",
        "to": "0x1db99a995c566c25e8f9e127b57982c33bf4816b",
        "gas": "0x10484",
        "value": "0x0",
        "input": "0x6682edb65d2caf1dd7ad77939f6de89a469e42e42347c0a04b161832cb81c9f25d8ebf130000000000000000000000004f117fdc9bb2b781d52731e5674f669bfe1e6402",
        "nonce": "0xc9",
        "chainId": "0x13882"
      },
      "additionalContracts": [],
      "isFixedGasLimit": false
    },
    {
      "hash": null,
      "transactionType": "CALL",
      "contractName": "NDIDSRegistry",
      "contractAddress": "0x1db99a995c566c25e8f9e127b57982c33bf4816b",
      "function": "grantReadAccess(bytes32,address)",
      "arguments": [
        "0xc47d4b4b284a1890f05ac0b439322e94bfb0da52bbc29c8ca35e975d71a0a1e0",
        "0xe9b67Df4a062C20167D963DD74fc436c1B83EceD"
      ],
      "transaction": {
        "from": "0x2c80200932c8733b09b70f9962d6302d9e6db2c5",
        "to": "0x1db99a995c566c25e8f9e127b57982c33bf4816b",
        "gas": "0x10484",
        "value": "0x0",
        "input": "0x6682edb6c47d4b4b284a1890f05ac0b439322e94bfb0da52bbc29c8ca35e975d71a0a1e0000000000000000000000000e9b67df4a062c20167d963dd74fc436c1b83eced",
        "nonce": "0xca",
        "chainId": "0x13882"
      },
      "additionalContracts": [],
      "isFixedGasLimit": false
    },
    {
      "hash": null,
      "transactionType": "CALL",
      "contractName": "NDIDSRegistry",
      "contractAddress": "0x1db99a995c566c25e8f9e127b57982c33bf4816b",
      "function": "grantReadAccess(bytes32,address)",
      "arguments": [
        "0xc47d4b4b284a1890f05ac0b439322e94bfb0da52bbc29c8ca35e975d71a0a1e0",
        "0x4F117fdC9BB2b781d52731E5674f669Bfe1E6402"
      ],
      "transaction": {
        "from": "0x2c80200932c8733b09b70f9962d6302d9e6db2c5",
        "to": "0x1db99a995c566c25e8f9e127b57982c33bf4816b",
        "gas": "0x10484",
        "value": "0x0",
        "input": "0x6682edb6c47d4b4b284a1890f05ac0b439322e94bfb0da52bbc29c8ca35e975d71a0a1e00000000000000000000000004f117fdc9bb2b781d52731e5674f669bfe1e6402",
        "nonce": "0xcb",
        "chainId": "0x13882"
      },
      "additionalContracts": [],
      "isFixedGasLimit": false
    },
    {
      "hash": null,
      "transactionType": "CALL",
      "contractName": "NDIDSRegistry",
      "contractAddress": "0x1db99a995c566c25e8f9e127b57982c33bf4816b",
      "function": "grantReadAccess(bytes32,address)",
      "arguments": [
        "0x3a49bc466d1f0ba0f10351db6306aa8bd472a4049069af275e81e505ffaf5bd9",
        "0xe9b67Df4a062C20167D963DD74fc436c1B83EceD"
      ],
      "transaction": {
        "from": "0x2c80200932c8733b09b70f9962d6302d9e6db2c5",
        "to": "0x1db99a995c566c25e8f9e127b57982c33bf4816b",
        "gas": "0x10484",
        "value": "0x0",
        "input": "0x6682edb63a49bc466d1f0ba0f10351db6306aa8bd472a4049069af275e81e505ffaf5bd9000000000000000000000000e9b67df4a062c20167d963dd74fc436c1b83eced",
        "nonce": "0xcc",
        "chainId": "0x13882"
      },
      "additionalContracts": [],
      "isFixedGasLimit": false
    },
    {
      "hash": null,
      "transactionType": "CALL",
      "contractName": "NDIDSRegistry",
      "contractAddress": "0x1db99a995c566c25e8f9e127b57982c33bf4816b",
      "function": "grantReadAccess(bytes32,address)",
      "arguments": [
        "0x3a49bc466d1f0ba0f10351db6306aa8bd472a4049069af275e81e505ffaf5bd9",
        "0x4F117fdC9BB2b781d52731E5674f669Bfe1E6402"
      ],
      "transaction": {
        "from": "0x2c80200932c8733b09b70f9962d6302d9e6db2c5",
        "to": "0x1db99a995c566c25e8f9e127b57982c33bf4816b",
        "gas": "0x10484",
        "value": "0x0",
        "input": "0x6682edb63a49bc466d1f0ba0f10351db6306aa8bd472a4049069af275e81e505ffaf5bd90000000000000000000000004f117fdc9bb2b781d52731e5674f669bfe1e6402",
        "nonce": "0xcd",
        "chainId": "0x13882"
      },
      "additionalContracts": [],
      "isFixedGasLimit": false
    },
    {
      "hash": null,
      "transactionType": "CALL",
      "contractName": "NDIDSRegistry",
      "contractAddress": "0x1db99a995c566c25e8f9e127b57982c33bf4816b",
      "function": "grantReadAccess(bytes32,address)",
      "arguments": [
        "0x60e2f5fea1cfd64329c163fa411a9ff7e8285aec757b4ad1d87ab756fe096c4b",
        "0xe9b67Df4a062C20167D963DD74fc436c1B83EceD"
      ],
      "transaction": {
        "from": "0x2c80200932c8733b09b70f9962d6302d9e6db2c5",
        "to": "0x1db99a995c566c25e8f9e127b57982c33bf4816b",
        "gas": "0x10484",
        "value": "0x0",
        "input": "0x6682edb660e2f5fea1cfd64329c163fa411a9ff7e8285aec757b4ad1d87ab756fe096c4b000000000000000000000000e9b67df4a062c20167d963dd74fc436c1b83eced",
        "nonce": "0xce",
        "chainId": "0x13882"
      },
      "additionalContracts": [],
      "isFixedGasLimit": false
    },
    {
      "hash": null,
      "transactionType": "CALL",
      "contractName": "NDIDSRegistry",
      "contractAddress": "0x1db99a995c566c25e8f9e127b57982c33bf4816b",
      "function": "grantReadAccess(bytes32,address)",
      "arguments": [
        "0x60e2f5fea1cfd64329c163fa411a9ff7e8285aec757b4ad1d87ab756fe096c4b",
        "0x4F117fdC9BB2b781d52731E5674f669Bfe1E6402"
      ],
      "transaction": {
        "from": "0x2c80200932c8733b09b70f9962d6302d9e6db2c5",
        "to": "0x1db99a995c566c25e8f9e127b57982c33bf4816b",
        "gas": "0x10484",
        "value": "0x0",
        "input": "0x6682edb660e2f5fea1cfd64329c163fa411a9ff7e8285aec757b4ad1d87ab756fe096c4b0000000000000000000000004f117fdc9bb2b781d52731e5674f669bfe1e6402",
        "nonce": "0xcf",
        "chainId": "0x13882"
      },
      "additionalContracts": [],
      "isFixedGasLimit": false
    },
    {
      "hash": null,
      "transactionType": "CALL",
      "contractName": "NDIDSRegistry",
      "contractAddress": "0x1db99a995c566c25e8f9e127b57982c33bf4816b",
      "function": "grantReadAccess(bytes32,address)",
      "arguments": [
        "0x961171c3b0225dab6dbb70e9e88a18db05ec8604764b8d87e88d5b84fd4a7563",
        "0xe9b67Df4a062C20167D963DD74fc436c1B83EceD"
      ],
      "transaction": {
        "from": "0x2c80200932c8733b09b70f9962d6302d9e6db2c5",
        "to": "0x1db99a995c566c25e8f9e127b57982c33bf4816b",
        "gas": "0x10484",
        "value": "0x0",
        "input": "0x6682edb6961171c3b0225dab6dbb70e9e88a18db05ec8604764b8d87e88d5b84fd4a7563000000000000000000000000e9b67df4a062c20167d963dd74fc436c1b83eced",
        "nonce": "0xd0",
        "chainId": "0x13882"
      },
      "additionalContracts": [],
      "isFixedGasLimit": false
    },
    {
      "hash": null,
      "transactionType": "CALL",
      "contractName": "NDIDSRegistry",
      "contractAddress": "0x1db99a995c566c25e8f9e127b57982c33bf4816b",
      "function": "grantReadAccess(bytes32,address)",
      "arguments": [
        "0x961171c3b0225dab6dbb70e9e88a18db05ec8604764b8d87e88d5b84fd4a7563",
        "0x4F117fdC9BB2b781d52731E5674f669Bfe1E6402"
      ],
      "transaction": {
        "from": "0x2c80200932c8733b09b70f9962d6302d9e6db2c5",
        "to": "0x1db99a995c566c25e8f9e127b57982c33bf4816b",
        "gas": "0x10484",
        "value": "0x0",
        "input": "0x6682edb6961171c3b0225dab6dbb70e9e88a18db05ec8604764b8d87e88d5b84fd4a75630000000000000000000000004f117fdc9bb2b781d52731e5674f669bfe1e6402",
        "nonce": "0xd1",
        "chainId": "0x13882"
      },
      "additionalContracts": [],
      "isFixedGasLimit": false
    },
    {
      "hash": null,
      "transactionType": "CALL",
      "contractName": "NDIDSRegistry",
      "contractAddress": "0x1db99a995c566c25e8f9e127b57982c33bf4816b",
      "function": "grantReadAccess(bytes32,address)",
      "arguments": [
        "0xb35d6ce22589d4c3504b022bdbd3227f46c2fa2a76e93e0e1063763f533089f8",
        "0xe9b67Df4a062C20167D963DD74fc436c1B83EceD"
      ],
      "transaction": {
        "from": "0x2c80200932c8733b09b70f9962d6302d9e6db2c5",
        "to": "0x1db99a995c566c25e8f9e127b57982c33bf4816b",
        "gas": "0x10484",
        "value": "0x0",
        "input": "0x6682edb6b35d6ce22589d4c3504b022bdbd3227f46c2fa2a76e93e0e1063763f533089f8000000000000000000000000e9b67df4a062c20167d963dd74fc436c1b83eced",
        "nonce": "0xd2",
        "chainId": "0x13882"
      },
      "additionalContracts": [],
      "isFixedGasLimit": false
    },
    {
      "hash": null,
      "transactionType": "CALL",
      "contractName": "NDIDSRegistry",
      "contractAddress": "0x1db99a995c566c25e8f9e127b57982c33bf4816b",
      "function": "grantReadAccess(bytes32,address)",
      "arguments": [
        "0xb35d6ce22589d4c3504b022bdbd3227f46c2fa2a76e93e0e1063763f533089f8",
        "0x4F117fdC9BB2b781d52731E5674f669Bfe1E6402"
      ],
      "transaction": {
        "from": "0x2c80200932c8733b09b70f9962d6302d9e6db2c5",
        "to": "0x1db99a995c566c25e8f9e127b57982c33bf4816b",
        "gas": "0x10484",
        "value": "0x0",
        "input": "0x6682edb6b35d6ce22589d4c3504b022bdbd3227f46c2fa2a76e93e0e1063763f533089f80000000000000000000000004f117fdc9bb2b781d52731e5674f669bfe1e6402",
        "nonce": "0xd3",
        "chainId": "0x13882"
      },
      "additionalContracts": [],
      "isFixedGasLimit": false
    },
    {
      "hash": null,
      "transactionType": "CALL",
      "contractName": "NDIDSRegistry",
      "contractAddress": "0x1db99a995c566c25e8f9e127b57982c33bf4816b",
      "function": "grantReadAccess(bytes32,address)",
      "arguments": [
        "0x859aa079be8c8988b3460cf7e9ac4b718b346b52555937c76cfbcbb30f9783f3",
        "0x6c213b53b41c325317dF0443442b0eae9c7618Cc"
      ],
      "transaction": {
        "from": "0x2c80200932c8733b09b70f9962d6302d9e6db2c5",
        "to": "0x1db99a995c566c25e8f9e127b57982c33bf4816b",
        "gas": "0x10484",
        "value": "0x0",
        "input": "0x6682edb6859aa079be8c8988b3460cf7e9ac4b718b346b52555937c76cfbcbb30f9783f30000000000000000000000006c213b53b41c325317df0443442b0eae9c7618cc",
        "nonce": "0xd4",
        "chainId": "0x13882"
      },
      "additionalContracts": [],
      "isFixedGasLimit": false
    },
    {
      "hash": null,
      "transactionType": "CALL",
      "contractName": "NDIDSRegistry",
      "contractAddress": "0x1db99a995c566c25e8f9e127b57982c33bf4816b",
      "function": "grantReadAccess(bytes32,address)",
      "arguments": [
        "0x859aa079be8c8988b3460cf7e9ac4b718b346b52555937c76cfbcbb30f9783f3",
        "0xeC404FB5564da6f6c77DD7C8A694B1A3fFCe99c1"
      ],
      "transaction": {
        "from": "0x2c80200932c8733b09b70f9962d6302d9e6db2c5",
        "to": "0x1db99a995c566c25e8f9e127b57982c33bf4816b",
        "gas": "0x10484",
        "value": "0x0",
        "input": "0x6682edb6859aa079be8c8988b3460cf7e9ac4b718b346b52555937c76cfbcbb30f9783f3000000000000000000000000ec404fb5564da6f6c77dd7c8a694b1a3ffce99c1",
        "nonce": "0xd5",
        "chainId": "0x13882"
      },
      "additionalContracts": [],
      "isFixedGasLimit": false
    },
    {
      "hash": null,
      "transactionType": "CALL",
      "contractName": "NDIDSRegistry",
      "contractAddress": "0x1db99a995c566c25e8f9e127b57982c33bf4816b",
      "function": "grantReadAccess(bytes32,address)",
      "arguments": [
        "0x6e9c897d295ae20940f527b295e481892bc92ca458147889223ea70f69d8419c",
        "0x6c213b53b41c325317dF0443442b0eae9c7618Cc"
      ],
      "transaction": {
        "from": "0x2c80200932c8733b09b70f9962d6302d9e6db2c5",
        "to": "0x1db99a995c566c25e8f9e127b57982c33bf4816b",
        "gas": "0x10484",
        "value": "0x0",
        "input": "0x6682edb66e9c897d295ae20940f527b295e481892bc92ca458147889223ea70f69d8419c0000000000000000000000006c213b53b41c325317df0443442b0eae9c7618cc",
        "nonce": "0xd6",
        "chainId": "0x13882"
      },
      "additionalContracts": [],
      "isFixedGasLimit": false
    },
    {
      "hash": null,
      "transactionType": "CALL",
      "contractName": "NDIDSRegistry",
      "contractAddress": "0x1db99a995c566c25e8f9e127b57982c33bf4816b",
      "function": "grantReadAccess(bytes32,address)",
      "arguments": [
        "0x6e9c897d295ae20940f527b295e481892bc92ca458147889223ea70f69d8419c",
        "0xeC404FB5564da6f6c77DD7C8A694B1A3fFCe99c1"
      ],
      "transaction": {
        "from": "0x2c80200932c8733b09b70f9962d6302d9e6db2c5",
        "to": "0x1db99a995c566c25e8f9e127b57982c33bf4816b",
        "gas": "0x10484",
        "value": "0x0",
        "input": "0x6682edb66e9c897d295ae20940f527b295e481892bc92ca458147889223ea70f69d8419c000000000000000000000000ec404fb5564da6f6c77dd7c8a694b1a3ffce99c1",
        "nonce": "0xd7",
        "chainId": "0x13882"
      },
      "additionalContracts": [],
      "isFixedGasLimit": false
    },
    {
      "hash": null,
      "transactionType": "CALL",
      "contractName": "NDIDSRegistry",
      "contractAddress": "0x1db99a995c566c25e8f9e127b57982c33bf4816b",
      "function": "grantReadAccess(bytes32,address)",
      "arguments": [
        "0xb41649d86ee7b9f187c3e47c3b8b2e8e9b02ec942b0903ade3739e7a0645ae0e",
        "0x6c213b53b41c325317dF0443442b0eae9c7618Cc"
      ],
      "transaction": {
        "from": "0x2c80200932c8733b09b70f9962d6302d9e6db2c5",
        "to": "0x1db99a995c566c25e8f9e127b57982c33bf4816b",
        "gas": "0x10484",
        "value": "0x0",
        "input": "0x6682edb6b41649d86ee7b9f187c3e47c3b8b2e8e9b02ec942b0903ade3739e7a0645ae0e0000000000000000000000006c213b53b41c325317df0443442b0eae9c7618cc",
        "nonce": "0xd8",
        "chainId": "0x13882"
      },
      "additionalContracts": [],
      "isFixedGasLimit": false
    },
    {
      "hash": null,
      "transactionType": "CALL",
      "contractName": "NDIDSRegistry",
      "contractAddress": "0x1db99a995c566c25e8f9e127b57982c33bf4816b",
      "function": "grantReadAccess(bytes32,address)",
      "arguments": [
        "0xb41649d86ee7b9f187c3e47c3b8b2e8e9b02ec942b0903ade3739e7a0645ae0e",
        "0xeC404FB5564da6f6c77DD7C8A694B1A3fFCe99c1"
      ],
      "transaction": {
        "from": "0x2c80200932c8733b09b70f9962d6302d9e6db2c5",
        "to": "0x1db99a995c566c25e8f9e127b57982c33bf4816b",
        "gas": "0x10484",
        "value": "0x0",
        "input": "0x6682edb6b41649d86ee7b9f187c3e47c3b8b2e8e9b02ec942b0903ade3739e7a0645ae0e000000000000000000000000ec404fb5564da6f6c77dd7c8a694b1a3ffce99c1",
        "nonce": "0xd9",
        "chainId": "0x13882"
      },
      "additionalContracts": [],
      "isFixedGasLimit": false
    },
    {
      "hash": null,
      "transactionType": "CALL",
      "contractName": "NDIDSRegistry",
      "contractAddress": "0x1db99a995c566c25e8f9e127b57982c33bf4816b",
      "function": "grantReadAccess(bytes32,address)",
      "arguments": [
        "0x4b3c141afafd656f055585e97dd2efb9d8a19dd68fc98a75f4214b956b9c7e1f",
        "0xa3Cb3B9A6DF26cd550A6D8A49EF693c78750F27d"
      ],
      "transaction": {
        "from": "0x2c80200932c8733b09b70f9962d6302d9e6db2c5",
        "to": "0x1db99a995c566c25e8f9e127b57982c33bf4816b",
        "gas": "0x10484",
        "value": "0x0",
        "input": "0x6682edb64b3c141afafd656f055585e97dd2efb9d8a19dd68fc98a75f4214b956b9c7e1f000000000000000000000000a3cb3b9a6df26cd550a6d8a49ef693c78750f27d",
        "nonce": "0xda",
        "chainId": "0x13882"
      },
      "additionalContracts": [],
      "isFixedGasLimit": false
    },
    {
      "hash": null,
      "transactionType": "CALL",
      "contractName": "NDIDSRegistry",
      "contractAddress": "0x1db99a995c566c25e8f9e127b57982c33bf4816b",
      "function": "grantReadAccess(bytes32,address)",
      "arguments": [
        "0x4b3c141afafd656f055585e97dd2efb9d8a19dd68fc98a75f4214b956b9c7e1f",
        "0x8c26B5E477d6feFf2a75C0Fbd7f3667c4dB07FC4"
      ],
      "transaction": {
        "from": "0x2c80200932c8733b09b70f9962d6302d9e6db2c5",
        "to": "0x1db99a995c566c25e8f9e127b57982c33bf4816b",
        "gas": "0x10484",
        "value": "0x0",
        "input": "0x6682edb64b3c141afafd656f055585e97dd2efb9d8a19dd68fc98a75f4214b956b9c7e1f0000000000000000000000008c26b5e477d6feff2a75c0fbd7f3667c4db07fc4",
        "nonce": "0xdb",
        "chainId": "0x13882"
      },
      "additionalContracts": [],
      "isFixedGasLimit": false
    },
    {
      "hash": null,
      "transactionType": "CALL",
      "contractName": "NDIDSRegistry",
      "contractAddress": "0x1db99a995c566c25e8f9e127b57982c33bf4816b",
      "function": "grantReadAccess(bytes32,address)",
      "arguments": [
        "0x4b3c141afafd656f055585e97dd2efb9d8a19dd68fc98a75f4214b956b9c7e1f",
        "0x4F117fdC9BB2b781d52731E5674f669Bfe1E6402"
      ],
      "transaction": {
        "from": "0x2c80200932c8733b09b70f9962d6302d9e6db2c5",
        "to": "0x1db99a995c566c25e8f9e127b57982c33bf4816b",
        "gas": "0x10484",
        "value": "0x0",
        "input": "0x6682edb64b3c141afafd656f055585e97dd2efb9d8a19dd68fc98a75f4214b956b9c7e1f0000000000000000000000004f117fdc9bb2b781d52731e5674f669bfe1e6402",
        "nonce": "0xdc",
        "chainId": "0x13882"
      },
      "additionalContracts": [],
      "isFixedGasLimit": false
    },
    {
      "hash": null,
      "transactionType": "CALL",
      "contractName": "NDIDSRegistry",
      "contractAddress": "0x1db99a995c566c25e8f9e127b57982c33bf4816b",
      "function": "grantReadAccess(bytes32,address)",
      "arguments": [
        "0x858621e74b88819da03f1c00bc252e9d256bca8f1daeaaed67524e71d9adc6e5",
        "0xa3Cb3B9A6DF26cd550A6D8A49EF693c78750F27d"
      ],
      "transaction": {
        "from": "0x2c80200932c8733b09b70f9962d6302d9e6db2c5",
        "to": "0x1db99a995c566c25e8f9e127b57982c33bf4816b",
        "gas": "0x113c7",
        "value": "0x0",
        "input": "0x6682edb6858621e74b88819da03f1c00bc252e9d256bca8f1daeaaed67524e71d9adc6e5000000000000000000000000a3cb3b9a6df26cd550a6d8a49ef693c78750f27d",
        "nonce": "0xdd",
        "chainId": "0x13882"
      },
      "additionalContracts": [],
      "isFixedGasLimit": false
    },
    {
      "hash": null,
      "transactionType": "CALL",
      "contractName": "NDIDSRegistry",
      "contractAddress": "0x1db99a995c566c25e8f9e127b57982c33bf4816b",
      "function": "grantReadAccess(bytes32,address)",
      "arguments": [
        "0x858621e74b88819da03f1c00bc252e9d256bca8f1daeaaed67524e71d9adc6e5",
        "0x8c26B5E477d6feFf2a75C0Fbd7f3667c4dB07FC4"
      ],
      "transaction": {
        "from": "0x2c80200932c8733b09b70f9962d6302d9e6db2c5",
        "to": "0x1db99a995c566c25e8f9e127b57982c33bf4816b",
        "gas": "0x113c7",
        "value": "0x0",
        "input": "0x6682edb6858621e74b88819da03f1c00bc252e9d256bca8f1daeaaed67524e71d9adc6e50000000000000000000000008c26b5e477d6feff2a75c0fbd7f3667c4db07fc4",
        "nonce": "0xde",
        "chainId": "0x13882"
      },
      "additionalContracts": [],
      "isFixedGasLimit": false
    },
    {
      "hash": null,
      "transactionType": "CALL",
      "contractName": "NDIDSRegistry",
      "contractAddress": "0x1db99a995c566c25e8f9e127b57982c33bf4816b",
      "function": "grantReadAccess(bytes32,address)",
      "arguments": [
        "0x858621e74b88819da03f1c00bc252e9d256bca8f1daeaaed67524e71d9adc6e5",
        "0x4F117fdC9BB2b781d52731E5674f669Bfe1E6402"
      ],
      "transaction": {
        "from": "0x2c80200932c8733b09b70f9962d6302d9e6db2c5",
        "to": "0x1db99a995c566c25e8f9e127b57982c33bf4816b",
        "gas": "0x113c7",
        "value": "0x0",
        "input": "0x6682edb6858621e74b88819da03f1c00bc252e9d256bca8f1daeaaed67524e71d9adc6e50000000000000000000000004f117fdc9bb2b781d52731e5674f669bfe1e6402",
        "nonce": "0xdf",
        "chainId": "0x13882"
      },
      "additionalContracts": [],
      "isFixedGasLimit": false
    },
    {
      "hash": null,
      "transactionType": "CALL",
      "contractName": "NDIDSRegistry",
      "contractAddress": "0x1db99a995c566c25e8f9e127b57982c33bf4816b",
      "function": "grantReadAccess(bytes32,address)",
      "arguments": [
        "0x8c01cce61839ac7aa1a6340c6b1fb2bbdad4e2525f455716eac97ecb7d2c5f17",
        "0xa3Cb3B9A6DF26cd550A6D8A49EF693c78750F27d"
      ],
      "transaction": {
        "from": "0x2c80200932c8733b09b70f9962d6302d9e6db2c5",
        "to": "0x1db99a995c566c25e8f9e127b57982c33bf4816b",
        "gas": "0x10484",
        "value": "0x0",
        "input": "0x6682edb68c01cce61839ac7aa1a6340c6b1fb2bbdad4e2525f455716eac97ecb7d2c5f17000000000000000000000000a3cb3b9a6df26cd550a6d8a49ef693c78750f27d",
        "nonce": "0xe0",
        "chainId": "0x13882"
      },
      "additionalContracts": [],
      "isFixedGasLimit": false
    },
    {
      "hash": null,
      "transactionType": "CALL",
      "contractName": "NDIDSRegistry",
      "contractAddress": "0x1db99a995c566c25e8f9e127b57982c33bf4816b",
      "function": "grantReadAccess(bytes32,address)",
      "arguments": [
        "0x8c01cce61839ac7aa1a6340c6b1fb2bbdad4e2525f455716eac97ecb7d2c5f17",
        "0x8c26B5E477d6feFf2a75C0Fbd7f3667c4dB07FC4"
      ],
      "transaction": {
        "from": "0x2c80200932c8733b09b70f9962d6302d9e6db2c5",
        "to": "0x1db99a995c566c25e8f9e127b57982c33bf4816b",
        "gas": "0x10484",
        "value": "0x0",
        "input": "0x6682edb68c01cce61839ac7aa1a6340c6b1fb2bbdad4e2525f455716eac97ecb7d2c5f170000000000000000000000008c26b5e477d6feff2a75c0fbd7f3667c4db07fc4",
        "nonce": "0xe1",
        "chainId": "0x13882"
      },
      "additionalContracts": [],
      "isFixedGasLimit": false
    },
    {
      "hash": null,
      "transactionType": "CALL",
      "contractName": "NDIDSRegistry",
      "contractAddress": "0x1db99a995c566c25e8f9e127b57982c33bf4816b",
      "function": "grantReadAccess(bytes32,address)",
      "arguments": [
        "0x8c01cce61839ac7aa1a6340c6b1fb2bbdad4e2525f455716eac97ecb7d2c5f17",
        "0x4F117fdC9BB2b781d52731E5674f669Bfe1E6402"
      ],
      "transaction": {
        "from": "0x2c80200932c8733b09b70f9962d6302d9e6db2c5",
        "to": "0x1db99a995c566c25e8f9e127b57982c33bf4816b",
        "gas": "0x10484",
        "value": "0x0",
        "input": "0x6682edb68c01cce61839ac7aa1a6340c6b1fb2bbdad4e2525f455716eac97ecb7d2c5f170000000000000000000000004f117fdc9bb2b781d52731e5674f669bfe1e6402",
        "nonce": "0xe2",
        "chainId": "0x13882"
      },
      "additionalContracts": [],
      "isFixedGasLimit": false
    },
    {
      "hash": null,
      "transactionType": "CALL",
      "contractName": "NDIDSRegistry",
      "contractAddress": "0x1db99a995c566c25e8f9e127b57982c33bf4816b",
      "function": "grantReadAccess(bytes32,address)",
      "arguments": [
        "0x7363828caf76e00e516c1a2a01d92f5cbd865a7e8c8f55dea65dd3ccfdee6bed",
        "0xa3Cb3B9A6DF26cd550A6D8A49EF693c78750F27d"
      ],
      "transaction": {
        "from": "0x2c80200932c8733b09b70f9962d6302d9e6db2c5",
        "to": "0x1db99a995c566c25e8f9e127b57982c33bf4816b",
        "gas": "0x10484",
        "value": "0x0",
        "input": "0x6682edb67363828caf76e00e516c1a2a01d92f5cbd865a7e8c8f55dea65dd3ccfdee6bed000000000000000000000000a3cb3b9a6df26cd550a6d8a49ef693c78750f27d",
        "nonce": "0xe3",
        "chainId": "0x13882"
      },
      "additionalContracts": [],
      "isFixedGasLimit": false
    },
    {
      "hash": null,
      "transactionType": "CALL",
      "contractName": "NDIDSRegistry",
      "contractAddress": "0x1db99a995c566c25e8f9e127b57982c33bf4816b",
      "function": "grantReadAccess(bytes32,address)",
      "arguments": [
        "0xb64e86dadba4ccb794500826640db076f2f63791b80e102222d0130a45c562c1",
        "0xa3Cb3B9A6DF26cd550A6D8A49EF693c78750F27d"
      ],
      "transaction": {
        "from": "0x2c80200932c8733b09b70f9962d6302d9e6db2c5",
        "to": "0x1db99a995c566c25e8f9e127b57982c33bf4816b",
        "gas": "0x10484",
        "value": "0x0",
        "input": "0x6682edb6b64e86dadba4ccb794500826640db076f2f63791b80e102222d0130a45c562c1000000000000000000000000a3cb3b9a6df26cd550a6d8a49ef693c78750f27d",
        "nonce": "0xe4",
        "chainId": "0x13882"
      },
      "additionalContracts": [],
      "isFixedGasLimit": false
    },
    {
      "hash": null,
      "transactionType": "CALL",
      "contractName": "NDIDSRegistry",
      "contractAddress": "0x1db99a995c566c25e8f9e127b57982c33bf4816b",
      "function": "grantReadAccess(bytes32,address)",
      "arguments": [
        "0xd7a3dc0789c1126cf6d8cf752d377e5a59f9eba2b67a9ccaaa75e666b5181c0a",
        "0x8c26B5E477d6feFf2a75C0Fbd7f3667c4dB07FC4"
      ],
      "transaction": {
        "from": "0x2c80200932c8733b09b70f9962d6302d9e6db2c5",
        "to": "0x1db99a995c566c25e8f9e127b57982c33bf4816b",
        "gas": "0x10484",
        "value": "0x0",
        "input": "0x6682edb6d7a3dc0789c1126cf6d8cf752d377e5a59f9eba2b67a9ccaaa75e666b5181c0a0000000000000000000000008c26b5e477d6feff2a75c0fbd7f3667c4db07fc4",
        "nonce": "0xe5",
        "chainId": "0x13882"
      },
      "additionalContracts": [],
      "isFixedGasLimit": false
    },
    {
      "hash": null,
      "transactionType": "CALL",
      "contractName": "NDIDSRegistry",
      "contractAddress": "0x1db99a995c566c25e8f9e127b57982c33bf4816b",
      "function": "grantReadAccess(bytes32,address)",
      "arguments": [
        "0xbc5376307ac0d41a52b4335fe32b3865deb44961b7fd8543b6ee710a1fb39451",
        "0x8c26B5E477d6feFf2a75C0Fbd7f3667c4dB07FC4"
      ],
      "transaction": {
        "from": "0x2c80200932c8733b09b70f9962d6302d9e6db2c5",
        "to": "0x1db99a995c566c25e8f9e127b57982c33bf4816b",
        "gas": "0x10484",
        "value": "0x0",
        "input": "0x6682edb6bc5376307ac0d41a52b4335fe32b3865deb44961b7fd8543b6ee710a1fb394510000000000000000000000008c26b5e477d6feff2a75c0fbd7f3667c4db07fc4",
        "nonce": "0xe6",
        "chainId": "0x13882"
      },
      "additionalContracts": [],
      "isFixedGasLimit": false
    },
    {
      "hash": null,
      "transactionType": "CALL",
      "contractName": "NDIDSRegistry",
      "contractAddress": "0x1db99a995c566c25e8f9e127b57982c33bf4816b",
      "function": "grantReadAccess(bytes32,address)",
      "arguments": [
        "0x411b083c3c4cdac418cdd9770d05ec314353cccc4cfdac1b728f684748d1ff6d",
        "0xeC404FB5564da6f6c77DD7C8A694B1A3fFCe99c1"
      ],
      "transaction": {
        "from": "0x2c80200932c8733b09b70f9962d6302d9e6db2c5",
        "to": "0x1db99a995c566c25e8f9e127b57982c33bf4816b",
        "gas": "0x10484",
        "value": "0x0",
        "input": "0x6682edb6411b083c3c4cdac418cdd9770d05ec314353cccc4cfdac1b728f684748d1ff6d000000000000000000000000ec404fb5564da6f6c77dd7c8a694b1a3ffce99c1",
        "nonce": "0xe7",
        "chainId": "0x13882"
      },
      "additionalContracts": [],
      "isFixedGasLimit": false
    },
    {
      "hash": null,
      "transactionType": "CALL",
      "contractName": "NDIDSRegistry",
      "contractAddress": "0x1db99a995c566c25e8f9e127b57982c33bf4816b",
      "function": "grantReadAccess(bytes32,address)",
      "arguments": [
        "0x820f138dcbd771037be8ea0e4ebbb9fd5aee28af5c795d6840fc8c930b3fd38a",
        "0xeC404FB5564da6f6c77DD7C8A694B1A3fFCe99c1"
      ],
      "transaction": {
        "from": "0x2c80200932c8733b09b70f9962d6302d9e6db2c5",
        "to": "0x1db99a995c566c25e8f9e127b57982c33bf4816b",
        "gas": "0x10484",
        "value": "0x0",
        "input": "0x6682edb6820f138dcbd771037be8ea0e4ebbb9fd5aee28af5c795d6840fc8c930b3fd38a000000000000000000000000ec404fb5564da6f6c77dd7c8a694b1a3ffce99c1",
        "nonce": "0xe8",
        "chainId": "0x13882"
      },
      "additionalContracts": [],
      "isFixedGasLimit": false
    },
    {
      "hash": null,
      "transactionType": "CALL",
      "contractName": "NDIDSRegistry",
      "contractAddress": "0x1db99a995c566c25e8f9e127b57982c33bf4816b",
      "function": "grantReadAccess(bytes32,address)",
      "arguments": [
        "0xf5ff5ec76ed8f1cbf6ffd082488c31014ecbd4e4f627592a52094d4073c9ef38",
        "0xeC404FB5564da6f6c77DD7C8A694B1A3fFCe99c1"
      ],
      "transaction": {
        "from": "0x2c80200932c8733b09b70f9962d6302d9e6db2c5",
        "to": "0x1db99a995c566c25e8f9e127b57982c33bf4816b",
        "gas": "0x10484",
        "value": "0x0",
        "input": "0x6682edb6f5ff5ec76ed8f1cbf6ffd082488c31014ecbd4e4f627592a52094d4073c9ef38000000000000000000000000ec404fb5564da6f6c77dd7c8a694b1a3ffce99c1",
        "nonce": "0xe9",
        "chainId": "0x13882"
      },
      "additionalContracts": [],
      "isFixedGasLimit": false
    },
    {
      "hash": null,
      "transactionType": "CALL",
      "contractName": "MinistryNode",
      "contractAddress": "0xe9b67df4a062c20167d963dd74fc436c1b83eced",
      "function": "authoriseReader(address)",
      "arguments": [
        "0x4F117fdC9BB2b781d52731E5674f669Bfe1E6402"
      ],
      "transaction": {
        "from": "0x2c80200932c8733b09b70f9962d6302d9e6db2c5",
        "to": "0xe9b67df4a062c20167d963dd74fc436c1b83eced",
        "gas": "0xf3dd",
        "value": "0x0",
        "input": "0x5a0af6e90000000000000000000000004f117fdc9bb2b781d52731e5674f669bfe1e6402",
        "nonce": "0xea",
        "chainId": "0x13882"
      },
      "additionalContracts": [],
      "isFixedGasLimit": false
    },
    {
      "hash": null,
      "transactionType": "CALL",
      "contractName": "MinistryNode",
      "contractAddress": "0x6c213b53b41c325317df0443442b0eae9c7618cc",
      "function": "authoriseReader(address)",
      "arguments": [
        "0x4F117fdC9BB2b781d52731E5674f669Bfe1E6402"
      ],
      "transaction": {
        "from": "0x2c80200932c8733b09b70f9962d6302d9e6db2c5",
        "to": "0x6c213b53b41c325317df0443442b0eae9c7618cc",
        "gas": "0xf3dd",
        "value": "0x0",
        "input": "0x5a0af6e90000000000000000000000004f117fdc9bb2b781d52731e5674f669bfe1e6402",
        "nonce": "0xeb",
        "chainId": "0x13882"
      },
      "additionalContracts": [],
      "isFixedGasLimit": false
    },
    {
      "hash": null,
      "transactionType": "CALL",
      "contractName": "MinistryNode",
      "contractAddress": "0xa3cb3b9a6df26cd550a6d8a49ef693c78750f27d",
      "function": "authoriseReader(address)",
      "arguments": [
        "0x8c26B5E477d6feFf2a75C0Fbd7f3667c4dB07FC4"
      ],
      "transaction": {
        "from": "0x2c80200932c8733b09b70f9962d6302d9e6db2c5",
        "to": "0xa3cb3b9a6df26cd550a6d8a49ef693c78750f27d",
        "gas": "0xf3dd",
        "value": "0x0",
        "input": "0x5a0af6e90000000000000000000000008c26b5e477d6feff2a75c0fbd7f3667c4db07fc4",
        "nonce": "0xec",
        "chainId": "0x13882"
      },
      "additionalContracts": [],
      "isFixedGasLimit": false
    },
    {
      "hash": null,
      "transactionType": "CALL",
      "contractName": "MinistryNode",
      "contractAddress": "0x6c213b53b41c325317df0443442b0eae9c7618cc",
      "function": "authoriseReader(address)",
      "arguments": [
        "0xeC404FB5564da6f6c77DD7C8A694B1A3fFCe99c1"
      ],
      "transaction": {
        "from": "0x2c80200932c8733b09b70f9962d6302d9e6db2c5",
        "to": "0x6c213b53b41c325317df0443442b0eae9c7618cc",
        "gas": "0xf3dd",
        "value": "0x0",
        "input": "0x5a0af6e9000000000000000000000000ec404fb5564da6f6c77dd7c8a694b1a3ffce99c1",
        "nonce": "0xed",
        "chainId": "0x13882"
      },
      "additionalContracts": [],
      "isFixedGasLimit": false
    },
    {
      "hash": null,
      "transactionType": "CALL",
      "contractName": "MinistryNode",
      "contractAddress": "0x8c26b5e477d6feff2a75c0fbd7f3667c4db07fc4",
      "function": "authoriseReader(address)",
      "arguments": [
        "0x4F117fdC9BB2b781d52731E5674f669Bfe1E6402"
      ],
      "transaction": {
        "from": "0x2c80200932c8733b09b70f9962d6302d9e6db2c5",
        "to": "0x8c26b5e477d6feff2a75c0fbd7f3667c4db07fc4",
        "gas": "0xf3dd",
        "value": "0x0",
        "input": "0x5a0af6e90000000000000000000000004f117fdc9bb2b781d52731e5674f669bfe1e6402",
        "nonce": "0xee",
        "chainId": "0x13882"
      },
      "additionalContracts": [],
      "isFixedGasLimit": false
    },
    {
      "hash": null,
      "transactionType": "CALL",
      "contractName": "MinistryNode",
      "contractAddress": "0xe9b67df4a062c20167d963dd74fc436c1b83eced",
      "function": "recordService(bytes32,string,bytes32,bool)",
      "arguments": [
        "0x496831613c1feaaaada6868deec5f07d3e827b2efb442302060b4ef01dc3630f",
        "SCHOOL_ENROLMENT_2025",
        "0xaca702408743a70342c67351a23f0d15de509acdd606e0970f6b53a412d304e7",
        "true"
      ],
      "transaction": {
        "from": "0x2c80200932c8733b09b70f9962d6302d9e6db2c5",
        "to": "0xe9b67df4a062c20167d963dd74fc436c1b83eced",
        "gas": "0x4907b",
        "value": "0x0",
        "input": "0x50668c95496831613c1feaaaada6868deec5f07d3e827b2efb442302060b4ef01dc3630f0000000000000000000000000000000000000000000000000000000000000080aca702408743a70342c67351a23f0d15de509acdd606e0970f6b53a412d304e7000000000000000000000000000000000000000000000000000000000000000100000000000000000000000000000000000000000000000000000000000000155343484f4f4c5f454e524f4c4d454e545f323032350000000000000000000000",
        "nonce": "0xef",
        "chainId": "0x13882"
      },
      "additionalContracts": [],
      "isFixedGasLimit": false
    },
    {
      "hash": null,
      "transactionType": "CALL",
      "contractName": "MinistryNode",
      "contractAddress": "0xe9b67df4a062c20167d963dd74fc436c1b83eced",
      "function": "recordService(bytes32,string,bytes32,bool)",
      "arguments": [
        "0xf96e522ee5a0c19b4ca60d49be83a309351115e0ebbcf49f3a7656fb245fbb0a",
        "SCHOOL_ENROLMENT_2025",
        "0xaca702408743a70342c67351a23f0d15de509acdd606e0970f6b53a412d304e7",
        "true"
      ],
      "transaction": {
        "from": "0x2c80200932c8733b09b70f9962d6302d9e6db2c5",
        "to": "0xe9b67df4a062c20167d963dd74fc436c1b83eced",
        "gas": "0x49f96",
        "value": "0x0",
        "input": "0x50668c95f96e522ee5a0c19b4ca60d49be83a309351115e0ebbcf49f3a7656fb245fbb0a0000000000000000000000000000000000000000000000000000000000000080aca702408743a70342c67351a23f0d15de509acdd606e0970f6b53a412d304e7000000000000000000000000000000000000000000000000000000000000000100000000000000000000000000000000000000000000000000000000000000155343484f4f4c5f454e524f4c4d454e545f323032350000000000000000000000",
        "nonce": "0xf0",
        "chainId": "0x13882"
      },
      "additionalContracts": [],
      "isFixedGasLimit": false
    },
    {
      "hash": null,
      "transactionType": "CALL",
      "contractName": "MinistryNode",
      "contractAddress": "0xe9b67df4a062c20167d963dd74fc436c1b83eced",
      "function": "recordService(bytes32,string,bytes32,bool)",
      "arguments": [
        "0xa0a0aa31af98058eceff7aec9d4931db40cc0219b8aafb221c031900895d412a",
        "SCHOOL_ENROLMENT_2025",
        "0xaca702408743a70342c67351a23f0d15de509acdd606e0970f6b53a412d304e7",
        "true"
      ],
      "transaction": {
        "from": "0x2c80200932c8733b09b70f9962d6302d9e6db2c5",
        "to": "0xe9b67df4a062c20167d963dd74fc436c1b83eced",
        "gas": "0x4e524",
        "value": "0x0",
        "input": "0x50668c95a0a0aa31af98058eceff7aec9d4931db40cc0219b8aafb221c031900895d412a0000000000000000000000000000000000000000000000000000000000000080aca702408743a70342c67351a23f0d15de509acdd606e0970f6b53a412d304e7000000000000000000000000000000000000000000000000000000000000000100000000000000000000000000000000000000000000000000000000000000155343484f4f4c5f454e524f4c4d454e545f323032350000000000000000000000",
        "nonce": "0xf1",
        "chainId": "0x13882"
      },
      "additionalContracts": [],
      "isFixedGasLimit": false
    },
    {
      "hash": null,
      "transactionType": "CALL",
      "contractName": "MinistryNode",
      "contractAddress": "0xe9b67df4a062c20167d963dd74fc436c1b83eced",
      "function": "recordService(bytes32,string,bytes32,bool)",
      "arguments": [
        "0xe7db799b2c6f0e50fcf27962b3e4484a5f669e3ce9f022bcabd6c067640fc252",
        "SCHOOL_ENROLMENT_2025",
        "0xaca702408743a70342c67351a23f0d15de509acdd606e0970f6b53a412d304e7",
        "true"
      ],
      "transaction": {
        "from": "0x2c80200932c8733b09b70f9962d6302d9e6db2c5",
        "to": "0xe9b67df4a062c20167d963dd74fc436c1b83eced",
        "gas": "0x49f96",
        "value": "0x0",
        "input": "0x50668c95e7db799b2c6f0e50fcf27962b3e4484a5f669e3ce9f022bcabd6c067640fc2520000000000000000000000000000000000000000000000000000000000000080aca702408743a70342c67351a23f0d15de509acdd606e0970f6b53a412d304e7000000000000000000000000000000000000000000000000000000000000000100000000000000000000000000000000000000000000000000000000000000155343484f4f4c5f454e524f4c4d454e545f323032350000000000000000000000",
        "nonce": "0xf2",
        "chainId": "0x13882"
      },
      "additionalContracts": [],
      "isFixedGasLimit": false
    },
    {
      "hash": null,
      "transactionType": "CALL",
      "contractName": "MinistryNode",
      "contractAddress": "0xe9b67df4a062c20167d963dd74fc436c1b83eced",
      "function": "recordService(bytes32,string,bytes32,bool)",
      "arguments": [
        "0xbd7e2ada672540cc850957626fd7e6e1970a54eec5be343fe3fc52f504c06e60",
        "SCHOOL_ENROLMENT_2025",
        "0xaca702408743a70342c67351a23f0d15de509acdd606e0970f6b53a412d304e7",
        "true"
      ],
      "transaction": {
        "from": "0x2c80200932c8733b09b70f9962d6302d9e6db2c5",
        "to": "0xe9b67df4a062c20167d963dd74fc436c1b83eced",
        "gas": "0x49f96",
        "value": "0x0",
        "input": "0x50668c95bd7e2ada672540cc850957626fd7e6e1970a54eec5be343fe3fc52f504c06e600000000000000000000000000000000000000000000000000000000000000080aca702408743a70342c67351a23f0d15de509acdd606e0970f6b53a412d304e7000000000000000000000000000000000000000000000000000000000000000100000000000000000000000000000000000000000000000000000000000000155343484f4f4c5f454e524f4c4d454e545f323032350000000000000000000000",
        "nonce": "0xf3",
        "chainId": "0x13882"
      },
      "additionalContracts": [],
      "isFixedGasLimit": false
    },
    {
      "hash": null,
      "transactionType": "CALL",
      "contractName": "MinistryNode",
      "contractAddress": "0x4f117fdc9bb2b781d52731e5674f669bfe1e6402",
      "function": "recordService(bytes32,string,bytes32,bool)",
      "arguments": [
        "0x496831613c1feaaaada6868deec5f07d3e827b2efb442302060b4ef01dc3630f",
        "EDUCATION_BENEFIT_ELIGIBLE_2025",
        "0xaca702408743a70342c67351a23f0d15de509acdd606e0970f6b53a412d304e7",
        "false"
      ],
      "transaction": {
        "from": "0x2c80200932c8733b09b70f9962d6302d9e6db2c5",
        "to": "0x4f117fdc9bb2b781d52731e5674f669bfe1e6402",
        "gas": "0x37a80",
        "value": "0x0",
        "input": "0x50668c95496831613c1feaaaada6868deec5f07d3e827b2efb442302060b4ef01dc3630f0000000000000000000000000000000000000000000000000000000000000080aca702408743a70342c67351a23f0d15de509acdd606e0970f6b53a412d304e70000000000000000000000000000000000000000000000000000000000000000000000000000000000000000000000000000000000000000000000000000001f454455434154494f4e5f42454e454649545f454c494749424c455f3230323500",
        "nonce": "0xf4",
        "chainId": "0x13882"
      },
      "additionalContracts": [],
      "isFixedGasLimit": false
    },
    {
      "hash": null,
      "transactionType": "CALL",
      "contractName": "MinistryNode",
      "contractAddress": "0x4f117fdc9bb2b781d52731e5674f669bfe1e6402",
      "function": "recordService(bytes32,string,bytes32,bool)",
      "arguments": [
        "0xf96e522ee5a0c19b4ca60d49be83a309351115e0ebbcf49f3a7656fb245fbb0a",
        "EDUCATION_BENEFIT_ELIGIBLE_2025",
        "0xaca702408743a70342c67351a23f0d15de509acdd606e0970f6b53a412d304e7",
        "false"
      ],
      "transaction": {
        "from": "0x2c80200932c8733b09b70f9962d6302d9e6db2c5",
        "to": "0x4f117fdc9bb2b781d52731e5674f669bfe1e6402",
        "gas": "0x3899b",
        "value": "0x0",
        "input": "0x50668c95f96e522ee5a0c19b4ca60d49be83a309351115e0ebbcf49f3a7656fb245fbb0a0000000000000000000000000000000000000000000000000000000000000080aca702408743a70342c67351a23f0d15de509acdd606e0970f6b53a412d304e70000000000000000000000000000000000000000000000000000000000000000000000000000000000000000000000000000000000000000000000000000001f454455434154494f4e5f42454e454649545f454c494749424c455f3230323500",
        "nonce": "0xf5",
        "chainId": "0x13882"
      },
      "additionalContracts": [],
      "isFixedGasLimit": false
    },
    {
      "hash": null,
      "transactionType": "CALL",
      "contractName": "MinistryNode",
      "contractAddress": "0x4f117fdc9bb2b781d52731e5674f669bfe1e6402",
      "function": "recordService(bytes32,string,bytes32,bool)",
      "arguments": [
        "0xa0a0aa31af98058eceff7aec9d4931db40cc0219b8aafb221c031900895d412a",
        "EDUCATION_BENEFIT_ELIGIBLE_2025",
        "0xaca702408743a70342c67351a23f0d15de509acdd606e0970f6b53a412d304e7",
        "false"
      ],
      "transaction": {
        "from": "0x2c80200932c8733b09b70f9962d6302d9e6db2c5",
        "to": "0x4f117fdc9bb2b781d52731e5674f669bfe1e6402",
        "gas": "0x3becf",
        "value": "0x0",
        "input": "0x50668c95a0a0aa31af98058eceff7aec9d4931db40cc0219b8aafb221c031900895d412a0000000000000000000000000000000000000000000000000000000000000080aca702408743a70342c67351a23f0d15de509acdd606e0970f6b53a412d304e70000000000000000000000000000000000000000000000000000000000000000000000000000000000000000000000000000000000000000000000000000001f454455434154494f4e5f42454e454649545f454c494749424c455f3230323500",
        "nonce": "0xf6",
        "chainId": "0x13882"
      },
      "additionalContracts": [],
      "isFixedGasLimit": false
    },
    {
      "hash": null,
      "transactionType": "CALL",
      "contractName": "MinistryNode",
      "contractAddress": "0x4f117fdc9bb2b781d52731e5674f669bfe1e6402",
      "function": "recordService(bytes32,string,bytes32,bool)",
      "arguments": [
        "0xe7db799b2c6f0e50fcf27962b3e4484a5f669e3ce9f022bcabd6c067640fc252",
        "EDUCATION_BENEFIT_ELIGIBLE_2025",
        "0xaca702408743a70342c67351a23f0d15de509acdd606e0970f6b53a412d304e7",
        "false"
      ],
      "transaction": {
        "from": "0x2c80200932c8733b09b70f9962d6302d9e6db2c5",
        "to": "0x4f117fdc9bb2b781d52731e5674f669bfe1e6402",
        "gas": "0x3899b",
        "value": "0x0",
        "input": "0x50668c95e7db799b2c6f0e50fcf27962b3e4484a5f669e3ce9f022bcabd6c067640fc2520000000000000000000000000000000000000000000000000000000000000080aca702408743a70342c67351a23f0d15de509acdd606e0970f6b53a412d304e70000000000000000000000000000000000000000000000000000000000000000000000000000000000000000000000000000000000000000000000000000001f454455434154494f4e5f42454e454649545f454c494749424c455f3230323500",
        "nonce": "0xf7",
        "chainId": "0x13882"
      },
      "additionalContracts": [],
      "isFixedGasLimit": false
    },
    {
      "hash": null,
      "transactionType": "CALL",
      "contractName": "MinistryNode",
      "contractAddress": "0x6c213b53b41c325317df0443442b0eae9c7618cc",
      "function": "recordService(bytes32,string,bytes32,bool)",
      "arguments": [
        "0x859aa079be8c8988b3460cf7e9ac4b718b346b52555937c76cfbcbb30f9783f3",
        "REMITTANCE_RECEIVED",
        "0xaca702408743a70342c67351a23f0d15de509acdd606e0970f6b53a412d304e7",
        "true"
      ],
      "transaction": {
        "from": "0x2c80200932c8733b09b70f9962d6302d9e6db2c5",
        "to": "0x6c213b53b41c325317df0443442b0eae9c7618cc",
        "gas": "0x49059",
        "value": "0x0",
        "input": "0x50668c95859aa079be8c8988b3460cf7e9ac4b718b346b52555937c76cfbcbb30f9783f30000000000000000000000000000000000000000000000000000000000000080aca702408743a70342c67351a23f0d15de509acdd606e0970f6b53a412d304e70000000000000000000000000000000000000000000000000000000000000001000000000000000000000000000000000000000000000000000000000000001352454d495454414e43455f524543454956454400000000000000000000000000",
        "nonce": "0xf8",
        "chainId": "0x13882"
      },
      "additionalContracts": [],
      "isFixedGasLimit": false
    },
    {
      "hash": null,
      "transactionType": "CALL",
      "contractName": "MinistryNode",
      "contractAddress": "0x6c213b53b41c325317df0443442b0eae9c7618cc",
      "function": "recordService(bytes32,string,bytes32,bool)",
      "arguments": [
        "0x6e9c897d295ae20940f527b295e481892bc92ca458147889223ea70f69d8419c",
        "REMITTANCE_RECEIVED",
        "0xaca702408743a70342c67351a23f0d15de509acdd606e0970f6b53a412d304e7",
        "true"
      ],
      "transaction": {
        "from": "0x2c80200932c8733b09b70f9962d6302d9e6db2c5",
        "to": "0x6c213b53b41c325317df0443442b0eae9c7618cc",
        "gas": "0x49f75",
        "value": "0x0",
        "input": "0x50668c956e9c897d295ae20940f527b295e481892bc92ca458147889223ea70f69d8419c0000000000000000000000000000000000000000000000000000000000000080aca702408743a70342c67351a23f0d15de509acdd606e0970f6b53a412d304e70000000000000000000000000000000000000000000000000000000000000001000000000000000000000000000000000000000000000000000000000000001352454d495454414e43455f524543454956454400000000000000000000000000",
        "nonce": "0xf9",
        "chainId": "0x13882"
      },
      "additionalContracts": [],
      "isFixedGasLimit": false
    },
    {
      "hash": null,
      "transactionType": "CALL",
      "contractName": "MinistryNode",
      "contractAddress": "0x6c213b53b41c325317df0443442b0eae9c7618cc",
      "function": "recordService(bytes32,string,bytes32,bool)",
      "arguments": [
        "0xb41649d86ee7b9f187c3e47c3b8b2e8e9b02ec942b0903ade3739e7a0645ae0e",
        "REMITTANCE_RECEIVED",
        "0xaca702408743a70342c67351a23f0d15de509acdd606e0970f6b53a412d304e7",
        "true"
      ],
      "transaction": {
        "from": "0x2c80200932c8733b09b70f9962d6302d9e6db2c5",
        "to": "0x6c213b53b41c325317df0443442b0eae9c7618cc",
        "gas": "0x49f75",
        "value": "0x0",
        "input": "0x50668c95b41649d86ee7b9f187c3e47c3b8b2e8e9b02ec942b0903ade3739e7a0645ae0e0000000000000000000000000000000000000000000000000000000000000080aca702408743a70342c67351a23f0d15de509acdd606e0970f6b53a412d304e70000000000000000000000000000000000000000000000000000000000000001000000000000000000000000000000000000000000000000000000000000001352454d495454414e43455f524543454956454400000000000000000000000000",
        "nonce": "0xfa",
        "chainId": "0x13882"
      },
      "additionalContracts": [],
      "isFixedGasLimit": false
    },
    {
      "hash": null,
      "transactionType": "CALL",
      "contractName": "MinistryNode",
      "contractAddress": "0xa3cb3b9a6df26cd550a6d8a49ef693c78750f27d",
      "function": "recordService(bytes32,string,bytes32,bool)",
      "arguments": [
        "0x4b3c141afafd656f055585e97dd2efb9d8a19dd68fc98a75f4214b956b9c7e1f",
        "SHIPMENT_CLEARED_2025",
        "0xaca702408743a70342c67351a23f0d15de509acdd606e0970f6b53a412d304e7",
        "true"
      ],
      "transaction": {
        "from": "0x2c80200932c8733b09b70f9962d6302d9e6db2c5",
        "to": "0xa3cb3b9a6df26cd550a6d8a49ef693c78750f27d",
        "gas": "0x4907b",
        "value": "0x0",
        "input": "0x50668c954b3c141afafd656f055585e97dd2efb9d8a19dd68fc98a75f4214b956b9c7e1f0000000000000000000000000000000000000000000000000000000000000080aca702408743a70342c67351a23f0d15de509acdd606e0970f6b53a412d304e700000000000000000000000000000000000000000000000000000000000000010000000000000000000000000000000000000000000000000000000000000015534849504d454e545f434c45415245445f323032350000000000000000000000",
        "nonce": "0xfb",
        "chainId": "0x13882"
      },
      "additionalContracts": [],
      "isFixedGasLimit": false
    },
    {
      "hash": null,
      "transactionType": "CALL",
      "contractName": "MinistryNode",
      "contractAddress": "0x8c26b5e477d6feff2a75c0fbd7f3667c4db07fc4",
      "function": "recordService(bytes32,string,bytes32,bool)",
      "arguments": [
        "0x4b3c141afafd656f055585e97dd2efb9d8a19dd68fc98a75f4214b956b9c7e1f",
        "TRADE_LICENCE_UPDATED",
        "0xaca702408743a70342c67351a23f0d15de509acdd606e0970f6b53a412d304e7",
        "false"
      ],
      "transaction": {
        "from": "0x2c80200932c8733b09b70f9962d6302d9e6db2c5",
        "to": "0x8c26b5e477d6feff2a75c0fbd7f3667c4db07fc4",
        "gas": "0x379d9",
        "value": "0x0",
        "input": "0x50668c954b3c141afafd656f055585e97dd2efb9d8a19dd68fc98a75f4214b956b9c7e1f0000000000000000000000000000000000000000000000000000000000000080aca702408743a70342c67351a23f0d15de509acdd606e0970f6b53a412d304e70000000000000000000000000000000000000000000000000000000000000000000000000000000000000000000000000000000000000000000000000000001554524144455f4c4943454e43455f555044415445440000000000000000000000",
        "nonce": "0xfc",
        "chainId": "0x13882"
      },
      "additionalContracts": [],
      "isFixedGasLimit": false
    },
    {
      "hash": null,
      "transactionType": "CALL",
      "contractName": "MinistryNode",
      "contractAddress": "0x4f117fdc9bb2b781d52731e5674f669bfe1e6402",
      "function": "recordService(bytes32,string,bytes32,bool)",
      "arguments": [
        "0x4b3c141afafd656f055585e97dd2efb9d8a19dd68fc98a75f4214b956b9c7e1f",
        "DUTY_PROCESSED",
        "0xaca702408743a70342c67351a23f0d15de509acdd606e0970f6b53a412d304e7",
        "false"
      ],
      "transaction": {
        "from": "0x2c80200932c8733b09b70f9962d6302d9e6db2c5",
        "to": "0x4f117fdc9bb2b781d52731e5674f669bfe1e6402",
        "gas": "0x3bdb6",
        "value": "0x0",
        "input": "0x50668c954b3c141afafd656f055585e97dd2efb9d8a19dd68fc98a75f4214b956b9c7e1f0000000000000000000000000000000000000000000000000000000000000080aca702408743a70342c67351a23f0d15de509acdd606e0970f6b53a412d304e70000000000000000000000000000000000000000000000000000000000000000000000000000000000000000000000000000000000000000000000000000000e445554595f50524f434553534544000000000000000000000000000000000000",
        "nonce": "0xfd",
        "chainId": "0x13882"
      },
      "additionalContracts": [],
      "isFixedGasLimit": false
    },
    {
      "hash": null,
      "transactionType": "CALL",
      "contractName": "MinistryNode",
      "contractAddress": "0xa3cb3b9a6df26cd550a6d8a49ef693c78750f27d",
      "function": "recordService(bytes32,string,bytes32,bool)",
      "arguments": [
        "0x858621e74b88819da03f1c00bc252e9d256bca8f1daeaaed67524e71d9adc6e5",
        "SHIPMENT_CLEARED_2025",
        "0xaca702408743a70342c67351a23f0d15de509acdd606e0970f6b53a412d304e7",
        "true"
      ],
      "transaction": {
        "from": "0x2c80200932c8733b09b70f9962d6302d9e6db2c5",
        "to": "0xa3cb3b9a6df26cd550a6d8a49ef693c78750f27d",
        "gas": "0x4e524",
        "value": "0x0",
        "input": "0x50668c95858621e74b88819da03f1c00bc252e9d256bca8f1daeaaed67524e71d9adc6e50000000000000000000000000000000000000000000000000000000000000080aca702408743a70342c67351a23f0d15de509acdd606e0970f6b53a412d304e700000000000000000000000000000000000000000000000000000000000000010000000000000000000000000000000000000000000000000000000000000015534849504d454e545f434c45415245445f323032350000000000000000000000",
        "nonce": "0xfe",
        "chainId": "0x13882"
      },
      "additionalContracts": [],
      "isFixedGasLimit": false
    },
    {
      "hash": null,
      "transactionType": "CALL",
      "contractName": "MinistryNode",
      "contractAddress": "0x8c26b5e477d6feff2a75c0fbd7f3667c4db07fc4",
      "function": "recordService(bytes32,string,bytes32,bool)",
      "arguments": [
        "0x858621e74b88819da03f1c00bc252e9d256bca8f1daeaaed67524e71d9adc6e5",
        "TRADE_LICENCE_UPDATED",
        "0xaca702408743a70342c67351a23f0d15de509acdd606e0970f6b53a412d304e7",
        "false"
      ],
      "transaction": {
        "from": "0x2c80200932c8733b09b70f9962d6302d9e6db2c5",
        "to": "0x8c26b5e477d6feff2a75c0fbd7f3667c4db07fc4",
        "gas": "0x3be20",
        "value": "0x0",
        "input": "0x50668c95858621e74b88819da03f1c00bc252e9d256bca8f1daeaaed67524e71d9adc6e50000000000000000000000000000000000000000000000000000000000000080aca702408743a70342c67351a23f0d15de509acdd606e0970f6b53a412d304e70000000000000000000000000000000000000000000000000000000000000000000000000000000000000000000000000000000000000000000000000000001554524144455f4c4943454e43455f555044415445440000000000000000000000",
        "nonce": "0xff",
        "chainId": "0x13882"
      },
      "additionalContracts": [],
      "isFixedGasLimit": false
    },
    {
      "hash": null,
      "transactionType": "CALL",
      "contractName": "MinistryNode",
      "contractAddress": "0x4f117fdc9bb2b781d52731e5674f669bfe1e6402",
      "function": "recordService(bytes32,string,bytes32,bool)",
      "arguments": [
        "0x858621e74b88819da03f1c00bc252e9d256bca8f1daeaaed67524e71d9adc6e5",
        "DUTY_PROCESSED",
        "0xaca702408743a70342c67351a23f0d15de509acdd606e0970f6b53a412d304e7",
        "false"
      ],
      "transaction": {
        "from": "0x2c80200932c8733b09b70f9962d6302d9e6db2c5",
        "to": "0x4f117fdc9bb2b781d52731e5674f669bfe1e6402",
        "gas": "0x38870",
        "value": "0x0",
        "input": "0x50668c95858621e74b88819da03f1c00bc252e9d256bca8f1daeaaed67524e71d9adc6e50000000000000000000000000000000000000000000000000000000000000080aca702408743a70342c67351a23f0d15de509acdd606e0970f6b53a412d304e70000000000000000000000000000000000000000000000000000000000000000000000000000000000000000000000000000000000000000000000000000000e445554595f50524f434553534544000000000000000000000000000000000000",
        "nonce": "0x100",
        "chainId": "0x13882"
      },
      "additionalContracts": [],
      "isFixedGasLimit": false
    },
    {
      "hash": null,
      "transactionType": "CALL",
      "contractName": "MinistryNode",
      "contractAddress": "0x4f117fdc9bb2b781d52731e5674f669bfe1e6402",
      "function": "recordService(bytes32,string,bytes32,bool)",
      "arguments": [
        "0xc47d4b4b284a1890f05ac0b439322e94bfb0da52bbc29c8ca35e975d71a0a1e0",
        "SOCIAL_WELFARE_PAYMENT_2025",
        "0xaca702408743a70342c67351a23f0d15de509acdd606e0970f6b53a412d304e7",
        "true"
      ],
      "transaction": {
        "from": "0x2c80200932c8733b09b70f9962d6302d9e6db2c5",
        "to": "0x4f117fdc9bb2b781d52731e5674f669bfe1e6402",
        "gas": "0x49ff9",
        "value": "0x0",
        "input": "0x50668c95c47d4b4b284a1890f05ac0b439322e94bfb0da52bbc29c8ca35e975d71a0a1e00000000000000000000000000000000000000000000000000000000000000080aca702408743a70342c67351a23f0d15de509acdd606e0970f6b53a412d304e70000000000000000000000000000000000000000000000000000000000000001000000000000000000000000000000000000000000000000000000000000001b534f4349414c5f57454c464152455f5041594d454e545f323032350000000000",
        "nonce": "0x101",
        "chainId": "0x13882"
      },
      "additionalContracts": [],
      "isFixedGasLimit": false
    },
    {
      "hash": null,
      "transactionType": "CALL",
      "contractName": "MinistryNode",
      "contractAddress": "0x4f117fdc9bb2b781d52731e5674f669bfe1e6402",
      "function": "recordService(bytes32,string,bytes32,bool)",
      "arguments": [
        "0x3a49bc466d1f0ba0f10351db6306aa8bd472a4049069af275e81e505ffaf5bd9",
        "SOCIAL_WELFARE_PAYMENT_2025",
        "0xaca702408743a70342c67351a23f0d15de509acdd606e0970f6b53a412d304e7",
        "true"
      ],
      "transaction": {
        "from": "0x2c80200932c8733b09b70f9962d6302d9e6db2c5",
        "to": "0x4f117fdc9bb2b781d52731e5674f669bfe1e6402",
        "gas": "0x49ff9",
        "value": "0x0",
        "input": "0x50668c953a49bc466d1f0ba0f10351db6306aa8bd472a4049069af275e81e505ffaf5bd90000000000000000000000000000000000000000000000000000000000000080aca702408743a70342c67351a23f0d15de509acdd606e0970f6b53a412d304e70000000000000000000000000000000000000000000000000000000000000001000000000000000000000000000000000000000000000000000000000000001b534f4349414c5f57454c464152455f5041594d454e545f323032350000000000",
        "nonce": "0x102",
        "chainId": "0x13882"
      },
      "additionalContracts": [],
      "isFixedGasLimit": false
    },
    {
      "hash": null,
      "transactionType": "CALL",
      "contractName": "MinistryNode",
      "contractAddress": "0x4f117fdc9bb2b781d52731e5674f669bfe1e6402",
      "function": "recordService(bytes32,string,bytes32,bool)",
      "arguments": [
        "0x60e2f5fea1cfd64329c163fa411a9ff7e8285aec757b4ad1d87ab756fe096c4b",
        "SOCIAL_WELFARE_PAYMENT_2025",
        "0xaca702408743a70342c67351a23f0d15de509acdd606e0970f6b53a412d304e7",
        "true"
      ],
      "transaction": {
        "from": "0x2c80200932c8733b09b70f9962d6302d9e6db2c5",
        "to": "0x4f117fdc9bb2b781d52731e5674f669bfe1e6402",
        "gas": "0x49ff9",
        "value": "0x0",
        "input": "0x50668c9560e2f5fea1cfd64329c163fa411a9ff7e8285aec757b4ad1d87ab756fe096c4b0000000000000000000000000000000000000000000000000000000000000080aca702408743a70342c67351a23f0d15de509acdd606e0970f6b53a412d304e70000000000000000000000000000000000000000000000000000000000000001000000000000000000000000000000000000000000000000000000000000001b534f4349414c5f57454c464152455f5041594d454e545f323032350000000000",
        "nonce": "0x103",
        "chainId": "0x13882"
      },
      "additionalContracts": [],
      "isFixedGasLimit": false
    },
    {
      "hash": null,
      "transactionType": "CALL",
      "contractName": "InteroperabilityHub",
      "contractAddress": "0x3fd12fe1400bd9b8cd7ebe59c47ea27ab6bf5edb",
      "function": "executeEnrollmentWorkflow(bytes32,address,address,bytes32)",
      "arguments": [
        "0x496831613c1feaaaada6868deec5f07d3e827b2efb442302060b4ef01dc3630f",
        "0xe9b67Df4a062C20167D963DD74fc436c1B83EceD",
        "0x4F117fdC9BB2b781d52731E5674f669Bfe1E6402",
        "0xaca702408743a70342c67351a23f0d15de509acdd606e0970f6b53a412d304e7"
      ],
      "transaction": {
        "from": "0x2c80200932c8733b09b70f9962d6302d9e6db2c5",
        "to": "0x3fd12fe1400bd9b8cd7ebe59c47ea27ab6bf5edb",
        "gas": "0x34bde",
        "value": "0x0",
        "input": "0xce8582d3496831613c1feaaaada6868deec5f07d3e827b2efb442302060b4ef01dc3630f000000000000000000000000e9b67df4a062c20167d963dd74fc436c1b83eced0000000000000000000000004f117fdc9bb2b781d52731e5674f669bfe1e6402aca702408743a70342c67351a23f0d15de509acdd606e0970f6b53a412d304e7",
        "nonce": "0x104",
        "chainId": "0x13882"
      },
      "additionalContracts": [],
      "isFixedGasLimit": false
    },
    {
      "hash": null,
      "transactionType": "CALL",
      "contractName": "InteroperabilityHub",
      "contractAddress": "0x3fd12fe1400bd9b8cd7ebe59c47ea27ab6bf5edb",
      "function": "executeEnrollmentWorkflow(bytes32,address,address,bytes32)",
      "arguments": [
        "0xf96e522ee5a0c19b4ca60d49be83a309351115e0ebbcf49f3a7656fb245fbb0a",
        "0xe9b67Df4a062C20167D963DD74fc436c1B83EceD",
        "0x4F117fdC9BB2b781d52731E5674f669Bfe1E6402",
        "0xaca702408743a70342c67351a23f0d15de509acdd606e0970f6b53a412d304e7"
      ],
      "transaction": {
        "from": "0x2c80200932c8733b09b70f9962d6302d9e6db2c5",
        "to": "0x3fd12fe1400bd9b8cd7ebe59c47ea27ab6bf5edb",
        "gas": "0x2c0b8",
        "value": "0x0",
        "input": "0xce8582d3f96e522ee5a0c19b4ca60d49be83a309351115e0ebbcf49f3a7656fb245fbb0a000000000000000000000000e9b67df4a062c20167d963dd74fc436c1b83eced0000000000000000000000004f117fdc9bb2b781d52731e5674f669bfe1e6402aca702408743a70342c67351a23f0d15de509acdd606e0970f6b53a412d304e7",
        "nonce": "0x105",
        "chainId": "0x13882"
      },
      "additionalContracts": [],
      "isFixedGasLimit": false
    },
    {
      "hash": null,
      "transactionType": "CALL",
      "contractName": "InteroperabilityHub",
      "contractAddress": "0x3fd12fe1400bd9b8cd7ebe59c47ea27ab6bf5edb",
      "function": "executeEnrollmentWorkflow(bytes32,address,address,bytes32)",
      "arguments": [
        "0xa0a0aa31af98058eceff7aec9d4931db40cc0219b8aafb221c031900895d412a",
        "0xe9b67Df4a062C20167D963DD74fc436c1B83EceD",
        "0x4F117fdC9BB2b781d52731E5674f669Bfe1E6402",
        "0xaca702408743a70342c67351a23f0d15de509acdd606e0970f6b53a412d304e7"
      ],
      "transaction": {
        "from": "0x2c80200932c8733b09b70f9962d6302d9e6db2c5",
        "to": "0x3fd12fe1400bd9b8cd7ebe59c47ea27ab6bf5edb",
        "gas": "0x2ea1b",
        "value": "0x0",
        "input": "0xce8582d3a0a0aa31af98058eceff7aec9d4931db40cc0219b8aafb221c031900895d412a000000000000000000000000e9b67df4a062c20167d963dd74fc436c1b83eced0000000000000000000000004f117fdc9bb2b781d52731e5674f669bfe1e6402aca702408743a70342c67351a23f0d15de509acdd606e0970f6b53a412d304e7",
        "nonce": "0x106",
        "chainId": "0x13882"
      },
      "additionalContracts": [],
      "isFixedGasLimit": false
    },
    {
      "hash": null,
      "transactionType": "CALL",
      "contractName": "AIDisbursementTracker",
      "contractAddress": "0x0e832d0c324cd70ca58dd1b0965151167853ce42",
      "function": "createGrant(string,address,address,uint256,uint256,string,string[],uint256[])",
      "arguments": [
        "UNICEF Samoa Education Access Programme 2025",
        "0x2C80200932C8733b09B70F9962d6302D9E6dB2C5",
        "0xe9b67Df4a062C20167D963DD74fc436c1B83EceD",
        "100000",
        "50",
        "EDUCATION",
        "[Programme setup and capacity training complete, 50 children enrolled with verified attendance records, End-of-term learning outcomes documented and verified]",
        "[30000, 40000, 30000]"
      ],
      "transaction": {
        "from": "0x2c80200932c8733b09b70f9962d6302d9e6db2c5",
        "to": "0x0e832d0c324cd70ca58dd1b0965151167853ce42",
        "gas": "0xd8a5f",
        "value": "0x0",
        "input": "0xb648cfdc00000000000000000000000000000000000000000000000000000000000001000000000000000000000000002c80200932c8733b09b70f9962d6302d9e6db2c5000000000000000000000000e9b67df4a062c20167d963dd74fc436c1b83eced00000000000000000000000000000000000000000000000000000000000186a00000000000000000000000000000000000000000000000000000000000000032000000000000000000000000000000000000000000000000000000000000016000000000000000000000000000000000000000000000000000000000000001a00000000000000000000000000000000000000000000000000000000000000340000000000000000000000000000000000000000000000000000000000000002c554e494345462053616d6f6120456475636174696f6e204163636573732050726f6772616d6d65203230323500000000000000000000000000000000000000000000000000000000000000000000000000000000000000000000000000000009454455434154494f4e00000000000000000000000000000000000000000000000000000000000000000000000000000000000000000000000000000000000003000000000000000000000000000000000000000000000000000000000000006000000000000000000000000000000000000000000000000000000000000000c00000000000000000000000000000000000000000000000000000000000000120000000000000000000000000000000000000000000000000000000000000002e50726f6772616d6d6520736574757020616e6420636170616369747920747261696e696e6720636f6d706c65746500000000000000000000000000000000000000000000000000000000000000000000000000000000000000000000000000353530206368696c6472656e20656e726f6c6c6564207769746820766572696669656420617474656e64616e6365207265636f72647300000000000000000000000000000000000000000000000000000000000000000000000000000000000035456e642d6f662d7465726d206c6561726e696e67206f7574636f6d657320646f63756d656e74656420616e642076657269666965640000000000000000000000000000000000000000000000000000000000000000000000000000000000000300000000000000000000000000000000000000000000000000000000000075300000000000000000000000000000000000000000000000000000000000009c400000000000000000000000000000000000000000000000000000000000007530",
        "nonce": "0x107",
        "chainId": "0x13882"
      },
      "additionalContracts": [],
      "isFixedGasLimit": false
    },
    {
      "hash": null,
      "transactionType": "CALL",
      "contractName": "AIDisbursementTracker",
      "contractAddress": "0x0e832d0c324cd70ca58dd1b0965151167853ce42",
      "function": "authoriseVerifier(address)",
      "arguments": [
        "0xe9b67Df4a062C20167D963DD74fc436c1B83EceD"
      ],
      "transaction": {
        "from": "0x2c80200932c8733b09b70f9962d6302d9e6db2c5",
        "to": "0x0e832d0c324cd70ca58dd1b0965151167853ce42",
        "gas": "0x10330",
        "value": "0x0",
        "input": "0xf9a9c3a7000000000000000000000000e9b67df4a062c20167d963dd74fc436c1b83eced",
        "nonce": "0x108",
        "chainId": "0x13882"
      },
      "additionalContracts": [],
      "isFixedGasLimit": false
    },
    {
      "hash": null,
      "transactionType": "CALL",
      "contractName": "AIDisbursementTracker",
      "contractAddress": "0x0e832d0c324cd70ca58dd1b0965151167853ce42",
      "function": "authoriseVerifier(address)",
      "arguments": [
        "0x2C80200932C8733b09B70F9962d6302D9E6dB2C5"
      ],
      "transaction": {
        "from": "0x2c80200932c8733b09b70f9962d6302d9e6db2c5",
        "to": "0x0e832d0c324cd70ca58dd1b0965151167853ce42",
        "gas": "0x10330",
        "value": "0x0",
        "input": "0xf9a9c3a70000000000000000000000002c80200932c8733b09b70f9962d6302d9e6db2c5",
        "nonce": "0x109",
        "chainId": "0x13882"
      },
      "additionalContracts": [],
      "isFixedGasLimit": false
    },
    {
      "hash": null,
      "transactionType": "CALL",
      "contractName": "AIDisbursementTracker",
      "contractAddress": "0x0e832d0c324cd70ca58dd1b0965151167853ce42",
      "function": "releaseTranche(uint256,uint256)",
      "arguments": [
        "0",
        "0"
      ],
      "transaction": {
        "from": "0x2c80200932c8733b09b70f9962d6302d9e6db2c5",
        "to": "0x0e832d0c324cd70ca58dd1b0965151167853ce42",
        "gas": "0x330b3",
        "value": "0x0",
        "input": "0x633c49d800000000000000000000000000000000000000000000000000000000000000000000000000000000000000000000000000000000000000000000000000000000",
        "nonce": "0x10a",
        "chainId": "0x13882"
      },
      "additionalContracts": [],
      "isFixedGasLimit": false
    },
    {
      "hash": null,
      "transactionType": "CALL",
      "contractName": "AIDisbursementTracker",
      "contractAddress": "0x0e832d0c324cd70ca58dd1b0965151167853ce42",
      "function": "verifyUsage(uint256,uint256,bytes32,uint256)",
      "arguments": [
        "0",
        "0",
        "0x6d19d45b001efda1ecfd87e5fe1a625a2b16b4b97a7fa56c599b45489326e476",
        "0"
      ],
      "transaction": {
        "from": "0x2c80200932c8733b09b70f9962d6302d9e6db2c5",
        "to": "0x0e832d0c324cd70ca58dd1b0965151167853ce42",
        "gas": "0x33e89",
        "value": "0x0",
        "input": "0x5becfab6000000000000000000000000000000000000000000000000000000000000000000000000000000000000000000000000000000000000000000000000000000006d19d45b001efda1ecfd87e5fe1a625a2b16b4b97a7fa56c599b45489326e4760000000000000000000000000000000000000000000000000000000000000000",
        "nonce": "0x10b",
        "chainId": "0x13882"
      },
      "additionalContracts": [],
      "isFixedGasLimit": false
    },
    {
      "hash": null,
      "transactionType": "CALL",
      "contractName": "AIDisbursementTracker",
      "contractAddress": "0x0e832d0c324cd70ca58dd1b0965151167853ce42",
      "function": "releaseTranche(uint256,uint256)",
      "arguments": [
        "0",
        "1"
      ],
      "transaction": {
        "from": "0x2c80200932c8733b09b70f9962d6302d9e6db2c5",
        "to": "0x0e832d0c324cd70ca58dd1b0965151167853ce42",
        "gas": "0x29d6d",
        "value": "0x0",
        "input": "0x633c49d800000000000000000000000000000000000000000000000000000000000000000000000000000000000000000000000000000000000000000000000000000001",
        "nonce": "0x10c",
        "chainId": "0x13882"
      },
      "additionalContracts": [],
      "isFixedGasLimit": false
    }
  ],
  "receipts": [],
  "libraries": [],
  "pending": [
    "0xc2cc08e0c90903e78cc3566d1f0d30691e1e206a3b790d73bd2ae84309ee17a6"
  ],
  "returns": {},
  "timestamp": 1773783701150,
  "chain": 80002,
  "commit": "2b0f467"
}